{
  "contractName": "HornLockVault",
  "abi": [
    {
      "inputs": [
        {
          "internalType": "address",
          "name": "lockedTokenAddr",
          "type": "address"
        },
        {
          "internalType": "address",
          "name": "hornTokenAddr",
          "type": "address"
        },
        {
          "internalType": "uint128",
          "name": "fee",
          "type": "uint128"
        },
        {
          "internalType": "uint128",
          "name": "depositRewardFee",
          "type": "uint128"
        },
        {
          "internalType": "uint256",
          "name": "hornPerDay",
          "type": "uint256"
        },
        {
          "internalType": "uint256",
          "name": "minLockDays",
          "type": "uint256"
        },
        {
          "internalType": "uint256",
          "name": "weightPerHorn",
          "type": "uint256"
        }
      ],
      "stateMutability": "nonpayable",
      "type": "constructor"
    },
    {
      "anonymous": false,
      "inputs": [
        {
          "indexed": true,
          "internalType": "address",
          "name": "from",
          "type": "address"
        },
        {
          "indexed": false,
          "internalType": "uint256",
          "name": "value",
          "type": "uint256"
        },
        {
          "indexed": false,
          "internalType": "uint256",
          "name": "weightAdded",
          "type": "uint256"
        }
      ],
      "name": "Burn",
      "type": "event"
    },
    {
      "anonymous": false,
      "inputs": [
        {
          "indexed": true,
          "internalType": "address",
          "name": "from",
          "type": "address"
        },
        {
          "indexed": false,
          "internalType": "uint256",
          "name": "amount",
          "type": "uint256"
        }
      ],
      "name": "Claim",
      "type": "event"
    },
    {
      "anonymous": false,
      "inputs": [
        {
          "indexed": true,
          "internalType": "address",
          "name": "from",
          "type": "address"
        },
        {
          "indexed": false,
          "internalType": "uint256",
          "name": "value",
          "type": "uint256"
        },
        {
          "indexed": false,
          "internalType": "uint256",
          "name": "fee",
          "type": "uint256"
        },
        {
          "indexed": false,
          "internalType": "uint256",
          "name": "fromDate",
          "type": "uint256"
        },
        {
          "indexed": false,
          "internalType": "uint256",
          "name": "toDate",
          "type": "uint256"
        }
      ],
      "name": "Deposit",
      "type": "event"
    },
    {
      "anonymous": false,
      "inputs": [
        {
          "indexed": true,
          "internalType": "address",
          "name": "to",
          "type": "address"
        },
        {
          "indexed": false,
          "internalType": "uint256",
          "name": "reward",
          "type": "uint256"
        },
        {
          "indexed": false,
          "internalType": "uint256",
          "name": "totalFee",
          "type": "uint256"
        },
        {
          "indexed": false,
          "internalType": "uint256",
          "name": "senderBalance",
          "type": "uint256"
        },
        {
          "indexed": false,
          "internalType": "uint256",
          "name": "contractBalance",
          "type": "uint256"
        },
        {
          "indexed": false,
          "internalType": "uint256",
          "name": "weightPercent",
          "type": "uint256"
        }
      ],
      "name": "DepositReward",
      "type": "event"
    },
    {
      "anonymous": false,
      "inputs": [
        {
          "indexed": false,
          "internalType": "string",
          "name": "text",
          "type": "string"
        }
      ],
      "name": "Log",
      "type": "event"
    },
    {
      "anonymous": false,
      "inputs": [
        {
          "indexed": false,
          "internalType": "address",
          "name": "value",
          "type": "address"
        }
      ],
      "name": "LogAddress",
      "type": "event"
    },
    {
      "anonymous": false,
      "inputs": [
        {
          "indexed": false,
          "internalType": "uint256",
          "name": "value",
          "type": "uint256"
        }
      ],
      "name": "LogUINT",
      "type": "event"
    },
    {
      "anonymous": false,
      "inputs": [
        {
          "indexed": false,
          "internalType": "string",
          "name": "key",
          "type": "string"
        },
        {
          "indexed": false,
          "internalType": "uint256",
          "name": "value",
          "type": "uint256"
        }
      ],
      "name": "LogUINTText",
      "type": "event"
    },
    {
      "anonymous": false,
      "inputs": [
        {
          "indexed": false,
          "internalType": "uint256",
          "name": "index",
          "type": "uint256"
        },
        {
          "indexed": false,
          "internalType": "uint256",
          "name": "timestamp",
          "type": "uint256"
        }
      ],
      "name": "NewPool",
      "type": "event"
    },
    {
      "anonymous": false,
      "inputs": [
        {
          "indexed": true,
          "internalType": "address",
          "name": "from",
          "type": "address"
        },
        {
          "indexed": true,
          "internalType": "address",
          "name": "to",
          "type": "address"
        },
        {
          "indexed": false,
          "internalType": "uint256",
          "name": "amount",
          "type": "uint256"
        },
        {
          "indexed": false,
          "internalType": "uint256",
          "name": "reward",
          "type": "uint256"
        },
        {
          "indexed": false,
          "internalType": "uint256",
          "name": "baseFee",
          "type": "uint256"
        }
      ],
      "name": "ReferralReward",
      "type": "event"
    },
    {
      "anonymous": false,
      "inputs": [
        {
          "indexed": true,
          "internalType": "address",
          "name": "to",
          "type": "address"
        },
        {
          "indexed": false,
          "internalType": "uint256",
          "name": "value",
          "type": "uint256"
        }
      ],
      "name": "Withdraw",
      "type": "event"
    },
    {
      "inputs": [
        {
          "internalType": "address",
          "name": "account",
          "type": "address"
        }
      ],
      "name": "balanceOf",
      "outputs": [
        {
          "internalType": "uint256",
          "name": "",
          "type": "uint256"
        }
      ],
      "stateMutability": "view",
      "type": "function",
      "constant": true
    },
    {
      "inputs": [
        {
          "internalType": "address",
          "name": "account",
          "type": "address"
        }
      ],
      "name": "claimableBalanceOf",
      "outputs": [
        {
          "internalType": "uint256",
          "name": "",
          "type": "uint256"
        }
      ],
      "stateMutability": "view",
      "type": "function",
      "constant": true
    },
    {
      "inputs": [
        {
          "internalType": "address",
          "name": "account",
          "type": "address"
        }
      ],
      "name": "claimableHornOf",
      "outputs": [
        {
          "internalType": "uint256",
          "name": "",
          "type": "uint256"
        }
      ],
      "stateMutability": "view",
      "type": "function",
      "constant": true
    },
    {
      "inputs": [],
      "name": "reserve",
      "outputs": [
        {
          "internalType": "uint256",
          "name": "",
          "type": "uint256"
        }
      ],
      "stateMutability": "view",
      "type": "function",
      "constant": true
    },
    {
      "inputs": [],
      "name": "lockedAssets",
      "outputs": [
        {
          "internalType": "uint256",
          "name": "",
          "type": "uint256"
        }
      ],
      "stateMutability": "view",
      "type": "function",
      "constant": true
    },
    {
      "inputs": [
        {
          "internalType": "uint256",
          "name": "before",
          "type": "uint256"
        }
      ],
      "name": "lockedAssetsBefore",
      "outputs": [
        {
          "internalType": "uint256",
          "name": "",
          "type": "uint256"
        }
      ],
      "stateMutability": "view",
      "type": "function",
      "constant": true
    },
    {
      "inputs": [
        {
          "internalType": "address",
          "name": "account",
          "type": "address"
        }
      ],
      "name": "getBurnedHornAmount",
      "outputs": [
        {
          "internalType": "uint256",
          "name": "",
          "type": "uint256"
        }
      ],
      "stateMutability": "view",
      "type": "function",
      "constant": true
    },
    {
      "inputs": [],
      "name": "name",
      "outputs": [
        {
          "internalType": "string",
          "name": "",
          "type": "string"
        }
      ],
      "stateMutability": "view",
      "type": "function",
      "constant": true
    },
    {
      "inputs": [
        {
          "internalType": "bool",
          "name": "newState",
          "type": "bool"
        }
      ],
      "name": "setPauseState",
      "outputs": [
        {
          "internalType": "bool",
          "name": "",
          "type": "bool"
        }
      ],
      "stateMutability": "payable",
      "type": "function",
      "payable": true
    },
    {
      "inputs": [
        {
          "internalType": "bool",
          "name": "newState",
          "type": "bool"
        }
      ],
      "name": "setHornRewardDisabledState",
      "outputs": [
        {
          "internalType": "bool",
          "name": "",
          "type": "bool"
        }
      ],
      "stateMutability": "payable",
      "type": "function",
      "payable": true
    },
    {
      "inputs": [
        {
          "internalType": "bool",
          "name": "newState",
          "type": "bool"
        }
      ],
      "name": "setEmergencyWithdrawState",
      "outputs": [
        {
          "internalType": "bool",
          "name": "",
          "type": "bool"
        }
      ],
      "stateMutability": "payable",
      "type": "function",
      "payable": true
    },
    {
      "inputs": [
        {
          "internalType": "uint256",
          "name": "amount",
          "type": "uint256"
        },
        {
          "internalType": "address",
          "name": "referralAddr",
          "type": "address"
        }
      ],
      "name": "deposit",
      "outputs": [
        {
          "internalType": "bool",
          "name": "",
          "type": "bool"
        }
      ],
      "stateMutability": "payable",
      "type": "function",
      "payable": true
    },
    {
      "inputs": [
        {
          "internalType": "address",
          "name": "account",
          "type": "address"
        },
        {
          "internalType": "bool",
          "name": "filterBurned",
          "type": "bool"
        }
      ],
      "name": "balanceIndexes",
      "outputs": [
        {
          "internalType": "uint256[]",
          "name": "",
          "type": "uint256[]"
        }
      ],
      "stateMutability": "view",
      "type": "function",
      "constant": true
    },
    {
      "inputs": [
        {
          "internalType": "address",
          "name": "account",
          "type": "address"
        }
      ],
      "name": "getLockedAssetsCountByAccount",
      "outputs": [
        {
          "internalType": "uint256",
          "name": "",
          "type": "uint256"
        }
      ],
      "stateMutability": "view",
      "type": "function",
      "constant": true
    },
    {
      "inputs": [
        {
          "internalType": "address",
          "name": "account",
          "type": "address"
        },
        {
          "internalType": "uint256",
          "name": "index",
          "type": "uint256"
        }
      ],
      "name": "claimableFees",
      "outputs": [
        {
          "internalType": "uint256",
          "name": "",
          "type": "uint256"
        }
      ],
      "stateMutability": "view",
      "type": "function",
      "constant": true
    },
    {
      "inputs": [
        {
          "internalType": "uint256",
          "name": "index",
          "type": "uint256"
        }
      ],
      "name": "weightInPool",
      "outputs": [
        {
          "internalType": "uint256",
          "name": "",
          "type": "uint256"
        }
      ],
      "stateMutability": "view",
      "type": "function",
      "constant": true
    },
    {
      "inputs": [],
      "name": "withdraw",
      "outputs": [
        {
          "internalType": "bool",
          "name": "",
          "type": "bool"
        }
      ],
      "stateMutability": "payable",
      "type": "function",
      "payable": true
    },
    {
      "inputs": [
        {
          "internalType": "uint256",
          "name": "amount",
          "type": "uint256"
        }
      ],
      "name": "burn",
      "outputs": [
        {
          "internalType": "bool",
          "name": "",
          "type": "bool"
        }
      ],
      "stateMutability": "payable",
      "type": "function",
      "payable": true
    },
    {
      "inputs": [],
      "name": "claimHorn",
      "outputs": [],
      "stateMutability": "payable",
      "type": "function",
      "payable": true
    },
    {
      "inputs": [],
      "name": "withdrawFees",
      "outputs": [],
      "stateMutability": "payable",
      "type": "function",
      "payable": true
    },
    {
      "inputs": [],
      "name": "poolIsEmpty",
      "outputs": [
        {
          "internalType": "bool",
          "name": "",
          "type": "bool"
        }
      ],
      "stateMutability": "view",
      "type": "function",
      "constant": true
    }
  ],
  "bytecode": "0x60806040526000600855600a805462ffffff191690553480156200002257600080fd5b506040516200312638038062003126833981810160405260e08110156200004857600080fd5b50805160208201516040808401516060850151608086015160a087015160c09097015160028054336001600160a01b031991821617909155600a80546301000000600160b81b03191663010000006001600160a01b03808c1682029290921792839055600b8054909416828b161790935587516395d89b4160e01b81529751999a989996989597949693949290910416916395d89b4191600480820192600092909190829003018186803b1580156200010057600080fd5b505afa15801562000115573d6000803e3d6000fd5b505050506040513d6000823e601f3d908101601f1916820160405260208110156200013f57600080fd5b81019080805160405193929190846401000000008211156200016057600080fd5b9083019060208201858111156200017657600080fd5b82516401000000008111828201881017156200019157600080fd5b82525081516020918201929091019080838360005b83811015620001c0578181015183820152602001620001a6565b50505050905090810190601f168015620001ee5780820380516001836020036101000a031916815260200191505b506040525050815162000209926003925060200190620002fd565b50600480546001600160801b03868116600160801b028189166001600160801b031990931692909217161790556005839055600782905560098190556008546000908152600160209081526040822091909155620002779042906201518090620018a96200029b821b17901c565b60085460009081526001602081905260409091200155506200039995505050505050565b600082820183811015620002f6576040805162461bcd60e51b815260206004820152601b60248201527f536166654d6174683a206164646974696f6e206f766572666c6f770000000000604482015290519081900360640190fd5b9392505050565b828054600181600116156101000203166002900490600052602060002090601f016020900481019282601f106200034057805160ff191683800117855562000370565b8280016001018555821562000370579182015b828111156200037057825182559160200191906001019062000353565b506200037e92915062000382565b5090565b5b808211156200037e576000815560010162000383565b612d7d80620003a96000396000f3fe60806040526004361061016a5760003560e01c806363e01aff116100cb5780639c3ee2441161007f578063b465193111610059578063b4651931146104d7578063cd3293de14610501578063cdb88ad1146105165761016a565b80639c3ee244146104655780639cecaa4c14610498578063a87d36ad146104c25761016a565b80636e553f65116100b05780636e553f65146103fe57806370a082311461042a5780639000ddaa1461045d5761016a565b806363e01aff146103ac578063681ba715146103cb5761016a565b80633ccfd60b1161012257806340f644fc1161010757806340f644fc1461036657806342966c6814610385578063476343ee146103a25761016a565b80633ccfd60b146102bf5780633e72058d146102db5761016a565b80630e70a4e9116101535780630e70a4e91461023e5780631a6da39214610271578063274fc72a146102aa5761016a565b806302bfd4a31461016f57806306fdde03146101b4575b600080fd5b34801561017b57600080fd5b506101a26004803603602081101561019257600080fd5b50356001600160a01b0316610535565b60408051918252519081900360200190f35b3480156101c057600080fd5b506101c96105e4565b6040805160208082528351818301528351919283929083019185019080838360005b838110156102035781810151838201526020016101eb565b50505050905090810190601f1680156102305780820380516001836020036101000a031916815260200191505b509250505060405180910390f35b34801561024a57600080fd5b506101a26004803603602081101561026157600080fd5b50356001600160a01b031661067a565b34801561027d57600080fd5b506101a26004803603604081101561029457600080fd5b506001600160a01b0381351690602001356106f8565b3480156102b657600080fd5b506101a2610937565b6102c76109b6565b604080519115158252519081900360200190f35b3480156102e757600080fd5b50610316600480360360408110156102fe57600080fd5b506001600160a01b0381351690602001351515610a20565b60408051602080825283518183015283519192839290830191858101910280838360005b8381101561035257818101518382015260200161033a565b505050509050019250505060405180910390f35b6102c76004803603602081101561037c57600080fd5b50351515610bea565b6102c76004803603602081101561039b57600080fd5b5035610c69565b6103aa610d2b565b005b6102c7600480360360208110156103c257600080fd5b50351515610fc0565b3480156103d757600080fd5b506101a2600480360360208110156103ee57600080fd5b50356001600160a01b0316611041565b6102c76004803603604081101561041457600080fd5b50803590602001356001600160a01b031661122e565b34801561043657600080fd5b506101a26004803603602081101561044d57600080fd5b50356001600160a01b03166112f0565b6103aa611379565b34801561047157600080fd5b506101a26004803603602081101561048857600080fd5b50356001600160a01b0316611583565b3480156104a457600080fd5b506101a2600480360360208110156104bb57600080fd5b5035611636565b3480156104ce57600080fd5b506102c7611685565b3480156104e357600080fd5b506101a2600480360360208110156104fa57600080fd5b50356116b5565b34801561050d57600080fd5b506101a26117b4565b6102c76004803603602081101561052c57600080fd5b50351515611830565b600080805b6000548110156105dd576000818154811061055157fe5b60009182526020909120600c90910201546001600160a01b03858116911614801561059c57506000818154811061058457fe5b600091825260209091206009600c90920201015460ff165b156105d5576105d2600082815481106105b157fe5b90600052602060002090600c020160020154836118a990919063ffffffff16565b91505b60010161053a565b5092915050565b60038054604080516020601f60026000196101006001881615020190951694909404938401819004810282018101909252828152606093909290918301828280156106705780601f1061064557610100808354040283529160200191610670565b820191906000526020600020905b81548152906001019060200180831161065357829003601f168201915b5050505050905090565b600080805b6000548110156105dd57836001600160a01b0316600082815481106106a057fe5b60009182526020909120600c90910201546001600160a01b03161480156106e4575060008082815481106106d057fe5b90600052602060002090600c020160010154115b156106f0576001909101905b60010161067f565b600080610703612c33565b6000848154811061071057fe5b60009182526020918290206040805161018081018252600c90930290910180546001600160a01b039081168085526001830154958501959095526002820154928401929092526003810154606084015260048101546080840152600581015460a08401526006810154821660c0840152600781015460e08401526008810154610100840152600981015460ff161515610120840152600a810154610140840152600b015461016083015290925086161480156107d0575060008160200151115b1561092d5760005b60085460010181101561092b5760808201516000828152600160208190526040909120015410801590610818575060008181526001602052604090205415155b156109235760008181526001602081905260408220015461083890611636565b6000838152600160205260409020546060850151919250101561085b5750610923565b60008281526001602052604090205460e08401518314156108d257600084610160015111801561089057508361016001518110155b156108ad576101608401516108a690829061190a565b90506108d2565b60008461016001511180156108c6575083610160015181105b156108d2575050610923565b602084015160006108fa60646108f4866108ee8661271061194c565b906119a5565b9061194c565b9050600061090f620f42406108ee868561194c565b905061091b88826118a9565b975050505050505b6001016107d8565b505b5090505b92915050565b600080805b6000548110156109b0576000818154811061095357fe5b600091825260209091206009600c90920201015460ff1615610974576109a8565b6109a56000828154811061098457fe5b90600052602060002090600c020160010154836118a990919063ffffffff16565b91505b60010161093c565b50905090565b600a5460009060ff1615610a11576040805162461bcd60e51b815260206004820152601b60248201527f5769746864726177206172652070617573656420666f72206e6f770000000000604482015290519081900360640190fd5b610a1a336119e7565b50600190565b60606000805b600054811015610ad157846001600160a01b031660008281548110610a4757fe5b60009182526020909120600c90910201546001600160a01b0316148015610a8b57506000808281548110610a7757fe5b90600052602060002090600c020160010154115b8015610abd575083151560008281548110610aa257fe5b600091825260209091206009600c90920201015460ff161515145b15610ac9576001909101905b600101610a26565b5060608167ffffffffffffffff81118015610aeb57600080fd5b50604051908082528060200260200182016040528015610b15578160200160208202803683370190505b5090506000805b600054811015610bdf57866001600160a01b031660008281548110610b3d57fe5b60009182526020909120600c90910201546001600160a01b0316148015610b8157506000808281548110610b6d57fe5b90600052602060002090600c020160010154115b8015610bb3575085151560008281548110610b9857fe5b600091825260209091206009600c90920201015460ff161515145b15610bd75780838381518110610bc557fe5b60209081029190910101526001909101905b600101610b1c565b509095945050505050565b6002546000906001600160a01b03163314610c4c576040805162461bcd60e51b815260206004820152601a60248201527f4f6e6c7920746865206f776e65722063616e20646f2074686973000000000000604482015290519081900360640190fd5b50600a80548215156101000261ff00199091161790556001919050565b600a5460009060ff1615610cc4576040805162461bcd60e51b815260206004820152601760248201527f4275726e206172652070617573656420666f72206e6f77000000000000000000604482015290519081900360640190fd5b60008211610d19576040805162461bcd60e51b815260206004820152600e60248201527f496e76616c696420616d6f756e74000000000000000000000000000000000000604482015290519081900360640190fd5b610d233383611e4b565b506001919050565b6002546001600160a01b03163314610d8a576040805162461bcd60e51b815260206004820152601a60248201527f4f6e6c7920746865206f776e65722063616e20646f2074686973000000000000604482015290519081900360640190fd5b600a546006546040805163a9059cbb60e01b815233600482015260248101929092525163010000009092046001600160a01b03169163a9059cbb916044808201926020929091908290030181600087803b158015610de757600080fd5b505af1158015610dfb573d6000803e3d6000fd5b505050506040513d6020811015610e1157600080fd5b50511515600114610e535760405162461bcd60e51b8152600401808060200182810382526022815260200180612ca96022913960400191505060405180910390fd5b6000600655610e60611685565b15610fbe57600a54604080516370a0823160e01b8152306004820152905163010000009092046001600160a01b03169163a9059cbb91339184916370a08231916024808301926020929190829003018186803b158015610ebf57600080fd5b505afa158015610ed3573d6000803e3d6000fd5b505050506040513d6020811015610ee957600080fd5b5051604080517fffffffff0000000000000000000000000000000000000000000000000000000060e086901b1681526001600160a01b03909316600484015260248301919091525160448083019260209291908290030181600087803b158015610f5257600080fd5b505af1158015610f66573d6000803e3d6000fd5b505050506040513d6020811015610f7c57600080fd5b50511515600114610fbe5760405162461bcd60e51b8152600401808060200182810382526022815260200180612ca96022913960400191505060405180910390fd5b565b6002546000906001600160a01b03163314611022576040805162461bcd60e51b815260206004820152601a60248201527f4f6e6c7920746865206f776e65722063616e20646f2074686973000000000000604482015290519081900360640190fd5b50600a8054821515620100000262ff0000199091161790556001919050565b600080805b6000548110156105dd576000818154811061105d57fe5b60009182526020909120600c90910201546001600160a01b0385811691161480156110a55750600080828154811061109157fe5b90600052602060002090600c020160010154115b80156110d25750600081815481106110b957fe5b600091825260209091206009600c90920201015460ff16155b15611226576110df612c33565b600082815481106110ec57fe5b600091825260208083206040805161018081018252600c90940290910180546001600160a01b03908116855260018201549385019390935260028101549184019190915260038101546060840152600481015460808401819052600582015460a0850152600682015490921660c0840152600781015460e08401526008810154610100840152600981015460ff161515610120840152600a810154610140840152600b01546101608301529092506111b5906018906108ee90603c90829082908290429061190a565b9050600081116111c6575050611226565b60006111f6826108f46127106108ee6111ed6064896020015161194c90919063ffffffff16565b6005549061194c565b6101008401519091506112149061120e8360646119a5565b9061190a565b905061122085826118a9565b94505050505b600101611046565b6000808311611284576040805162461bcd60e51b815260206004820152600e60248201527f496e76616c696420616d6f756e74000000000000000000000000000000000000604482015290519081900360640190fd5b600a5460ff16156112dc576040805162461bcd60e51b815260206004820152601a60248201527f4465706f736974206172652070617573656420666f72206e6f77000000000000604482015290519081900360640190fd5b6112e73384846121b2565b50600192915050565b600080805b6000548110156105dd576000818154811061130c57fe5b600091825260209091206009600c90920201015460ff161561132d57611371565b6000818154811061133a57fe5b60009182526020909120600c90910201546001600160a01b03858116911614156113715761136e6000828154811061098457fe5b91505b6001016112f5565b600a54610100900460ff16156113d6576040805162461bcd60e51b815260206004820152601a60248201527f436c61696d206172652064697361626c656420666f72206e6f77000000000000604482015290519081900360640190fd5b6000805b60005481101561153b57600081815481106113f157fe5b60009182526020909120600c90910201546001600160a01b0316331480156114365750600080828154811061142257fe5b90600052602060002090600c020160010154115b801561146357506000818154811061144a57fe5b600091825260209091206009600c90920201015460ff16155b156115335760006114d1336000848154811061147b57fe5b90600052602060002090600c0201600101546000858154811061149a57fe5b90600052602060002090600c02016004015442600087815481106114ba57fe5b90600052602060002090600c020160080154612800565b905061150481600084815481106114e457fe5b90600052602060002090600c0201600801546118a990919063ffffffff16565b6000838154811061151157fe5b600091825260209091206008600c90920201015561152f83826118a9565b9250505b6001016113da565b506000811161154a5750610fbe565b60408051828152905133917f47cee97cb7acd717b3c0aa1435d004cd5b3c8c57d70dbceb4e4458bbd60e39d4919081900360200190a250565b600080805b6000548110156105dd576000818154811061159f57fe5b600091825260209091206009600c90920201015460ff16156115c05761162e565b600081815481106115cd57fe5b60009182526020909120600c90910201546001600160a01b0385811691161480156116165750426000828154811061160157fe5b90600052602060002090600c02016005015411155b1561162e5761162b6000828154811061098457fe5b91505b600101611588565b600080805b6000548110156105dd57836000828154811061165357fe5b90600052602060002090600c0201600401541161167d5761167a6000828154811061098457fe5b91505b60010161163b565b600080805b6000548110156116ae576116a46000828154811061098457fe5b915060010161168a565b5015905090565b60006116bf612c33565b600083815481106116cc57fe5b600091825260208083206040805161018081018252600c90940290910180546001600160a01b039081168552600180830154868601526002830154868501526003830154606087015260048301546080870152600583015460a0870152600683015490911660c0860152600782015460e0860152600880830154610100870152600983015460ff161515610120870152600a830154610140870152600b9092015461016086015290548552918290528320015490925061178b90611636565b602083015190915060006117aa60646108f4856108ee8661271061194c565b9695505050505050565b600b54604080516370a0823160e01b815230600482015290516000926001600160a01b0316916370a08231916024808301926020929190829003018186803b1580156117ff57600080fd5b505afa158015611813573d6000803e3d6000fd5b505050506040513d602081101561182957600080fd5b5051905090565b6002546000906001600160a01b03163314611892576040805162461bcd60e51b815260206004820152601a60248201527f4f6e6c7920746865206f776e65722063616e20646f2074686973000000000000604482015290519081900360640190fd5b50600a805460ff1916911515919091179055600190565b600082820183811015611903576040805162461bcd60e51b815260206004820152601b60248201527f536166654d6174683a206164646974696f6e206f766572666c6f770000000000604482015290519081900360640190fd5b9392505050565b600061190383836040518060400160405280601e81526020017f536166654d6174683a207375627472616374696f6e206f766572666c6f7700008152506129d8565b60008261195b57506000610931565b8282028284828161196857fe5b04146119035760405162461bcd60e51b8152600401808060200182810382526021815260200180612cf86021913960400191505060405180910390fd5b600061190383836040518060400160405280601a81526020017f536166654d6174683a206469766973696f6e206279207a65726f000000000000815250612a6f565b600a5460009062010000900460ff1615611aa65760005b600054811015611aa05760008181548110611a1557fe5b60009182526020909120600c90910201546001600160a01b038481169116148015611a5d57506000808281548110611a4957fe5b90600052602060002090600c020160010154115b15611a9857611a726000828154811061098457fe5b91506000808281548110611a8257fe5b90600052602060002090600c0201600101819055505b6001016119fe565b50611d2f565b60005b600054811015611c6f5760008181548110611ac057fe5b60009182526020909120600c90910201546001600160a01b038481169116148015611b0957504260008281548110611af457fe5b90600052602060002090600c02016005015411155b8015611b3257506000808281548110611b1e57fe5b90600052602060002090600c020160010154115b15611c67576000808281548110611b4557fe5b600091825260209091206009600c90920201015460ff16611b7457611b71846000848154811061147b57fe5b90505b6000611bb860008481548110611b8657fe5b90600052602060002090600c020160008581548110611ba157fe5b90600052602060002090600c020160010154612ad4565b905060008381548110611bc757fe5b600091825260209091206009600c90920201015460ff16611c2457611c1d81611c1760008681548110611bf657fe5b90600052602060002090600c020160010154876118a990919063ffffffff16565b906118a9565b9350611c31565b611c2e84826118a9565b93505b611c4282600085815481106114e457fe5b60008481548110611c4f57fe5b90600052602060002090600c02016008018190555050505b600101611aa9565b5060005b600054811015611d2d5760008181548110611c8a57fe5b60009182526020909120600c90910201546001600160a01b038481169116148015611cd357504260008281548110611cbe57fe5b90600052602060002090600c02016005015411155b8015611cfc57506000808281548110611ce857fe5b90600052602060002090600c020160010154115b15611d25576000808281548110611d0f57fe5b90600052602060002090600c0201600101819055505b600101611c73565b505b60008111611d3d5750611e48565b600a546040805163a9059cbb60e01b81526001600160a01b03858116600483015260248201859052915163010000009093049091169163a9059cbb916044808201926020929091908290030181600087803b158015611d9b57600080fd5b505af1158015611daf573d6000803e3d6000fd5b505050506040513d6020811015611dc557600080fd5b50511515600114611e075760405162461bcd60e51b8152600401808060200182810382526022815260200180612ca96022913960400191505060405180910390fd5b6040805182815290516001600160a01b038416917f884edad9ce6fa2440d8a54cc123490eb96d2768479d49ff9c7366125a9424364919081900360200190a2505b50565b600b54604080516370a0823160e01b81526001600160a01b0385811660048301529151849392909216916370a0823191602480820192602092909190829003018186803b158015611e9b57600080fd5b505afa158015611eaf573d6000803e3d6000fd5b505050506040513d6020811015611ec557600080fd5b50511015611f1a576040805162461bcd60e51b815260206004820152601f60248201527f5472616e7366657220616d6f756e7420657863656564732062616c616e636500604482015290519081900360640190fd5b600b54604080517f9dc29fac0000000000000000000000000000000000000000000000000000000081526001600160a01b0385811660048301526024820185905291519190921691639dc29fac91604480830192600092919082900301818387803b158015611f8857600080fd5b505af1158015611f9c573d6000803e3d6000fd5b505050506000604051806101800160405280846001600160a01b03168152602001611fde670de0b6b3a76400006108ee6009548761194c90919063ffffffff16565b8152602001838152602001600081526020014281526020016120106007546201518002426118a990919063ffffffff16565b815260200160006001600160a01b0316815260200160085481526020016000815260200160011515815260200161205e670de0b6b3a76400006108ee6009548761194c90919063ffffffff16565b8152600880546000908152600160208181526040808420549582019590955286548083018855968352918290208551600c9097020180547fffffffffffffffffffffffff00000000000000000000000000000000000000009081166001600160a01b039889161782559286015191810191909155928401516002840155606084015160038401556080840151600484015560a0840151600584015560c084015160068401805490921690861617905560e08301516007830155610100830151908201556101208201516009808301805460ff191692151592909217909155610140830151600a83015561016090920151600b9091015554908316907f49995e5dd6158cf69ad3e9777c46755a1a826a446c6416992167462dad033b2a90839061219690670de0b6b3a7640000906108ee90849061194c565b6040805192835260208301919091528051918290030190a25050565b81600a60039054906101000a90046001600160a01b03166001600160a01b03166370a08231856040518263ffffffff1660e01b815260040180826001600160a01b0316815260200191505060206040518083038186803b15801561221557600080fd5b505afa158015612229573d6000803e3d6000fd5b505050506040513d602081101561223f57600080fd5b50511015612294576040805162461bcd60e51b815260206004820152601f60248201527f5472616e7366657220616d6f756e7420657863656564732062616c616e636500604482015290519081900360640190fd5b600a54604080517f23b872dd00000000000000000000000000000000000000000000000000000000815233600482015230602482015260448101859052905163010000009092046001600160a01b0316916323b872dd916064808201926020929091908290030181600087803b15801561230d57600080fd5b505af1158015612321573d6000803e3d6000fd5b505050506040513d602081101561233757600080fd5b505115156001146123795760405162461bcd60e51b8152600401808060200182810382526022815260200180612ca96022913960400191505060405180910390fd5b6004546127106fffffffffffffffffffffffffffffffff9091168302046001600160a01b038216158015906123b757506001600160a01b0382163314155b156124ee57612710611388820204816123d0818361190a565b600a546040805163a9059cbb60e01b81526001600160a01b0388811660048301526024820187905291519396506301000000909204169163a9059cbb916044808201926020929091908290030181600087803b15801561242f57600080fd5b505af1158015612443573d6000803e3d6000fd5b505050506040513d602081101561245957600080fd5b5051151560011461249b5760405162461bcd60e51b815260040180806020018281038252602f815260200180612d19602f913960400191505060405180910390fd5b604080518681526020810184905280820183905290516001600160a01b0380871692908916917f870e4e1dcfab6c09707448d3659b3d8097c084bf06e7467d6029940cd7122ee09181900360600190a350505b6004546127107001000000000000000000000000000000009091046fffffffffffffffffffffffffffffffff16840204600061252e8261120e878661190a565b60065490915061253e90846118a9565b600655600854600090815260016020819052604090912001544211156125e357600880546001908101918290556000918252602052604081205561258542620151806118a9565b600160006008548152602001908152602001600020600101819055507f55b564c9869786db1e542ae1898ec00c7cb604bbca24ca47f5f70d34abe269b560085442604051808381526020018281526020019250505060405180910390a15b6008546000908152600160205260409020546125ff90836118a9565b600160006008548152602001908152602001600020600001819055506000604051806101800160405280886001600160a01b031681526020018381526020016000815260200184815260200142815260200161266b6007546201518002426118a990919063ffffffff16565b81526001600160a01b0380881660208084019190915260088054604080860182905260006060808801829052608080890183905260a0808a018d905294835260018088528484205460c09a8b01528b548082018d559b8452928790208a51600c909c020180549b89167fffffffffffffffffffffffff00000000000000000000000000000000000000009c8d16178155968a0151928701929092559188015160028601559087015160038501558601516004840155850151600583015592840151600682018054918416919096161790945560e083015160078501556101008301519184019190915561012082015160098401805491151560ff19909216919091179055610140820151600a84015561016090910151600b9092019190915586167f7162984403f6c73c8639375d45a9187dfd04602231bd8e587c415718b5f7e5f9866127b886866118a9565b426127d36007546201518002426118a990919063ffffffff16565b604080519485526020850193909352838301919091526060830152519081900360800190a2505050505050565b600a54600090610100900460ff161561281b575060006129cf565b600061283160186108ee603c8181818a8c61190a565b9050600081116128455760009150506129cf565b600061285f826108f46127106108ee6111ed8c606461194c565b90506128708461120e8360646119a5565b905060008111612885576000925050506129cf565b600b54604080517f40c10f190000000000000000000000000000000000000000000000000000000081523060048201526024810184905290516001600160a01b03909216916340c10f199160448082019260009290919082900301818387803b1580156128f157600080fd5b505af1158015612905573d6000803e3d6000fd5b5050600b546040805163a9059cbb60e01b81526001600160a01b038d8116600483015260248201879052915191909216935063a9059cbb925060448083019260209291908290030181600087803b15801561295f57600080fd5b505af1158015612973573d6000803e3d6000fd5b505050506040513d602081101561298957600080fd5b505115156001146129cb5760405162461bcd60e51b815260040180806020018281038252602d815260200180612ccb602d913960400191505060405180910390fd5b9150505b95945050505050565b60008184841115612a675760405162461bcd60e51b81526004018080602001828103825283818151815260200191508051906020019080838360005b83811015612a2c578181015183820152602001612a14565b50505050905090810190601f168015612a595780820380516001836020036101000a031916815260200191505b509250505060405180910390fd5b505050900390565b60008183612abe5760405162461bcd60e51b8152602060048201818152835160248401528351909283926044909101919085019080838360008315612a2c578181015183820152602001612a14565b506000838581612aca57fe5b0495945050505050565b600080805b60085460010181101561092d5760008181526001602052604090205415801590612b19575060048501546000828152600160208190526040909120015410155b15612c2b57600081815260016020819052604082200154612b3990611636565b60008381526001602052604090205460038801549192501015612b5c5750612c2b565b6000828152600160205260409020546007870154831415612bce57600087600b0154118015612b8f575086600b01548110155b15612bab57600b870154612ba490829061190a565b9050612bce565b600087600b0154118015612bc2575086600b015481105b15612bce575050612c2b565b856000612be660646108f4866108ee8661271061194c565b9050620f424083820204612bfa87826118a9565b600087815260016020526040902054909750612c16908261190a565b60008781526001602052604090205550505050505b600101612ad9565b60405180610180016040528060006001600160a01b03168152602001600081526020016000815260200160008152602001600081526020016000815260200160006001600160a01b0316815260200160008152602001600081526020016000151581526020016000815260200160008152509056fe4572726f72207472616e7366657246726f6d206f6e2074686520636f6e74726163744572726f72207472616e7366657246726f6d20666f7220726577617264206f6e2074686520636f6e7472616374536166654d6174683a206d756c7469706c69636174696f6e206f766572666c6f774572726f72207472616e7366657246726f6d206f6e2074686520636f6e747261637420666f7220726566657272616ca264697066735822122093ba5a02e9c95f87924e4ce1a1a8eb1e55f23608f37c79454e7c18c10ec2a73864736f6c63430007000033",
  "immutableReferences": {},
  "source": "// SPDX-License-Identifier: UNLICENSED\r\n\r\npragma solidity ^0.7.0;\r\n\r\nimport \"@openzeppelin/contracts/math/SafeMath.sol\";\r\nimport \"./interfaces/IHornLockVault.sol\";\r\nimport \"./interfaces/IExtendedERC20.sol\";\r\n\r\ncontract HornLockVault is IHornLockVault {\r\n    using SafeMath for uint256;\r\n\r\n    struct LockedAsset {\r\n        address account;\r\n        uint256 amount;\r\n        uint256 burnedHorn;\r\n        uint256 fees;\r\n        uint256 fromDate;\r\n        uint256 toDate;\r\n        address referralAddr;\r\n        uint256 poolIndex;\r\n        uint256 alreadyClaimedHorn;\r\n        bool isBurnAsset;\r\n        uint256 baseAmount;\r\n        uint256 enterPoolFees;\r\n    }\r\n\r\n    struct RewardFee {\r\n        uint256 amount;\r\n        uint256 depositDate;\r\n    }\r\n    \r\n    LockedAsset[] private _lockedAssets;\r\n    mapping(uint256 => RewardFee) private _poolFees;\r\n\r\n    address private _owner;\r\n    string private _vaultName;\r\n    uint128 private _fee;\r\n    uint128 private _depositRewardFee;\r\n    uint256 private _hornPerDay;\r\n    uint256 private _feesVault;\r\n    uint256 private _minLockDays;\r\n    uint256 private _currentFeeIndex = 0;\r\n    uint256 private _weightPerHorn;\r\n    bool private _isPaused = false;\r\n    bool private _hornRewardDisabled = false;\r\n    bool private _emergencyWithdraw = false;\r\n    IExtendedERC20 private _token;\r\n    IExtendedERC20 private _hornToken;\r\n\r\n    constructor(address lockedTokenAddr, address hornTokenAddr, uint128 fee,\r\n        uint128 depositRewardFee, uint256 hornPerDay, uint256 minLockDays, uint256 weightPerHorn) {\r\n        _owner = msg.sender;\r\n        _token = IExtendedERC20(lockedTokenAddr);\r\n        _hornToken = IExtendedERC20(hornTokenAddr);\r\n        _vaultName = _token.symbol();\r\n        _fee = fee;\r\n        _depositRewardFee = depositRewardFee;\r\n        _hornPerDay = hornPerDay;\r\n        _minLockDays = minLockDays;\r\n        _weightPerHorn = weightPerHorn;\r\n\r\n        _poolFees[_currentFeeIndex].amount = 0;\r\n        _poolFees[_currentFeeIndex].depositDate = block.timestamp.add(1 days);\r\n    }\r\n\r\n    function balanceOf(address account) public view override returns (uint256) {\r\n        uint256 totalBalance = 0;\r\n        for (uint256 i = 0; i < _lockedAssets.length; i++) {\r\n            if(_lockedAssets[i].isBurnAsset) continue;\r\n            if(account == _lockedAssets[i].account) {\r\n                totalBalance = totalBalance.add(_lockedAssets[i].amount);\r\n            }\r\n        }\r\n        return totalBalance;\r\n    }\r\n\r\n    function claimableBalanceOf(address account) public view override returns (uint256) {\r\n        uint256 totalBalance = 0;\r\n        for (uint256 i = 0; i < _lockedAssets.length; i++) {\r\n            if(_lockedAssets[i].isBurnAsset) continue;\r\n            if(account == _lockedAssets[i].account && _lockedAssets[i].toDate <= block.timestamp) {\r\n                totalBalance = totalBalance.add(_lockedAssets[i].amount);\r\n            }\r\n        }\r\n        return totalBalance;\r\n    }\r\n\r\n    function claimableHornOf(address account) public view override returns (uint256) {\r\n        uint256 totalBalance = 0;\r\n        for (uint256 i = 0; i < _lockedAssets.length; i++) {\r\n            if(account == _lockedAssets[i].account && _lockedAssets[i].amount > 0 && !_lockedAssets[i].isBurnAsset) {\r\n                LockedAsset memory asset =  _lockedAssets[i];\r\n                uint256 period = block.timestamp.sub(asset.fromDate).div(60).div(60).div(24);\r\n                if(period <= 0) continue;\r\n                uint256 reward = _hornPerDay.mul(asset.amount.mul(100)).div(10000).mul(period);\r\n                reward = reward.div(100).sub(asset.alreadyClaimedHorn);\r\n                totalBalance = totalBalance.add(reward);\r\n            }\r\n        }\r\n        return totalBalance;\r\n    }\r\n\r\n    function reserve() public view override returns (uint256) {\r\n        return _hornToken.balanceOf(address(this));\r\n    }\r\n\r\n    function lockedAssets() public view override returns (uint256) {\r\n        uint256 totalBalance = 0;\r\n        for (uint256 i = 0; i < _lockedAssets.length; i++) {\r\n            if(_lockedAssets[i].isBurnAsset) continue;\r\n            totalBalance = totalBalance.add(_lockedAssets[i].amount);\r\n        }\r\n        return totalBalance;\r\n    }\r\n    \r\n    function lockedAssetsBefore(uint256 before) public view returns (uint256) {\r\n        uint256 totalBalance = 0;\r\n        for (uint256 i = 0; i < _lockedAssets.length; i++) {\r\n            if(_lockedAssets[i].fromDate <= before) {\r\n                totalBalance = totalBalance.add(_lockedAssets[i].amount);\r\n            }\r\n        }\r\n        return totalBalance;\r\n    }\r\n\r\n    function getBurnedHornAmount(address account) public view returns (uint256) {\r\n        uint256 totalBalance = 0;\r\n        for (uint256 i = 0; i < _lockedAssets.length; i++) {\r\n            if(account == _lockedAssets[i].account && _lockedAssets[i].isBurnAsset) {\r\n                totalBalance = totalBalance.add(_lockedAssets[i].burnedHorn);\r\n            }\r\n        }\r\n        return totalBalance;\r\n    }\r\n\r\n    function name() public view returns (string memory) {\r\n        return _vaultName;\r\n    }\r\n\r\n    function setPauseState(bool newState) external payable returns(bool) {\r\n        require(msg.sender == _owner, \"Only the owner can do this\");\r\n        _isPaused = newState;\r\n        return true;\r\n    }\r\n\r\n    function setHornRewardDisabledState(bool newState) external payable returns(bool) {\r\n        require(msg.sender == _owner, \"Only the owner can do this\");\r\n        _hornRewardDisabled = newState;\r\n        return true;\r\n    }\r\n    \r\n    function setEmergencyWithdrawState(bool newState) external payable returns(bool) {\r\n        require(msg.sender == _owner, \"Only the owner can do this\");\r\n        _emergencyWithdraw = newState;\r\n        return true;\r\n    }\r\n\r\n    function deposit(uint256 amount, address referralAddr) external payable override returns(bool) {\r\n        require(amount > 0, \"Invalid amount\");\r\n        require(!_isPaused, \"Deposit are paused for now\");\r\n        _deposit(msg.sender, amount, referralAddr);\r\n        return true;\r\n    }\r\n\r\n    function balanceIndexes(address account, bool filterBurned) public view returns (uint256[] memory) {\r\n        uint256 count = 0;\r\n        for (uint256 i = 0; i < _lockedAssets.length; i++) {\r\n            if(_lockedAssets[i].account == account && _lockedAssets[i].amount > 0 && _lockedAssets[i].isBurnAsset == filterBurned) {\r\n                count++;\r\n            }\r\n        }\r\n        uint256[] memory indexes = new uint256[](count);\r\n        uint256 index = 0;\r\n        for (uint256 i = 0; i < _lockedAssets.length; i++) {\r\n            if(_lockedAssets[i].account == account && _lockedAssets[i].amount > 0 && _lockedAssets[i].isBurnAsset == filterBurned) {\r\n                indexes[index] = i;\r\n                index++;\r\n            }\r\n        }\r\n        return indexes;\r\n    }\r\n\r\n    function getLockedAssetsCountByAccount(address account) public view returns (uint256) {\r\n        uint256 count = 0;\r\n         for (uint256 i = 0; i < _lockedAssets.length; i++) {\r\n            if(_lockedAssets[i].account == account && _lockedAssets[i].amount > 0) {\r\n                count++;\r\n            }\r\n        }\r\n        return count;\r\n    }\r\n\r\n    function claimableFees(address account, uint256 index) public view returns(uint256) {\r\n        uint256 totalFees = 0;\r\n        LockedAsset memory asset = _lockedAssets[index];\r\n        if(asset.account == account && asset.amount > 0) {\r\n            for (uint256 y = 0; y < _currentFeeIndex + 1; y++) {\r\n                if(_poolFees[y].depositDate >= asset.fromDate && _poolFees[y].amount > 0) {\r\n                    uint256 contractBalance = lockedAssetsBefore(_poolFees[y].depositDate);\r\n                    if(asset.fees > _poolFees[y].amount) continue;\r\n                    uint256 fees = _poolFees[y].amount;\r\n                    if(y == asset.poolIndex) {\r\n                        if(asset.enterPoolFees > 0 && fees >= asset.enterPoolFees) {\r\n                            fees = fees.sub(asset.enterPoolFees);\r\n                        }\r\n                        else if(asset.enterPoolFees > 0 && fees < asset.enterPoolFees) {\r\n                            continue;\r\n                        }\r\n                    }\r\n                    uint256 senderBalance = asset.amount;\r\n                    uint256 weightPercent = senderBalance.mul(10000).div(contractBalance).mul(100);\r\n                    uint256 reward = fees.mul(weightPercent).div(1000000);\r\n                    totalFees = totalFees.add(reward);\r\n                }\r\n            }\r\n        }\r\n        return totalFees;\r\n    }\r\n\r\n    function weightInPool(uint256 index) public view returns (uint256) {\r\n        LockedAsset memory asset = _lockedAssets[index];\r\n        uint256 contractBalance = lockedAssetsBefore(_poolFees[_currentFeeIndex].depositDate);\r\n        uint256 senderBalance = asset.amount;\r\n        uint256 weightPercent = senderBalance.mul(10000).div(contractBalance).mul(100);\r\n        return weightPercent;\r\n    }\r\n\r\n    function _deposit (address sender, uint256 amount, address referralAddr) internal {\r\n        require(_token.balanceOf(sender) >= amount, \"Transfer amount exceeds balance\");\r\n        require(\r\n            _token.transferFrom(msg.sender, address(this), amount) == true,\r\n            \"Error transferFrom on the contract\"\r\n        );\r\n        uint256 fee = amount * _fee / 10000;\r\n        if(referralAddr != address(0) && referralAddr != msg.sender) {\r\n            uint256 referralFee = fee * 5000 / 10000;\r\n            uint256 baseFee = fee;\r\n            fee = fee.sub(referralFee);\r\n            require(\r\n                _token.transfer(referralAddr, referralFee) == true,\r\n                \"Error transferFrom on the contract for referral\"\r\n            );\r\n            emit ReferralReward(sender, referralAddr, amount, referralFee, baseFee);\r\n        }\r\n        uint256 depositFee = amount * _depositRewardFee / 10000;\r\n        uint256 amountSubFee = amount.sub(fee).sub(depositFee);\r\n\r\n        // Add fees to withdrawable amount by the owner\r\n        _feesVault = _feesVault.add(fee);\r\n        if(_poolFees[_currentFeeIndex].depositDate < block.timestamp) { // Create a new pool fee for today\r\n            _currentFeeIndex++;\r\n            _poolFees[_currentFeeIndex].amount = 0;\r\n            _poolFees[_currentFeeIndex].depositDate = block.timestamp.add(1 days);\r\n            emit NewPool(_currentFeeIndex, block.timestamp);\r\n        }\r\n\r\n        _poolFees[_currentFeeIndex].amount = _poolFees[_currentFeeIndex].amount.add(depositFee);\r\n\r\n        // Set the balance\r\n        _lockedAssets.push(LockedAsset({\r\n            account: sender,\r\n            fees: depositFee,\r\n            baseAmount: amountSubFee,\r\n            amount: amountSubFee,\r\n            burnedHorn: 0,\r\n            fromDate: block.timestamp,\r\n            toDate: block.timestamp.add(_minLockDays * 1 days),\r\n            referralAddr: referralAddr,\r\n            alreadyClaimedHorn: 0,\r\n            poolIndex: _currentFeeIndex,\r\n            isBurnAsset: false,\r\n            enterPoolFees: _poolFees[_currentFeeIndex].amount\r\n        }));\r\n        emit Deposit(sender, amount, fee.add(depositFee), block.timestamp, block.timestamp.add(_minLockDays * 1 days));\r\n    }\r\n\r\n    function withdraw() external payable override returns(bool) {\r\n        require(!_isPaused, \"Withdraw are paused for now\");\r\n        _withdraw(msg.sender);\r\n        return true;\r\n    }\r\n\r\n    function _withdraw (address sender) internal {\r\n        uint256 totalWithdraw = 0;\r\n\r\n        if(_emergencyWithdraw) {\r\n            for (uint256 i = 0; i < _lockedAssets.length; i++) {\r\n                if(sender == _lockedAssets[i].account && _lockedAssets[i].amount > 0) {\r\n                    totalWithdraw = totalWithdraw.add(_lockedAssets[i].amount);\r\n                    _lockedAssets[i].amount = 0;\r\n                }\r\n            }\r\n        }\r\n        else {\r\n            for (uint256 i = 0; i < _lockedAssets.length; i++) {\r\n                if(sender == _lockedAssets[i].account && _lockedAssets[i].toDate <= block.timestamp && _lockedAssets[i].amount > 0) {\r\n                    uint256 hornreward = 0;\r\n                    if(!_lockedAssets[i].isBurnAsset) {\r\n                        hornreward = _rewardWithdrawalHorn(sender, _lockedAssets[i].amount, _lockedAssets[i].fromDate, block.timestamp, _lockedAssets[i].alreadyClaimedHorn);\r\n                    }\r\n                    uint256 reward = _claimFeesForAsset(_lockedAssets[i], _lockedAssets[i].amount);\r\n                    \r\n                    if(!_lockedAssets[i].isBurnAsset) {\r\n                        totalWithdraw = totalWithdraw.add(_lockedAssets[i].amount).add(reward);\r\n                    } else {\r\n                        totalWithdraw = totalWithdraw.add(reward);\r\n                    }\r\n                    _lockedAssets[i].alreadyClaimedHorn = _lockedAssets[i].alreadyClaimedHorn.add(hornreward);\r\n                }\r\n            }\r\n            \r\n            // Reset amount\r\n            for (uint256 i = 0; i < _lockedAssets.length; i++) {\r\n                if(sender == _lockedAssets[i].account && _lockedAssets[i].toDate <= block.timestamp && _lockedAssets[i].amount > 0) {\r\n                    _lockedAssets[i].amount = 0;\r\n                }\r\n            }\r\n        }\r\n        if(totalWithdraw <= 0) return;\r\n        require(\r\n            _token.transfer(sender, totalWithdraw) == true,\r\n            \"Error transferFrom on the contract\"\r\n        );\r\n        emit Withdraw(sender, totalWithdraw);\r\n    }\r\n\r\n    function burn(uint256 amount) external payable override returns(bool) {\r\n        require(!_isPaused, \"Burn are paused for now\");\r\n        require(amount > 0, \"Invalid amount\");\r\n        _burn(msg.sender, amount);\r\n        return true;\r\n    }\r\n\r\n    function _burn (address sender, uint256 burnAmount) internal {\r\n        require(_hornToken.balanceOf(sender) >= burnAmount, \"Transfer amount exceeds balance\");\r\n        _hornToken.burn(sender, burnAmount);\r\n        _lockedAssets.push(LockedAsset({\r\n            account: sender,\r\n            fees: 0,\r\n            baseAmount: burnAmount.mul(_weightPerHorn).div(1 ether),\r\n            amount: burnAmount.mul(_weightPerHorn).div(1 ether),\r\n            burnedHorn: burnAmount,\r\n            fromDate: block.timestamp,\r\n            toDate: block.timestamp.add(_minLockDays * 1 days),\r\n            referralAddr: address(0),\r\n            alreadyClaimedHorn: 0,\r\n            poolIndex: _currentFeeIndex,\r\n            isBurnAsset: true,\r\n            enterPoolFees: _poolFees[_currentFeeIndex].amount\r\n        }));\r\n        emit Burn(sender, burnAmount, burnAmount.mul(_weightPerHorn).div(1 ether));\r\n    }\r\n\r\n    function claimHorn() public payable {\r\n        require(!_hornRewardDisabled, \"Claim are disabled for now\");\r\n        uint256 totalClaim = 0;\r\n        for (uint256 i = 0; i < _lockedAssets.length; i += 1) {\r\n            if(msg.sender == _lockedAssets[i].account && _lockedAssets[i].amount > 0 && !_lockedAssets[i].isBurnAsset) {\r\n                uint256 reward = _rewardWithdrawalHorn(msg.sender, _lockedAssets[i].amount, _lockedAssets[i].fromDate, block.timestamp, _lockedAssets[i].alreadyClaimedHorn);\r\n                _lockedAssets[i].alreadyClaimedHorn = _lockedAssets[i].alreadyClaimedHorn.add(reward);\r\n                totalClaim = totalClaim.add(reward);\r\n            }\r\n        }\r\n        if(totalClaim <= 0) return;\r\n        emit Claim(msg.sender, totalClaim);\r\n    }\r\n\r\n    function _rewardWithdrawalHorn(address receiver, uint256 amount, uint256 fromDate, uint256 toDate, uint alreadyClaimed) internal returns (uint256) {\r\n        if(_hornRewardDisabled) return 0;\r\n\r\n        uint256 period = toDate.sub(fromDate).div(60).div(60).div(24);\r\n        if(period <= 0) return 0;\r\n        uint256 reward = _hornPerDay.mul(amount.mul(100)).div(10000).mul(period);\r\n        reward = reward.div(100).sub(alreadyClaimed);\r\n        if(reward <= 0) return 0;\r\n        _hornToken.mint(address(this), reward);\r\n        require(\r\n            _hornToken.transfer(receiver, reward) == true,\r\n            \"Error transferFrom for reward on the contract\"\r\n        );\r\n        return reward;\r\n    }\r\n\r\n    function _claimFeesForAsset(LockedAsset storage asset, uint withdrawAmount) internal returns (uint256) {\r\n        uint256 totalReward = 0;\r\n        for (uint256 y = 0; y < _currentFeeIndex + 1; y++) {\r\n            if(_poolFees[y].amount > 0 && _poolFees[y].depositDate >= asset.fromDate) {\r\n                uint256 contractBalance = lockedAssetsBefore(_poolFees[y].depositDate);\r\n                if(asset.fees > _poolFees[y].amount) continue;\r\n                uint256 fees = _poolFees[y].amount;\r\n                if(y == asset.poolIndex) {\r\n                    if(asset.enterPoolFees > 0 && fees >= asset.enterPoolFees) {\r\n                        fees = fees.sub(asset.enterPoolFees);\r\n                    }\r\n                    else if(asset.enterPoolFees > 0 && fees < asset.enterPoolFees) {\r\n                        continue;\r\n                    }\r\n                }\r\n                uint256 senderBalance = withdrawAmount;\r\n                uint256 weightPercent = senderBalance.mul(10000).div(contractBalance).mul(100);\r\n                uint256 reward = fees * weightPercent / 1000000;\r\n                totalReward = totalReward.add(reward);\r\n                _poolFees[y].amount = _poolFees[y].amount.sub(reward);\r\n            }\r\n        }\r\n        return totalReward;\r\n    }\r\n\r\n    function withdrawFees() public payable {\r\n        require(msg.sender == _owner, \"Only the owner can do this\");\r\n        require(\r\n            _token.transfer(msg.sender, _feesVault) == true,\r\n            \"Error transferFrom on the contract\"\r\n        );\r\n        _feesVault = 0;\r\n        if(poolIsEmpty()) {\r\n             require(\r\n                _token.transfer(msg.sender, _token.balanceOf(address(this))) == true,\r\n                \"Error transferFrom on the contract\"\r\n            );\r\n        }\r\n    }\r\n\r\n    function poolIsEmpty() public view returns (bool) {\r\n        uint256 totalAmount = 0;\r\n        for (uint256 i = 0; i < _lockedAssets.length; i += 1) {\r\n            totalAmount = totalAmount.add(_lockedAssets[i].amount);\r\n        }\r\n        return totalAmount == 0;\r\n    }\r\n}",
  "sourcePath": "D:/Development/horn/horn-token/contracts/HornLockVault.sol",
  "compiler": {
    "name": "solc",
    "version": "0.7.0+commit.9e61f92b.Emscripten.clang"
  },
  "schemaVersion": "3.3.2",
  "updatedAt": "2020-12-23T14:05:48.787Z",
  "networkType": "ethereum",
  "devdoc": {
    "kind": "dev",
    "methods": {},
    "version": 1
  },
  "userdoc": {
    "kind": "user",
    "methods": {},
    "version": 1
  }
}