{
  "contractName": "HornLockVault",
  "abi": [
    {
      "inputs": [
        {
          "internalType": "address",
          "name": "owner",
          "type": "address"
        },
        {
          "internalType": "address",
          "name": "lockedTokenAddr",
          "type": "address"
        },
        {
          "internalType": "address",
          "name": "hornTokenAddr",
          "type": "address"
        },
        {
          "internalType": "uint128",
          "name": "fee",
          "type": "uint128"
        },
        {
          "internalType": "uint128",
          "name": "depositRewardFee",
          "type": "uint128"
        },
        {
          "internalType": "uint256",
          "name": "hornPerDay",
          "type": "uint256"
        },
        {
          "internalType": "uint256",
          "name": "minLockDays",
          "type": "uint256"
        },
        {
          "internalType": "uint256",
          "name": "weightPerHorn",
          "type": "uint256"
        }
      ],
      "stateMutability": "nonpayable",
      "type": "constructor"
    },
    {
      "anonymous": false,
      "inputs": [
        {
          "indexed": true,
          "internalType": "address",
          "name": "from",
          "type": "address"
        },
        {
          "indexed": false,
          "internalType": "uint256",
          "name": "value",
          "type": "uint256"
        },
        {
          "indexed": false,
          "internalType": "uint256",
          "name": "weightAdded",
          "type": "uint256"
        }
      ],
      "name": "Burn",
      "type": "event"
    },
    {
      "anonymous": false,
      "inputs": [
        {
          "indexed": true,
          "internalType": "address",
          "name": "from",
          "type": "address"
        },
        {
          "indexed": false,
          "internalType": "uint256",
          "name": "amount",
          "type": "uint256"
        }
      ],
      "name": "Claim",
      "type": "event"
    },
    {
      "anonymous": false,
      "inputs": [
        {
          "indexed": true,
          "internalType": "address",
          "name": "from",
          "type": "address"
        },
        {
          "indexed": false,
          "internalType": "uint256",
          "name": "value",
          "type": "uint256"
        },
        {
          "indexed": false,
          "internalType": "uint256",
          "name": "fee",
          "type": "uint256"
        },
        {
          "indexed": false,
          "internalType": "uint256",
          "name": "fromDate",
          "type": "uint256"
        },
        {
          "indexed": false,
          "internalType": "uint256",
          "name": "toDate",
          "type": "uint256"
        }
      ],
      "name": "Deposit",
      "type": "event"
    },
    {
      "anonymous": false,
      "inputs": [
        {
          "indexed": true,
          "internalType": "address",
          "name": "to",
          "type": "address"
        },
        {
          "indexed": false,
          "internalType": "uint256",
          "name": "reward",
          "type": "uint256"
        },
        {
          "indexed": false,
          "internalType": "uint256",
          "name": "totalFee",
          "type": "uint256"
        },
        {
          "indexed": false,
          "internalType": "uint256",
          "name": "senderBalance",
          "type": "uint256"
        },
        {
          "indexed": false,
          "internalType": "uint256",
          "name": "contractBalance",
          "type": "uint256"
        },
        {
          "indexed": false,
          "internalType": "uint256",
          "name": "weightPercent",
          "type": "uint256"
        }
      ],
      "name": "DepositReward",
      "type": "event"
    },
    {
      "anonymous": false,
      "inputs": [
        {
          "indexed": false,
          "internalType": "string",
          "name": "text",
          "type": "string"
        }
      ],
      "name": "Log",
      "type": "event"
    },
    {
      "anonymous": false,
      "inputs": [
        {
          "indexed": false,
          "internalType": "address",
          "name": "value",
          "type": "address"
        }
      ],
      "name": "LogAddress",
      "type": "event"
    },
    {
      "anonymous": false,
      "inputs": [
        {
          "indexed": false,
          "internalType": "uint256",
          "name": "value",
          "type": "uint256"
        }
      ],
      "name": "LogUINT",
      "type": "event"
    },
    {
      "anonymous": false,
      "inputs": [
        {
          "indexed": false,
          "internalType": "string",
          "name": "key",
          "type": "string"
        },
        {
          "indexed": false,
          "internalType": "uint256",
          "name": "value",
          "type": "uint256"
        }
      ],
      "name": "LogUINTText",
      "type": "event"
    },
    {
      "anonymous": false,
      "inputs": [
        {
          "indexed": false,
          "internalType": "uint256",
          "name": "index",
          "type": "uint256"
        },
        {
          "indexed": false,
          "internalType": "uint256",
          "name": "timestamp",
          "type": "uint256"
        }
      ],
      "name": "NewPool",
      "type": "event"
    },
    {
      "anonymous": false,
      "inputs": [
        {
          "indexed": true,
          "internalType": "address",
          "name": "from",
          "type": "address"
        },
        {
          "indexed": true,
          "internalType": "address",
          "name": "to",
          "type": "address"
        },
        {
          "indexed": false,
          "internalType": "uint256",
          "name": "amount",
          "type": "uint256"
        },
        {
          "indexed": false,
          "internalType": "uint256",
          "name": "reward",
          "type": "uint256"
        },
        {
          "indexed": false,
          "internalType": "uint256",
          "name": "baseFee",
          "type": "uint256"
        }
      ],
      "name": "ReferralReward",
      "type": "event"
    },
    {
      "anonymous": false,
      "inputs": [
        {
          "indexed": true,
          "internalType": "address",
          "name": "to",
          "type": "address"
        },
        {
          "indexed": false,
          "internalType": "uint256",
          "name": "value",
          "type": "uint256"
        }
      ],
      "name": "Withdraw",
      "type": "event"
    },
    {
      "inputs": [],
      "name": "_createdFrom",
      "outputs": [
        {
          "internalType": "address",
          "name": "",
          "type": "address"
        }
      ],
      "stateMutability": "view",
      "type": "function"
    },
    {
      "inputs": [],
      "name": "_depositRewardFee",
      "outputs": [
        {
          "internalType": "uint128",
          "name": "",
          "type": "uint128"
        }
      ],
      "stateMutability": "view",
      "type": "function"
    },
    {
      "inputs": [],
      "name": "_fee",
      "outputs": [
        {
          "internalType": "uint128",
          "name": "",
          "type": "uint128"
        }
      ],
      "stateMutability": "view",
      "type": "function"
    },
    {
      "inputs": [],
      "name": "_feesVault",
      "outputs": [
        {
          "internalType": "uint256",
          "name": "",
          "type": "uint256"
        }
      ],
      "stateMutability": "view",
      "type": "function"
    },
    {
      "inputs": [],
      "name": "_hornPerDay",
      "outputs": [
        {
          "internalType": "uint256",
          "name": "",
          "type": "uint256"
        }
      ],
      "stateMutability": "view",
      "type": "function"
    },
    {
      "inputs": [],
      "name": "_hornTokenAddr",
      "outputs": [
        {
          "internalType": "address",
          "name": "",
          "type": "address"
        }
      ],
      "stateMutability": "view",
      "type": "function"
    },
    {
      "inputs": [],
      "name": "_isActive",
      "outputs": [
        {
          "internalType": "bool",
          "name": "",
          "type": "bool"
        }
      ],
      "stateMutability": "view",
      "type": "function"
    },
    {
      "inputs": [],
      "name": "_minLockDays",
      "outputs": [
        {
          "internalType": "uint256",
          "name": "",
          "type": "uint256"
        }
      ],
      "stateMutability": "view",
      "type": "function"
    },
    {
      "inputs": [],
      "name": "_owner",
      "outputs": [
        {
          "internalType": "address",
          "name": "",
          "type": "address"
        }
      ],
      "stateMutability": "view",
      "type": "function"
    },
    {
      "inputs": [],
      "name": "_tokenAddr",
      "outputs": [
        {
          "internalType": "address",
          "name": "",
          "type": "address"
        }
      ],
      "stateMutability": "view",
      "type": "function"
    },
    {
      "inputs": [],
      "name": "_vaultName",
      "outputs": [
        {
          "internalType": "string",
          "name": "",
          "type": "string"
        }
      ],
      "stateMutability": "view",
      "type": "function"
    },
    {
      "inputs": [],
      "name": "_weightPerHorn",
      "outputs": [
        {
          "internalType": "uint256",
          "name": "",
          "type": "uint256"
        }
      ],
      "stateMutability": "view",
      "type": "function"
    },
    {
      "inputs": [
        {
          "internalType": "address",
          "name": "account",
          "type": "address"
        }
      ],
      "name": "balanceOf",
      "outputs": [
        {
          "internalType": "uint256",
          "name": "",
          "type": "uint256"
        }
      ],
      "stateMutability": "view",
      "type": "function"
    },
    {
      "inputs": [
        {
          "internalType": "address",
          "name": "account",
          "type": "address"
        }
      ],
      "name": "claimableBalanceOf",
      "outputs": [
        {
          "internalType": "uint256",
          "name": "",
          "type": "uint256"
        }
      ],
      "stateMutability": "view",
      "type": "function"
    },
    {
      "inputs": [
        {
          "internalType": "address",
          "name": "account",
          "type": "address"
        }
      ],
      "name": "claimableHornOf",
      "outputs": [
        {
          "internalType": "uint256",
          "name": "",
          "type": "uint256"
        }
      ],
      "stateMutability": "view",
      "type": "function"
    },
    {
      "inputs": [],
      "name": "reserve",
      "outputs": [
        {
          "internalType": "uint256",
          "name": "",
          "type": "uint256"
        }
      ],
      "stateMutability": "view",
      "type": "function"
    },
    {
      "inputs": [],
      "name": "lockedAssets",
      "outputs": [
        {
          "internalType": "uint256",
          "name": "",
          "type": "uint256"
        }
      ],
      "stateMutability": "view",
      "type": "function"
    },
    {
      "inputs": [
        {
          "internalType": "uint256",
          "name": "before",
          "type": "uint256"
        }
      ],
      "name": "lockedAssetsBefore",
      "outputs": [
        {
          "internalType": "uint256",
          "name": "",
          "type": "uint256"
        }
      ],
      "stateMutability": "view",
      "type": "function"
    },
    {
      "inputs": [
        {
          "internalType": "address",
          "name": "account",
          "type": "address"
        }
      ],
      "name": "getBurnedHornAmount",
      "outputs": [
        {
          "internalType": "uint256",
          "name": "",
          "type": "uint256"
        }
      ],
      "stateMutability": "view",
      "type": "function"
    },
    {
      "inputs": [],
      "name": "name",
      "outputs": [
        {
          "internalType": "string",
          "name": "",
          "type": "string"
        }
      ],
      "stateMutability": "view",
      "type": "function"
    },
    {
      "inputs": [
        {
          "internalType": "bool",
          "name": "newState",
          "type": "bool"
        }
      ],
      "name": "setPauseState",
      "outputs": [
        {
          "internalType": "bool",
          "name": "",
          "type": "bool"
        }
      ],
      "stateMutability": "payable",
      "type": "function"
    },
    {
      "inputs": [
        {
          "internalType": "bool",
          "name": "newState",
          "type": "bool"
        }
      ],
      "name": "setActiveState",
      "outputs": [
        {
          "internalType": "bool",
          "name": "",
          "type": "bool"
        }
      ],
      "stateMutability": "payable",
      "type": "function"
    },
    {
      "inputs": [
        {
          "internalType": "bool",
          "name": "newState",
          "type": "bool"
        }
      ],
      "name": "setHornRewardDisabledState",
      "outputs": [
        {
          "internalType": "bool",
          "name": "",
          "type": "bool"
        }
      ],
      "stateMutability": "payable",
      "type": "function"
    },
    {
      "inputs": [
        {
          "internalType": "bool",
          "name": "newState",
          "type": "bool"
        }
      ],
      "name": "setEmergencyWithdrawState",
      "outputs": [
        {
          "internalType": "bool",
          "name": "",
          "type": "bool"
        }
      ],
      "stateMutability": "payable",
      "type": "function"
    },
    {
      "inputs": [
        {
          "internalType": "uint256",
          "name": "amount",
          "type": "uint256"
        },
        {
          "internalType": "address",
          "name": "referralAddr",
          "type": "address"
        }
      ],
      "name": "deposit",
      "outputs": [
        {
          "internalType": "bool",
          "name": "",
          "type": "bool"
        }
      ],
      "stateMutability": "payable",
      "type": "function"
    },
    {
      "inputs": [
        {
          "internalType": "address",
          "name": "account",
          "type": "address"
        },
        {
          "internalType": "bool",
          "name": "filterBurned",
          "type": "bool"
        }
      ],
      "name": "balanceIndexes",
      "outputs": [
        {
          "internalType": "uint256[]",
          "name": "",
          "type": "uint256[]"
        }
      ],
      "stateMutability": "view",
      "type": "function"
    },
    {
      "inputs": [
        {
          "internalType": "address",
          "name": "account",
          "type": "address"
        }
      ],
      "name": "getLockedAssetsCountByAccount",
      "outputs": [
        {
          "internalType": "uint256",
          "name": "",
          "type": "uint256"
        }
      ],
      "stateMutability": "view",
      "type": "function"
    },
    {
      "inputs": [
        {
          "internalType": "address",
          "name": "account",
          "type": "address"
        },
        {
          "internalType": "uint256",
          "name": "index",
          "type": "uint256"
        }
      ],
      "name": "claimableFees",
      "outputs": [
        {
          "internalType": "uint256",
          "name": "",
          "type": "uint256"
        }
      ],
      "stateMutability": "view",
      "type": "function"
    },
    {
      "inputs": [
        {
          "internalType": "uint256",
          "name": "index",
          "type": "uint256"
        }
      ],
      "name": "weightInPool",
      "outputs": [
        {
          "internalType": "uint256",
          "name": "",
          "type": "uint256"
        }
      ],
      "stateMutability": "view",
      "type": "function"
    },
    {
      "inputs": [],
      "name": "withdraw",
      "outputs": [
        {
          "internalType": "bool",
          "name": "",
          "type": "bool"
        }
      ],
      "stateMutability": "payable",
      "type": "function"
    },
    {
      "inputs": [
        {
          "internalType": "uint256",
          "name": "amount",
          "type": "uint256"
        }
      ],
      "name": "burn",
      "outputs": [
        {
          "internalType": "bool",
          "name": "",
          "type": "bool"
        }
      ],
      "stateMutability": "payable",
      "type": "function"
    },
    {
      "inputs": [],
      "name": "claimHorn",
      "outputs": [],
      "stateMutability": "payable",
      "type": "function"
    },
    {
      "inputs": [],
      "name": "withdrawFees",
      "outputs": [],
      "stateMutability": "payable",
      "type": "function"
    },
    {
      "inputs": [],
      "name": "poolIsEmpty",
      "outputs": [
        {
          "internalType": "bool",
          "name": "",
          "type": "bool"
        }
      ],
      "stateMutability": "view",
      "type": "function"
    }
  ],
  "bytecode": "0x60806040526002805460ff191660011790556000600a55600b805462ffffff191690553480156200002f57600080fd5b50604051620035ce380380620035ce83398181016040526101008110156200005657600080fd5b50805160208201516040808401516060850151608086015160a087015160c088015160e09098015160028054610100600160a81b0319166101003302179055600380546001600160a01b03199081166001600160a01b03808c1691909117909255600c80548216838b16908117909155600b80546301000000600160b81b03191663010000009283021790819055600e80548416858b16908117909155600d80549094161790925588516395d89b4160e01b815298519a9b999a97999698959794969593949104909116916395d89b41916004808301926000929190829003018186803b1580156200014757600080fd5b505afa1580156200015c573d6000803e3d6000fd5b505050506040513d6000823e601f3d908101601f1916820160405260208110156200018657600080fd5b8101908080516040519392919084640100000000821115620001a757600080fd5b908301906020820185811115620001bd57600080fd5b8251640100000000811182820188101715620001d857600080fd5b82525081516020918201929091019080838360005b8381101562000207578181015183820152602001620001ed565b50505050905090810190601f168015620002355780820380516001836020036101000a031916815260200191505b50604052505081516200025092600492506020019062000345565b50600580546001600160801b03868116600160801b028189166001600160801b03199093169290921716179055600683905560088290556009819055600a546000908152600160209081526040822091909155620002be904290620151809062001ce3620002e3821b17901c565b600a546000908152600160208190526040909120015550620003e19650505050505050565b6000828201838110156200033e576040805162461bcd60e51b815260206004820152601b60248201527f536166654d6174683a206164646974696f6e206f766572666c6f770000000000604482015290519081900360640190fd5b9392505050565b828054600181600116156101000203166002900490600052602060002090601f016020900481019282601f106200038857805160ff1916838001178555620003b8565b82800160010185558215620003b8579182015b82811115620003b85782518255916020019190600101906200039b565b50620003c6929150620003ca565b5090565b5b80821115620003c65760008155600101620003cb565b6131dd80620003f16000396000f3fe6080604052600436106102195760003560e01c80638ec89e4f1161011d578063b2bdfa7b116100b0578063cd3293de1161007f578063d0717be511610064578063d0717be514610701578063d5a5aa4914610716578063fab980b71461072b57610219565b8063cd3293de146106cd578063cdb88ad1146106e257610219565b8063b2bdfa7b1461065a578063b46519311461066f578063bfe22a0114610699578063c5b37c22146106b857610219565b80639cecaa4c116100ec5780639cecaa4c146105cc578063a87d36ad146105f6578063a92d07af1461060b578063ac4892b71461064557610219565b80638ec89e4f146105675780639000ddaa1461057c5780639ab804e4146105845780639c3ee2441461059957610219565b806342966c68116101b05780636e553f651161017f578063733d894511610164578063733d89451461050c578063849bea631461053d5780638a5b3d711461055257610219565b80636e553f65146104ad57806370a08231146104d957610219565b806342966c6814610434578063476343ee1461045157806363e01aff1461045b578063681ba7151461047a57610219565b8063274fc72a116101ec578063274fc72a146103595780633ccfd60b1461036e5780633e72058d1461038a57806340f644fc1461041557610219565b806302bfd4a31461021e57806306fdde03146102635780630e70a4e9146102ed5780631a6da39214610320575b600080fd5b34801561022a57600080fd5b506102516004803603602081101561024157600080fd5b50356001600160a01b0316610740565b60408051918252519081900360200190f35b34801561026f57600080fd5b506102786107ef565b6040805160208082528351818301528351919283929083019185019080838360005b838110156102b257818101518382015260200161029a565b50505050905090810190601f1680156102df5780820380516001836020036101000a031916815260200191505b509250505060405180910390f35b3480156102f957600080fd5b506102516004803603602081101561031057600080fd5b50356001600160a01b0316610885565b34801561032c57600080fd5b506102516004803603604081101561034357600080fd5b506001600160a01b038135169060200135610903565b34801561036557600080fd5b50610251610b42565b610376610bc1565b604080519115158252519081900360200190f35b34801561039657600080fd5b506103c5600480360360408110156103ad57600080fd5b506001600160a01b0381351690602001351515610c2b565b60408051602080825283518183015283519192839290830191858101910280838360005b838110156104015781810151838201526020016103e9565b505050509050019250505060405180910390f35b6103766004803603602081101561042b57600080fd5b50351515610df5565b6103766004803603602081101561044a57600080fd5b5035610e8e565b610459610f50565b005b6103766004803603602081101561047157600080fd5b503515156111ff565b34801561048657600080fd5b506102516004803603602081101561049d57600080fd5b50356001600160a01b031661129a565b610376600480360360408110156104c357600080fd5b50803590602001356001600160a01b0316611487565b3480156104e557600080fd5b50610251600480360360208110156104fc57600080fd5b50356001600160a01b0316611549565b34801561051857600080fd5b506105216115d2565b604080516001600160a01b039092168252519081900360200190f35b34801561054957600080fd5b506102516115e6565b34801561055e57600080fd5b506102516115ec565b34801561057357600080fd5b506103766115f2565b6104596115fb565b34801561059057600080fd5b50610521611805565b3480156105a557600080fd5b50610251600480360360208110156105bc57600080fd5b50356001600160a01b0316611814565b3480156105d857600080fd5b50610251600480360360208110156105ef57600080fd5b50356118c7565b34801561060257600080fd5b50610376611916565b34801561061757600080fd5b50610620611946565b604080516fffffffffffffffffffffffffffffffff9092168252519081900360200190f35b34801561065157600080fd5b50610251611972565b34801561066657600080fd5b50610521611978565b34801561067b57600080fd5b506102516004803603602081101561069257600080fd5b5035611987565b610376600480360360208110156106af57600080fd5b50351515611a86565b3480156106c457600080fd5b50610620611b19565b3480156106d957600080fd5b50610251611b31565b610376600480360360208110156106f857600080fd5b50351515611bad565b34801561070d57600080fd5b50610251611c40565b34801561072257600080fd5b50610521611c46565b34801561073757600080fd5b50610278611c55565b600080805b6000548110156107e8576000818154811061075c57fe5b60009182526020909120600c90910201546001600160a01b0385811691161480156107a757506000818154811061078f57fe5b600091825260209091206009600c90920201015460ff165b156107e0576107dd600082815481106107bc57fe5b90600052602060002090600c02016002015483611ce390919063ffffffff16565b91505b600101610745565b5092915050565b60048054604080516020601f600260001961010060018816150201909516949094049384018190048102820181019092528281526060939092909183018282801561087b5780601f106108505761010080835404028352916020019161087b565b820191906000526020600020905b81548152906001019060200180831161085e57829003601f168201915b5050505050905090565b600080805b6000548110156107e857836001600160a01b0316600082815481106108ab57fe5b60009182526020909120600c90910201546001600160a01b03161480156108ef575060008082815481106108db57fe5b90600052602060002090600c020160010154115b156108fb576001909101905b60010161088a565b60008061090e613093565b6000848154811061091b57fe5b60009182526020918290206040805161018081018252600c90930290910180546001600160a01b039081168085526001830154958501959095526002820154928401929092526003810154606084015260048101546080840152600581015460a08401526006810154821660c0840152600781015460e08401526008810154610100840152600981015460ff161515610120840152600a810154610140840152600b015461016083015290925086161480156109db575060008160200151115b15610b385760005b600a54600101811015610b365760808201516000828152600160208190526040909120015410801590610a23575060008181526001602052604090205415155b15610b2e57600081815260016020819052604082200154610a43906118c7565b60008381526001602052604090205460608501519192501015610a665750610b2e565b60008281526001602052604090205460e0840151831415610add576000846101600151118015610a9b57508361016001518110155b15610ab857610160840151610ab1908290611d44565b9050610add565b6000846101600151118015610ad1575083610160015181105b15610add575050610b2e565b60208401516000610b056064610aff86610af986612710611d86565b90611ddf565b90611d86565b90506000610b1a620f4240610af98685611d86565b9050610b268882611ce3565b975050505050505b6001016109e3565b505b5090505b92915050565b600080805b600054811015610bbb5760008181548110610b5e57fe5b600091825260209091206009600c90920201015460ff1615610b7f57610bb3565b610bb060008281548110610b8f57fe5b90600052602060002090600c02016001015483611ce390919063ffffffff16565b91505b600101610b47565b50905090565b600b5460009060ff1615610c1c576040805162461bcd60e51b815260206004820152601b60248201527f5769746864726177206172652070617573656420666f72206e6f770000000000604482015290519081900360640190fd5b610c2533611e21565b50600190565b60606000805b600054811015610cdc57846001600160a01b031660008281548110610c5257fe5b60009182526020909120600c90910201546001600160a01b0316148015610c9657506000808281548110610c8257fe5b90600052602060002090600c020160010154115b8015610cc8575083151560008281548110610cad57fe5b600091825260209091206009600c90920201015460ff161515145b15610cd4576001909101905b600101610c31565b5060608167ffffffffffffffff81118015610cf657600080fd5b50604051908082528060200260200182016040528015610d20578160200160208202803683370190505b5090506000805b600054811015610dea57866001600160a01b031660008281548110610d4857fe5b60009182526020909120600c90910201546001600160a01b0316148015610d8c57506000808281548110610d7857fe5b90600052602060002090600c020160010154115b8015610dbe575085151560008281548110610da357fe5b600091825260209091206009600c90920201015460ff161515145b15610de25780838381518110610dd057fe5b60209081029190910101526001909101905b600101610d27565b509095945050505050565b6003546000906001600160a01b0316331480610e20575060025461010090046001600160a01b031633145b610e71576040805162461bcd60e51b815260206004820152601a60248201527f4f6e6c7920746865206f776e65722063616e20646f2074686973000000000000604482015290519081900360640190fd5b50600b80548215156101000261ff00199091161790556001919050565b600b5460009060ff1615610ee9576040805162461bcd60e51b815260206004820152601760248201527f4275726e206172652070617573656420666f72206e6f77000000000000000000604482015290519081900360640190fd5b60008211610f3e576040805162461bcd60e51b815260206004820152600e60248201527f496e76616c696420616d6f756e74000000000000000000000000000000000000604482015290519081900360640190fd5b610f4833836122a8565b506001919050565b6003546001600160a01b0316331480610f78575060025461010090046001600160a01b031633145b610fc9576040805162461bcd60e51b815260206004820152601a60248201527f4f6e6c7920746865206f776e65722063616e20646f2074686973000000000000604482015290519081900360640190fd5b600b546007546040805163a9059cbb60e01b815233600482015260248101929092525163010000009092046001600160a01b03169163a9059cbb916044808201926020929091908290030181600087803b15801561102657600080fd5b505af115801561103a573d6000803e3d6000fd5b505050506040513d602081101561105057600080fd5b505115156001146110925760405162461bcd60e51b81526004018080602001828103825260228152602001806131096022913960400191505060405180910390fd5b600060075561109f611916565b156111fd57600b54604080516370a0823160e01b8152306004820152905163010000009092046001600160a01b03169163a9059cbb91339184916370a08231916024808301926020929190829003018186803b1580156110fe57600080fd5b505afa158015611112573d6000803e3d6000fd5b505050506040513d602081101561112857600080fd5b5051604080517fffffffff0000000000000000000000000000000000000000000000000000000060e086901b1681526001600160a01b03909316600484015260248301919091525160448083019260209291908290030181600087803b15801561119157600080fd5b505af11580156111a5573d6000803e3d6000fd5b505050506040513d60208110156111bb57600080fd5b505115156001146111fd5760405162461bcd60e51b81526004018080602001828103825260228152602001806131096022913960400191505060405180910390fd5b565b6003546000906001600160a01b031633148061122a575060025461010090046001600160a01b031633145b61127b576040805162461bcd60e51b815260206004820152601a60248201527f4f6e6c7920746865206f776e65722063616e20646f2074686973000000000000604482015290519081900360640190fd5b50600b8054821515620100000262ff0000199091161790556001919050565b600080805b6000548110156107e857600081815481106112b657fe5b60009182526020909120600c90910201546001600160a01b0385811691161480156112fe575060008082815481106112ea57fe5b90600052602060002090600c020160010154115b801561132b57506000818154811061131257fe5b600091825260209091206009600c90920201015460ff16155b1561147f57611338613093565b6000828154811061134557fe5b600091825260208083206040805161018081018252600c90940290910180546001600160a01b03908116855260018201549385019390935260028101549184019190915260038101546060840152600481015460808401819052600582015460a0850152600682015490921660c0840152600781015460e08401526008810154610100840152600981015460ff161515610120840152600a810154610140840152600b015461016083015290925061140e90601890610af990603c908290829082904290611d44565b90506000811161141f57505061147f565b600061144f82610aff612710610af961144660648960200151611d8690919063ffffffff16565b60065490611d86565b61010084015190915061146d90611467836064611ddf565b90611d44565b90506114798582611ce3565b94505050505b60010161129f565b60008083116114dd576040805162461bcd60e51b815260206004820152600e60248201527f496e76616c696420616d6f756e74000000000000000000000000000000000000604482015290519081900360640190fd5b600b5460ff1615611535576040805162461bcd60e51b815260206004820152601a60248201527f4465706f736974206172652070617573656420666f72206e6f77000000000000604482015290519081900360640190fd5b611540338484612612565b50600192915050565b600080805b6000548110156107e8576000818154811061156557fe5b600091825260209091206009600c90920201015460ff1615611586576115ca565b6000818154811061159357fe5b60009182526020909120600c90910201546001600160a01b03858116911614156115ca576115c760008281548110610b8f57fe5b91505b60010161154e565b60025461010090046001600160a01b031681565b60085481565b60075481565b60025460ff1681565b600b54610100900460ff1615611658576040805162461bcd60e51b815260206004820152601a60248201527f436c61696d206172652064697361626c656420666f72206e6f77000000000000604482015290519081900360640190fd5b6000805b6000548110156117bd576000818154811061167357fe5b60009182526020909120600c90910201546001600160a01b0316331480156116b8575060008082815481106116a457fe5b90600052602060002090600c020160010154115b80156116e55750600081815481106116cc57fe5b600091825260209091206009600c90920201015460ff16155b156117b557600061175333600084815481106116fd57fe5b90600052602060002090600c0201600101546000858154811061171c57fe5b90600052602060002090600c020160040154426000878154811061173c57fe5b90600052602060002090600c020160080154612c60565b9050611786816000848154811061176657fe5b90600052602060002090600c020160080154611ce390919063ffffffff16565b6000838154811061179357fe5b600091825260209091206008600c9092020101556117b18382611ce3565b9250505b60010161165c565b50600081116117cc57506111fd565b60408051828152905133917f47cee97cb7acd717b3c0aa1435d004cd5b3c8c57d70dbceb4e4458bbd60e39d4919081900360200190a250565b600c546001600160a01b031681565b600080805b6000548110156107e8576000818154811061183057fe5b600091825260209091206009600c90920201015460ff1615611851576118bf565b6000818154811061185e57fe5b60009182526020909120600c90910201546001600160a01b0385811691161480156118a75750426000828154811061189257fe5b90600052602060002090600c02016005015411155b156118bf576118bc60008281548110610b8f57fe5b91505b600101611819565b600080805b6000548110156107e85783600082815481106118e457fe5b90600052602060002090600c0201600401541161190e5761190b60008281548110610b8f57fe5b91505b6001016118cc565b600080805b60005481101561193f5761193560008281548110610b8f57fe5b915060010161191b565b5015905090565b60055470010000000000000000000000000000000090046fffffffffffffffffffffffffffffffff1681565b60095481565b6003546001600160a01b031681565b6000611991613093565b6000838154811061199e57fe5b600091825260208083206040805161018081018252600c90940290910180546001600160a01b039081168552600180830154868601526002830154868501526003830154606087015260048301546080870152600583015460a0870152600683015490911660c0860152600782015460e08601526008820154610100860152600982015460ff161515610120860152600a80830154610140870152600b90920154610160860152905485529182905283200154909250611a5d906118c7565b60208301519091506000611a7c6064610aff85610af986612710611d86565b9695505050505050565b6003546000906001600160a01b0316331480611ab1575060025461010090046001600160a01b031633145b611b02576040805162461bcd60e51b815260206004820152601a60248201527f4f6e6c7920746865206f776e65722063616e20646f2074686973000000000000604482015290519081900360640190fd5b506002805460ff1916911515919091179055600190565b6005546fffffffffffffffffffffffffffffffff1681565b600d54604080516370a0823160e01b815230600482015290516000926001600160a01b0316916370a08231916024808301926020929190829003018186803b158015611b7c57600080fd5b505afa158015611b90573d6000803e3d6000fd5b505050506040513d6020811015611ba657600080fd5b5051905090565b6003546000906001600160a01b0316331480611bd8575060025461010090046001600160a01b031633145b611c29576040805162461bcd60e51b815260206004820152601a60248201527f4f6e6c7920746865206f776e65722063616e20646f2074686973000000000000604482015290519081900360640190fd5b50600b805460ff1916911515919091179055600190565b60065481565b600e546001600160a01b031681565b6004805460408051602060026001851615610100026000190190941693909304601f81018490048402820184019092528181529291830182828015611cdb5780601f10611cb057610100808354040283529160200191611cdb565b820191906000526020600020905b815481529060010190602001808311611cbe57829003601f168201915b505050505081565b600082820183811015611d3d576040805162461bcd60e51b815260206004820152601b60248201527f536166654d6174683a206164646974696f6e206f766572666c6f770000000000604482015290519081900360640190fd5b9392505050565b6000611d3d83836040518060400160405280601e81526020017f536166654d6174683a207375627472616374696f6e206f766572666c6f770000815250612e38565b600082611d9557506000610b3c565b82820282848281611da257fe5b0414611d3d5760405162461bcd60e51b81526004018080602001828103825260218152602001806131586021913960400191505060405180910390fd5b6000611d3d83836040518060400160405280601a81526020017f536166654d6174683a206469766973696f6e206279207a65726f000000000000815250612ecf565b600b5460009062010000900460ff1615611ee05760005b600054811015611eda5760008181548110611e4f57fe5b60009182526020909120600c90910201546001600160a01b038481169116148015611e9757506000808281548110611e8357fe5b90600052602060002090600c020160010154115b15611ed257611eac60008281548110610b8f57fe5b91506000808281548110611ebc57fe5b90600052602060002090600c0201600101819055505b600101611e38565b5061218c565b60005b6000548110156120a95760008181548110611efa57fe5b60009182526020909120600c90910201546001600160a01b038481169116148015611f4357504260008281548110611f2e57fe5b90600052602060002090600c02016005015411155b8015611f6c57506000808281548110611f5857fe5b90600052602060002090600c020160010154115b156120a1576000808281548110611f7f57fe5b600091825260209091206009600c90920201015460ff16611fae57611fab84600084815481106116fd57fe5b90505b6000611ff260008481548110611fc057fe5b90600052602060002090600c020160008581548110611fdb57fe5b90600052602060002090600c020160010154612f34565b90506000838154811061200157fe5b600091825260209091206009600c90920201015460ff1661205e57612057816120516000868154811061203057fe5b90600052602060002090600c02016001015487611ce390919063ffffffff16565b90611ce3565b935061206b565b6120688482611ce3565b93505b61207c826000858154811061176657fe5b6000848154811061208957fe5b90600052602060002090600c02016008018190555050505b600101611ee3565b5060005b60005481101561218a57600081815481106120c457fe5b60009182526020909120600c90910201546001600160a01b03848116911614801561210d575042600082815481106120f857fe5b90600052602060002090600c02016005015411155b80156121365750600080828154811061212257fe5b90600052602060002090600c020160010154115b1561218257600080828154811061214957fe5b90600052602060002090600c020160010181905550600080828154811061216c57fe5b90600052602060002090600c0201600201819055505b6001016120ad565b505b6000811161219a57506122a5565b600b546040805163a9059cbb60e01b81526001600160a01b03858116600483015260248201859052915163010000009093049091169163a9059cbb916044808201926020929091908290030181600087803b1580156121f857600080fd5b505af115801561220c573d6000803e3d6000fd5b505050506040513d602081101561222257600080fd5b505115156001146122645760405162461bcd60e51b81526004018080602001828103825260228152602001806131096022913960400191505060405180910390fd5b6040805182815290516001600160a01b038416917f884edad9ce6fa2440d8a54cc123490eb96d2768479d49ff9c7366125a9424364919081900360200190a2505b50565b600d54604080516370a0823160e01b81526001600160a01b0385811660048301529151849392909216916370a0823191602480820192602092909190829003018186803b1580156122f857600080fd5b505afa15801561230c573d6000803e3d6000fd5b505050506040513d602081101561232257600080fd5b50511015612377576040805162461bcd60e51b815260206004820152601f60248201527f5472616e7366657220616d6f756e7420657863656564732062616c616e636500604482015290519081900360640190fd5b600d54604080517f9dc29fac0000000000000000000000000000000000000000000000000000000081526001600160a01b0385811660048301526024820185905291519190921691639dc29fac91604480830192600092919082900301818387803b1580156123e557600080fd5b505af11580156123f9573d6000803e3d6000fd5b505050506000604051806101800160405280846001600160a01b0316815260200161243b670de0b6b3a7640000610af960095487611d8690919063ffffffff16565b81526020018381526020016000815260200142815260200161246d600854620151800242611ce390919063ffffffff16565b815260200160006001600160a01b03168152602001600a548152602001600081526020016001151581526020016124bb670de0b6b3a7640000610af960095487611d8690919063ffffffff16565b8152600a80546000908152600160208181526040808420549582019590955286548083018855968352918290208551600c9097020180547fffffffffffffffffffffffff00000000000000000000000000000000000000009081166001600160a01b039889161782559286015191810191909155928401516002840155606084015160038401556080840151600484015560a0840151600584015560c084015160068401805490921690861617905560e0830151600783015561010083015160088301556101208301516009808401805460ff1916921515929092179091556101408401519183019190915561016090920151600b9091015554908316907f49995e5dd6158cf69ad3e9777c46755a1a826a446c6416992167462dad033b2a9083906125f690670de0b6b3a764000090610af9908490611d86565b6040805192835260208301919091528051918290030190a25050565b81600b60039054906101000a90046001600160a01b03166001600160a01b03166370a08231856040518263ffffffff1660e01b815260040180826001600160a01b0316815260200191505060206040518083038186803b15801561267557600080fd5b505afa158015612689573d6000803e3d6000fd5b505050506040513d602081101561269f57600080fd5b505110156126f4576040805162461bcd60e51b815260206004820152601f60248201527f5472616e7366657220616d6f756e7420657863656564732062616c616e636500604482015290519081900360640190fd5b600b54604080517f23b872dd00000000000000000000000000000000000000000000000000000000815233600482015230602482015260448101859052905163010000009092046001600160a01b0316916323b872dd916064808201926020929091908290030181600087803b15801561276d57600080fd5b505af1158015612781573d6000803e3d6000fd5b505050506040513d602081101561279757600080fd5b505115156001146127d95760405162461bcd60e51b81526004018080602001828103825260228152602001806131096022913960400191505060405180910390fd5b6005546127106fffffffffffffffffffffffffffffffff9091168302046001600160a01b0382161580159061281757506001600160a01b0382163314155b1561294e57612710611388820204816128308183611d44565b600b546040805163a9059cbb60e01b81526001600160a01b0388811660048301526024820187905291519396506301000000909204169163a9059cbb916044808201926020929091908290030181600087803b15801561288f57600080fd5b505af11580156128a3573d6000803e3d6000fd5b505050506040513d60208110156128b957600080fd5b505115156001146128fb5760405162461bcd60e51b815260040180806020018281038252602f815260200180613179602f913960400191505060405180910390fd5b604080518681526020810184905280820183905290516001600160a01b0380871692908916917f870e4e1dcfab6c09707448d3659b3d8097c084bf06e7467d6029940cd7122ee09181900360600190a350505b6005546127107001000000000000000000000000000000009091046fffffffffffffffffffffffffffffffff16840204600061298e826114678786611d44565b60075490915061299e9084611ce3565b600755600a5460009081526001602081905260409091200154421115612a4357600a8054600190810191829055600091825260205260408120556129e54262015180611ce3565b60016000600a548152602001908152602001600020600101819055507f55b564c9869786db1e542ae1898ec00c7cb604bbca24ca47f5f70d34abe269b5600a5442604051808381526020018281526020019250505060405180910390a15b600a54600090815260016020526040902054612a5f9083611ce3565b60016000600a548152602001908152602001600020600001819055506000604051806101800160405280886001600160a01b0316815260200183815260200160008152602001848152602001428152602001612acb600854620151800242611ce390919063ffffffff16565b81526001600160a01b03808816602080840191909152600a8054604080860182905260006060808801829052608080890183905260a0808a018d905294835260018088528484205460c09a8b01528b548082018d559b8452928790208a51600c909c020180549b89167fffffffffffffffffffffffff00000000000000000000000000000000000000009c8d16178155968a0151928701929092559188015160028601559087015160038501558601516004840155850151600583015592840151600682018054918416919096161790945560e08301516007850155610100830151600885015561012083015160098501805491151560ff199092169190911790556101408301519184019190915561016090910151600b9092019190915586167f7162984403f6c73c8639375d45a9187dfd04602231bd8e587c415718b5f7e5f986612c188686611ce3565b42612c33600854620151800242611ce390919063ffffffff16565b604080519485526020850193909352838301919091526060830152519081900360800190a2505050505050565b600b54600090610100900460ff1615612c7b57506000612e2f565b6000612c916018610af9603c8181818a8c611d44565b905060008111612ca5576000915050612e2f565b6000612cbf82610aff612710610af96114468c6064611d86565b9050612cd084611467836064611ddf565b905060008111612ce557600092505050612e2f565b600d54604080517f40c10f190000000000000000000000000000000000000000000000000000000081523060048201526024810184905290516001600160a01b03909216916340c10f199160448082019260009290919082900301818387803b158015612d5157600080fd5b505af1158015612d65573d6000803e3d6000fd5b5050600d546040805163a9059cbb60e01b81526001600160a01b038d8116600483015260248201879052915191909216935063a9059cbb925060448083019260209291908290030181600087803b158015612dbf57600080fd5b505af1158015612dd3573d6000803e3d6000fd5b505050506040513d6020811015612de957600080fd5b50511515600114612e2b5760405162461bcd60e51b815260040180806020018281038252602d81526020018061312b602d913960400191505060405180910390fd5b9150505b95945050505050565b60008184841115612ec75760405162461bcd60e51b81526004018080602001828103825283818151815260200191508051906020019080838360005b83811015612e8c578181015183820152602001612e74565b50505050905090810190601f168015612eb95780820380516001836020036101000a031916815260200191505b509250505060405180910390fd5b505050900390565b60008183612f1e5760405162461bcd60e51b8152602060048201818152835160248401528351909283926044909101919085019080838360008315612e8c578181015183820152602001612e74565b506000838581612f2a57fe5b0495945050505050565b600080805b600a54600101811015610b385760008181526001602052604090205415801590612f79575060048501546000828152600160208190526040909120015410155b1561308b57600081815260016020819052604082200154612f99906118c7565b60008381526001602052604090205460038801549192501015612fbc575061308b565b600082815260016020526040902054600787015483141561302e57600087600b0154118015612fef575086600b01548110155b1561300b57600b870154613004908290611d44565b905061302e565b600087600b0154118015613022575086600b015481105b1561302e57505061308b565b8560006130466064610aff86610af986612710611d86565b9050620f42408382020461305a8782611ce3565b6000878152600160205260409020549097506130769082611d44565b60008781526001602052604090205550505050505b600101612f39565b60405180610180016040528060006001600160a01b03168152602001600081526020016000815260200160008152602001600081526020016000815260200160006001600160a01b0316815260200160008152602001600081526020016000151581526020016000815260200160008152509056fe4572726f72207472616e7366657246726f6d206f6e2074686520636f6e74726163744572726f72207472616e7366657246726f6d20666f7220726577617264206f6e2074686520636f6e7472616374536166654d6174683a206d756c7469706c69636174696f6e206f766572666c6f774572726f72207472616e7366657246726f6d206f6e2074686520636f6e747261637420666f7220726566657272616ca2646970667358221220bae8cd9c57d76d409af5f65be3221f50804b40921ac9fc92bc46357cff6c68cb64736f6c63430007000033",
  "immutableReferences": {},
  "source": "// SPDX-License-Identifier: UNLICENSED\r\n\r\npragma solidity ^0.7.0;\r\n\r\nimport \"@openzeppelin/contracts/math/SafeMath.sol\";\r\nimport \"./interfaces/IHornLockVault.sol\";\r\nimport \"./interfaces/IExtendedERC20.sol\";\r\n\r\ncontract HornLockVault is IHornLockVault {\r\n    using SafeMath for uint256;\r\n\r\n    struct LockedAsset {\r\n        address account;\r\n        uint256 amount;\r\n        uint256 burnedHorn;\r\n        uint256 fees;\r\n        uint256 fromDate;\r\n        uint256 toDate;\r\n        address referralAddr;\r\n        uint256 poolIndex;\r\n        uint256 alreadyClaimedHorn;\r\n        bool isBurnAsset;\r\n        uint256 baseAmount;\r\n        uint256 enterPoolFees;\r\n    }\r\n\r\n    struct RewardFee {\r\n        uint256 amount;\r\n        uint256 depositDate;\r\n    }\r\n\r\n    LockedAsset[] private _lockedAssets;\r\n    mapping(uint256 => RewardFee) private _poolFees;\r\n\r\n    bool public _isActive = true;\r\n    address public _createdFrom;\r\n    address public _owner;\r\n    string public _vaultName;\r\n    uint128 public _fee;\r\n    uint128 public _depositRewardFee;\r\n    uint256 public _hornPerDay;\r\n    uint256 public _feesVault;\r\n    uint256 public _minLockDays;\r\n    uint256 public _weightPerHorn;\r\n    uint256 private _currentFeeIndex = 0;\r\n    bool private _isPaused = false;\r\n    bool private _hornRewardDisabled = false;\r\n    bool private _emergencyWithdraw = false;\r\n    IExtendedERC20 private _token;\r\n    address public _tokenAddr;\r\n    IExtendedERC20 private _hornToken;\r\n    address public _hornTokenAddr;\r\n\r\n    constructor(\r\n        address owner,\r\n        address lockedTokenAddr,\r\n        address hornTokenAddr,\r\n        uint128 fee,\r\n        uint128 depositRewardFee,\r\n        uint256 hornPerDay,\r\n        uint256 minLockDays,\r\n        uint256 weightPerHorn\r\n    ) {\r\n        _createdFrom = msg.sender;\r\n        _owner = owner;\r\n        _tokenAddr = lockedTokenAddr;\r\n        _token = IExtendedERC20(lockedTokenAddr);\r\n        _hornTokenAddr = hornTokenAddr;\r\n        _hornToken = IExtendedERC20(hornTokenAddr);\r\n        _vaultName = _token.symbol();\r\n        _fee = fee;\r\n        _depositRewardFee = depositRewardFee;\r\n        _hornPerDay = hornPerDay;\r\n        _minLockDays = minLockDays;\r\n        _weightPerHorn = weightPerHorn;\r\n\r\n        _poolFees[_currentFeeIndex].amount = 0;\r\n        _poolFees[_currentFeeIndex].depositDate = block.timestamp.add(1 days);\r\n    }\r\n\r\n    function balanceOf(address account) public view override returns (uint256) {\r\n        uint256 totalBalance = 0;\r\n        for (uint256 i = 0; i < _lockedAssets.length; i++) {\r\n            if (_lockedAssets[i].isBurnAsset) continue;\r\n            if (account == _lockedAssets[i].account) {\r\n                totalBalance = totalBalance.add(_lockedAssets[i].amount);\r\n            }\r\n        }\r\n        return totalBalance;\r\n    }\r\n\r\n    function claimableBalanceOf(address account)\r\n        public\r\n        view\r\n        override\r\n        returns (uint256)\r\n    {\r\n        uint256 totalBalance = 0;\r\n        for (uint256 i = 0; i < _lockedAssets.length; i++) {\r\n            if (_lockedAssets[i].isBurnAsset) continue;\r\n            if (\r\n                account == _lockedAssets[i].account &&\r\n                _lockedAssets[i].toDate <= block.timestamp\r\n            ) {\r\n                totalBalance = totalBalance.add(_lockedAssets[i].amount);\r\n            }\r\n        }\r\n        return totalBalance;\r\n    }\r\n\r\n    function claimableHornOf(address account)\r\n        public\r\n        view\r\n        override\r\n        returns (uint256)\r\n    {\r\n        uint256 totalBalance = 0;\r\n        for (uint256 i = 0; i < _lockedAssets.length; i++) {\r\n            if (\r\n                account == _lockedAssets[i].account &&\r\n                _lockedAssets[i].amount > 0 &&\r\n                !_lockedAssets[i].isBurnAsset\r\n            ) {\r\n                LockedAsset memory asset = _lockedAssets[i];\r\n                uint256 period =\r\n                    block.timestamp.sub(asset.fromDate).div(60).div(60).div(24);\r\n                if (period <= 0) continue;\r\n                uint256 reward =\r\n                    _hornPerDay.mul(asset.amount.mul(100)).div(10000).mul(\r\n                        period\r\n                    );\r\n                reward = reward.div(100).sub(asset.alreadyClaimedHorn);\r\n                totalBalance = totalBalance.add(reward);\r\n            }\r\n        }\r\n        return totalBalance;\r\n    }\r\n\r\n    function reserve() public view override returns (uint256) {\r\n        return _hornToken.balanceOf(address(this));\r\n    }\r\n\r\n    function lockedAssets() public view override returns (uint256) {\r\n        uint256 totalBalance = 0;\r\n        for (uint256 i = 0; i < _lockedAssets.length; i++) {\r\n            if (_lockedAssets[i].isBurnAsset) continue;\r\n            totalBalance = totalBalance.add(_lockedAssets[i].amount);\r\n        }\r\n        return totalBalance;\r\n    }\r\n\r\n    function lockedAssetsBefore(uint256 before) public view returns (uint256) {\r\n        uint256 totalBalance = 0;\r\n        for (uint256 i = 0; i < _lockedAssets.length; i++) {\r\n            if (_lockedAssets[i].fromDate <= before) {\r\n                totalBalance = totalBalance.add(_lockedAssets[i].amount);\r\n            }\r\n        }\r\n        return totalBalance;\r\n    }\r\n\r\n    function getBurnedHornAmount(address account)\r\n        public\r\n        view\r\n        returns (uint256)\r\n    {\r\n        uint256 totalBalance = 0;\r\n        for (uint256 i = 0; i < _lockedAssets.length; i++) {\r\n            if (\r\n                account == _lockedAssets[i].account &&\r\n                _lockedAssets[i].isBurnAsset\r\n            ) {\r\n                totalBalance = totalBalance.add(_lockedAssets[i].burnedHorn);\r\n            }\r\n        }\r\n        return totalBalance;\r\n    }\r\n\r\n    function name() public view returns (string memory) {\r\n        return _vaultName;\r\n    }\r\n\r\n    function setPauseState(bool newState) external payable returns (bool) {\r\n        require(\r\n            msg.sender == _owner || msg.sender == _createdFrom,\r\n            \"Only the owner can do this\"\r\n        );\r\n        _isPaused = newState;\r\n        return true;\r\n    }\r\n\r\n    function setActiveState(bool newState) external payable returns (bool) {\r\n        require(\r\n            msg.sender == _owner || msg.sender == _createdFrom,\r\n            \"Only the owner can do this\"\r\n        );\r\n        _isActive = newState;\r\n        return true;\r\n    }\r\n\r\n    function setHornRewardDisabledState(bool newState)\r\n        external\r\n        payable\r\n        returns (bool)\r\n    {\r\n        require(\r\n            msg.sender == _owner || msg.sender == _createdFrom,\r\n            \"Only the owner can do this\"\r\n        );\r\n        _hornRewardDisabled = newState;\r\n        return true;\r\n    }\r\n\r\n    function setEmergencyWithdrawState(bool newState)\r\n        external\r\n        payable\r\n        returns (bool)\r\n    {\r\n        require(\r\n            msg.sender == _owner || msg.sender == _createdFrom,\r\n            \"Only the owner can do this\"\r\n        );\r\n        _emergencyWithdraw = newState;\r\n        return true;\r\n    }\r\n\r\n    function deposit(uint256 amount, address referralAddr)\r\n        external\r\n        payable\r\n        override\r\n        returns (bool)\r\n    {\r\n        require(amount > 0, \"Invalid amount\");\r\n        require(!_isPaused, \"Deposit are paused for now\");\r\n        _deposit(msg.sender, amount, referralAddr);\r\n        return true;\r\n    }\r\n\r\n    function balanceIndexes(address account, bool filterBurned)\r\n        public\r\n        view\r\n        returns (uint256[] memory)\r\n    {\r\n        uint256 count = 0;\r\n        for (uint256 i = 0; i < _lockedAssets.length; i++) {\r\n            if (\r\n                _lockedAssets[i].account == account &&\r\n                _lockedAssets[i].amount > 0 &&\r\n                _lockedAssets[i].isBurnAsset == filterBurned\r\n            ) {\r\n                count++;\r\n            }\r\n        }\r\n        uint256[] memory indexes = new uint256[](count);\r\n        uint256 index = 0;\r\n        for (uint256 i = 0; i < _lockedAssets.length; i++) {\r\n            if (\r\n                _lockedAssets[i].account == account &&\r\n                _lockedAssets[i].amount > 0 &&\r\n                _lockedAssets[i].isBurnAsset == filterBurned\r\n            ) {\r\n                indexes[index] = i;\r\n                index++;\r\n            }\r\n        }\r\n        return indexes;\r\n    }\r\n\r\n    function getLockedAssetsCountByAccount(address account)\r\n        public\r\n        view\r\n        returns (uint256)\r\n    {\r\n        uint256 count = 0;\r\n        for (uint256 i = 0; i < _lockedAssets.length; i++) {\r\n            if (\r\n                _lockedAssets[i].account == account &&\r\n                _lockedAssets[i].amount > 0\r\n            ) {\r\n                count++;\r\n            }\r\n        }\r\n        return count;\r\n    }\r\n\r\n    function claimableFees(address account, uint256 index)\r\n        public\r\n        view\r\n        returns (uint256)\r\n    {\r\n        uint256 totalFees = 0;\r\n        LockedAsset memory asset = _lockedAssets[index];\r\n        if (asset.account == account && asset.amount > 0) {\r\n            for (uint256 y = 0; y < _currentFeeIndex + 1; y++) {\r\n                if (\r\n                    _poolFees[y].depositDate >= asset.fromDate &&\r\n                    _poolFees[y].amount > 0\r\n                ) {\r\n                    uint256 contractBalance =\r\n                        lockedAssetsBefore(_poolFees[y].depositDate);\r\n                    if (asset.fees > _poolFees[y].amount) continue;\r\n                    uint256 fees = _poolFees[y].amount;\r\n                    if (y == asset.poolIndex) {\r\n                        if (\r\n                            asset.enterPoolFees > 0 &&\r\n                            fees >= asset.enterPoolFees\r\n                        ) {\r\n                            fees = fees.sub(asset.enterPoolFees);\r\n                        } else if (\r\n                            asset.enterPoolFees > 0 &&\r\n                            fees < asset.enterPoolFees\r\n                        ) {\r\n                            continue;\r\n                        }\r\n                    }\r\n                    uint256 senderBalance = asset.amount;\r\n                    uint256 weightPercent =\r\n                        senderBalance.mul(10000).div(contractBalance).mul(100);\r\n                    uint256 reward = fees.mul(weightPercent).div(1000000);\r\n                    totalFees = totalFees.add(reward);\r\n                }\r\n            }\r\n        }\r\n        return totalFees;\r\n    }\r\n\r\n    function weightInPool(uint256 index) public view returns (uint256) {\r\n        LockedAsset memory asset = _lockedAssets[index];\r\n        uint256 contractBalance =\r\n            lockedAssetsBefore(_poolFees[_currentFeeIndex].depositDate);\r\n        uint256 senderBalance = asset.amount;\r\n        uint256 weightPercent =\r\n            senderBalance.mul(10000).div(contractBalance).mul(100);\r\n        return weightPercent;\r\n    }\r\n\r\n    function _deposit(\r\n        address sender,\r\n        uint256 amount,\r\n        address referralAddr\r\n    ) internal {\r\n        require(\r\n            _token.balanceOf(sender) >= amount,\r\n            \"Transfer amount exceeds balance\"\r\n        );\r\n        require(\r\n            _token.transferFrom(msg.sender, address(this), amount) == true,\r\n            \"Error transferFrom on the contract\"\r\n        );\r\n        uint256 fee = (amount * _fee) / 10000;\r\n        if (referralAddr != address(0) && referralAddr != msg.sender) {\r\n            uint256 referralFee = (fee * 5000) / 10000;\r\n            uint256 baseFee = fee;\r\n            fee = fee.sub(referralFee);\r\n            require(\r\n                _token.transfer(referralAddr, referralFee) == true,\r\n                \"Error transferFrom on the contract for referral\"\r\n            );\r\n            emit ReferralReward(\r\n                sender,\r\n                referralAddr,\r\n                amount,\r\n                referralFee,\r\n                baseFee\r\n            );\r\n        }\r\n        uint256 depositFee = (amount * _depositRewardFee) / 10000;\r\n        uint256 amountSubFee = amount.sub(fee).sub(depositFee);\r\n\r\n        // Add fees to withdrawable amount by the owner\r\n        _feesVault = _feesVault.add(fee);\r\n        if (_poolFees[_currentFeeIndex].depositDate < block.timestamp) {\r\n            // Create a new pool fee for today\r\n            _currentFeeIndex++;\r\n            _poolFees[_currentFeeIndex].amount = 0;\r\n            _poolFees[_currentFeeIndex].depositDate = block.timestamp.add(\r\n                1 days\r\n            );\r\n            emit NewPool(_currentFeeIndex, block.timestamp);\r\n        }\r\n\r\n        _poolFees[_currentFeeIndex].amount = _poolFees[_currentFeeIndex]\r\n            .amount\r\n            .add(depositFee);\r\n\r\n        // Set the balance\r\n        _lockedAssets.push(\r\n            LockedAsset({\r\n                account: sender,\r\n                fees: depositFee,\r\n                baseAmount: amountSubFee,\r\n                amount: amountSubFee,\r\n                burnedHorn: 0,\r\n                fromDate: block.timestamp,\r\n                toDate: block.timestamp.add(_minLockDays * 1 days),\r\n                referralAddr: referralAddr,\r\n                alreadyClaimedHorn: 0,\r\n                poolIndex: _currentFeeIndex,\r\n                isBurnAsset: false,\r\n                enterPoolFees: _poolFees[_currentFeeIndex].amount\r\n            })\r\n        );\r\n        emit Deposit(\r\n            sender,\r\n            amount,\r\n            fee.add(depositFee),\r\n            block.timestamp,\r\n            block.timestamp.add(_minLockDays * 1 days)\r\n        );\r\n    }\r\n\r\n    function withdraw() external payable override returns (bool) {\r\n        require(!_isPaused, \"Withdraw are paused for now\");\r\n        _withdraw(msg.sender);\r\n        return true;\r\n    }\r\n\r\n    function _withdraw(address sender) internal {\r\n        uint256 totalWithdraw = 0;\r\n\r\n        if (_emergencyWithdraw) {\r\n            for (uint256 i = 0; i < _lockedAssets.length; i++) {\r\n                if (\r\n                    sender == _lockedAssets[i].account &&\r\n                    _lockedAssets[i].amount > 0\r\n                ) {\r\n                    totalWithdraw = totalWithdraw.add(_lockedAssets[i].amount);\r\n                    _lockedAssets[i].amount = 0;\r\n                }\r\n            }\r\n        } else {\r\n            for (uint256 i = 0; i < _lockedAssets.length; i++) {\r\n                if (\r\n                    sender == _lockedAssets[i].account &&\r\n                    _lockedAssets[i].toDate <= block.timestamp &&\r\n                    _lockedAssets[i].amount > 0\r\n                ) {\r\n                    uint256 hornreward = 0;\r\n                    if (!_lockedAssets[i].isBurnAsset) {\r\n                        hornreward = _rewardWithdrawalHorn(\r\n                            sender,\r\n                            _lockedAssets[i].amount,\r\n                            _lockedAssets[i].fromDate,\r\n                            block.timestamp,\r\n                            _lockedAssets[i].alreadyClaimedHorn\r\n                        );\r\n                    }\r\n                    uint256 reward =\r\n                        _claimFeesForAsset(\r\n                            _lockedAssets[i],\r\n                            _lockedAssets[i].amount\r\n                        );\r\n\r\n                    if (!_lockedAssets[i].isBurnAsset) {\r\n                        totalWithdraw = totalWithdraw\r\n                            .add(_lockedAssets[i].amount)\r\n                            .add(reward);\r\n                    } else {\r\n                        totalWithdraw = totalWithdraw.add(reward);\r\n                    }\r\n                    _lockedAssets[i].alreadyClaimedHorn = _lockedAssets[i]\r\n                        .alreadyClaimedHorn\r\n                        .add(hornreward);\r\n                }\r\n            }\r\n\r\n            // Reset amount\r\n            for (uint256 i = 0; i < _lockedAssets.length; i++) {\r\n                if (\r\n                    sender == _lockedAssets[i].account &&\r\n                    _lockedAssets[i].toDate <= block.timestamp &&\r\n                    _lockedAssets[i].amount > 0\r\n                ) {\r\n                    _lockedAssets[i].amount = 0;\r\n                    _lockedAssets[i].burnedHorn = 0;\r\n                }\r\n            }\r\n        }\r\n        if (totalWithdraw <= 0) return;\r\n        require(\r\n            _token.transfer(sender, totalWithdraw) == true,\r\n            \"Error transferFrom on the contract\"\r\n        );\r\n        emit Withdraw(sender, totalWithdraw);\r\n    }\r\n\r\n    function burn(uint256 amount) external payable override returns (bool) {\r\n        require(!_isPaused, \"Burn are paused for now\");\r\n        require(amount > 0, \"Invalid amount\");\r\n        _burn(msg.sender, amount);\r\n        return true;\r\n    }\r\n\r\n    function _burn(address sender, uint256 burnAmount) internal {\r\n        require(\r\n            _hornToken.balanceOf(sender) >= burnAmount,\r\n            \"Transfer amount exceeds balance\"\r\n        );\r\n        _hornToken.burn(sender, burnAmount);\r\n        _lockedAssets.push(\r\n            LockedAsset({\r\n                account: sender,\r\n                fees: 0,\r\n                baseAmount: burnAmount.mul(_weightPerHorn).div(1 ether),\r\n                amount: burnAmount.mul(_weightPerHorn).div(1 ether),\r\n                burnedHorn: burnAmount,\r\n                fromDate: block.timestamp,\r\n                toDate: block.timestamp.add(_minLockDays * 1 days),\r\n                referralAddr: address(0),\r\n                alreadyClaimedHorn: 0,\r\n                poolIndex: _currentFeeIndex,\r\n                isBurnAsset: true,\r\n                enterPoolFees: _poolFees[_currentFeeIndex].amount\r\n            })\r\n        );\r\n        emit Burn(\r\n            sender,\r\n            burnAmount,\r\n            burnAmount.mul(_weightPerHorn).div(1 ether)\r\n        );\r\n    }\r\n\r\n    function claimHorn() public payable {\r\n        require(!_hornRewardDisabled, \"Claim are disabled for now\");\r\n        uint256 totalClaim = 0;\r\n        for (uint256 i = 0; i < _lockedAssets.length; i += 1) {\r\n            if (\r\n                msg.sender == _lockedAssets[i].account &&\r\n                _lockedAssets[i].amount > 0 &&\r\n                !_lockedAssets[i].isBurnAsset\r\n            ) {\r\n                uint256 reward =\r\n                    _rewardWithdrawalHorn(\r\n                        msg.sender,\r\n                        _lockedAssets[i].amount,\r\n                        _lockedAssets[i].fromDate,\r\n                        block.timestamp,\r\n                        _lockedAssets[i].alreadyClaimedHorn\r\n                    );\r\n                _lockedAssets[i].alreadyClaimedHorn = _lockedAssets[i]\r\n                    .alreadyClaimedHorn\r\n                    .add(reward);\r\n                totalClaim = totalClaim.add(reward);\r\n            }\r\n        }\r\n        if (totalClaim <= 0) return;\r\n        emit Claim(msg.sender, totalClaim);\r\n    }\r\n\r\n    function _rewardWithdrawalHorn(\r\n        address receiver,\r\n        uint256 amount,\r\n        uint256 fromDate,\r\n        uint256 toDate,\r\n        uint256 alreadyClaimed\r\n    ) internal returns (uint256) {\r\n        if (_hornRewardDisabled) return 0;\r\n\r\n        uint256 period = toDate.sub(fromDate).div(60).div(60).div(24);\r\n        if (period <= 0) return 0;\r\n        uint256 reward =\r\n            _hornPerDay.mul(amount.mul(100)).div(10000).mul(period);\r\n        reward = reward.div(100).sub(alreadyClaimed);\r\n        if (reward <= 0) return 0;\r\n        _hornToken.mint(address(this), reward);\r\n        require(\r\n            _hornToken.transfer(receiver, reward) == true,\r\n            \"Error transferFrom for reward on the contract\"\r\n        );\r\n        return reward;\r\n    }\r\n\r\n    function _claimFeesForAsset(\r\n        LockedAsset storage asset,\r\n        uint256 withdrawAmount\r\n    ) internal returns (uint256) {\r\n        uint256 totalReward = 0;\r\n        for (uint256 y = 0; y < _currentFeeIndex + 1; y++) {\r\n            if (\r\n                _poolFees[y].amount > 0 &&\r\n                _poolFees[y].depositDate >= asset.fromDate\r\n            ) {\r\n                uint256 contractBalance =\r\n                    lockedAssetsBefore(_poolFees[y].depositDate);\r\n                if (asset.fees > _poolFees[y].amount) continue;\r\n                uint256 fees = _poolFees[y].amount;\r\n                if (y == asset.poolIndex) {\r\n                    if (\r\n                        asset.enterPoolFees > 0 && fees >= asset.enterPoolFees\r\n                    ) {\r\n                        fees = fees.sub(asset.enterPoolFees);\r\n                    } else if (\r\n                        asset.enterPoolFees > 0 && fees < asset.enterPoolFees\r\n                    ) {\r\n                        continue;\r\n                    }\r\n                }\r\n                uint256 senderBalance = withdrawAmount;\r\n                uint256 weightPercent =\r\n                    senderBalance.mul(10000).div(contractBalance).mul(100);\r\n                uint256 reward = (fees * weightPercent) / 1000000;\r\n                totalReward = totalReward.add(reward);\r\n                _poolFees[y].amount = _poolFees[y].amount.sub(reward);\r\n            }\r\n        }\r\n        return totalReward;\r\n    }\r\n\r\n    function withdrawFees() public payable {\r\n        require(\r\n            msg.sender == _owner || msg.sender == _createdFrom,\r\n            \"Only the owner can do this\"\r\n        );\r\n        require(\r\n            _token.transfer(msg.sender, _feesVault) == true,\r\n            \"Error transferFrom on the contract\"\r\n        );\r\n        _feesVault = 0;\r\n        if (poolIsEmpty()) {\r\n            require(\r\n                _token.transfer(msg.sender, _token.balanceOf(address(this))) ==\r\n                    true,\r\n                \"Error transferFrom on the contract\"\r\n            );\r\n        }\r\n    }\r\n\r\n    function poolIsEmpty() public view returns (bool) {\r\n        uint256 totalAmount = 0;\r\n        for (uint256 i = 0; i < _lockedAssets.length; i += 1) {\r\n            totalAmount = totalAmount.add(_lockedAssets[i].amount);\r\n        }\r\n        return totalAmount == 0;\r\n    }\r\n}\r\n",
  "sourcePath": "D:/Development/horn/horn-token/contracts/HornLockVault.sol",
  "compiler": {
    "name": "solc",
    "version": "0.7.0+commit.9e61f92b.Emscripten.clang"
  },
  "schemaVersion": "3.3.2",
  "updatedAt": "2021-01-07T18:19:18.459Z",
  "networkType": "ethereum",
  "devdoc": {
    "kind": "dev",
    "methods": {},
    "version": 1
  },
  "userdoc": {
    "kind": "user",
    "methods": {},
    "version": 1
  }
}