{
  "contractName": "HornToken",
  "abi": [
    {
      "inputs": [],
      "stateMutability": "nonpayable",
      "type": "constructor"
    },
    {
      "anonymous": false,
      "inputs": [
        {
          "indexed": true,
          "internalType": "address",
          "name": "owner",
          "type": "address"
        },
        {
          "indexed": true,
          "internalType": "address",
          "name": "spender",
          "type": "address"
        },
        {
          "indexed": false,
          "internalType": "uint256",
          "name": "value",
          "type": "uint256"
        }
      ],
      "name": "Approval",
      "type": "event"
    },
    {
      "anonymous": false,
      "inputs": [
        {
          "indexed": true,
          "internalType": "bytes32",
          "name": "role",
          "type": "bytes32"
        },
        {
          "indexed": true,
          "internalType": "bytes32",
          "name": "previousAdminRole",
          "type": "bytes32"
        },
        {
          "indexed": true,
          "internalType": "bytes32",
          "name": "newAdminRole",
          "type": "bytes32"
        }
      ],
      "name": "RoleAdminChanged",
      "type": "event"
    },
    {
      "anonymous": false,
      "inputs": [
        {
          "indexed": true,
          "internalType": "bytes32",
          "name": "role",
          "type": "bytes32"
        },
        {
          "indexed": true,
          "internalType": "address",
          "name": "account",
          "type": "address"
        },
        {
          "indexed": true,
          "internalType": "address",
          "name": "sender",
          "type": "address"
        }
      ],
      "name": "RoleGranted",
      "type": "event"
    },
    {
      "anonymous": false,
      "inputs": [
        {
          "indexed": true,
          "internalType": "bytes32",
          "name": "role",
          "type": "bytes32"
        },
        {
          "indexed": true,
          "internalType": "address",
          "name": "account",
          "type": "address"
        },
        {
          "indexed": true,
          "internalType": "address",
          "name": "sender",
          "type": "address"
        }
      ],
      "name": "RoleRevoked",
      "type": "event"
    },
    {
      "anonymous": false,
      "inputs": [
        {
          "indexed": true,
          "internalType": "address",
          "name": "from",
          "type": "address"
        },
        {
          "indexed": true,
          "internalType": "address",
          "name": "to",
          "type": "address"
        },
        {
          "indexed": false,
          "internalType": "uint256",
          "name": "value",
          "type": "uint256"
        }
      ],
      "name": "Transfer",
      "type": "event"
    },
    {
      "inputs": [],
      "name": "BURNER_ROLE",
      "outputs": [
        {
          "internalType": "bytes32",
          "name": "",
          "type": "bytes32"
        }
      ],
      "stateMutability": "view",
      "type": "function"
    },
    {
      "inputs": [],
      "name": "DEFAULT_ADMIN_ROLE",
      "outputs": [
        {
          "internalType": "bytes32",
          "name": "",
          "type": "bytes32"
        }
      ],
      "stateMutability": "view",
      "type": "function"
    },
    {
      "inputs": [],
      "name": "MINTER_ROLE",
      "outputs": [
        {
          "internalType": "bytes32",
          "name": "",
          "type": "bytes32"
        }
      ],
      "stateMutability": "view",
      "type": "function"
    },
    {
      "inputs": [
        {
          "internalType": "address",
          "name": "owner",
          "type": "address"
        },
        {
          "internalType": "address",
          "name": "spender",
          "type": "address"
        }
      ],
      "name": "allowance",
      "outputs": [
        {
          "internalType": "uint256",
          "name": "",
          "type": "uint256"
        }
      ],
      "stateMutability": "view",
      "type": "function"
    },
    {
      "inputs": [
        {
          "internalType": "address",
          "name": "spender",
          "type": "address"
        },
        {
          "internalType": "uint256",
          "name": "amount",
          "type": "uint256"
        }
      ],
      "name": "approve",
      "outputs": [
        {
          "internalType": "bool",
          "name": "",
          "type": "bool"
        }
      ],
      "stateMutability": "nonpayable",
      "type": "function"
    },
    {
      "inputs": [
        {
          "internalType": "address",
          "name": "account",
          "type": "address"
        }
      ],
      "name": "balanceOf",
      "outputs": [
        {
          "internalType": "uint256",
          "name": "",
          "type": "uint256"
        }
      ],
      "stateMutability": "view",
      "type": "function"
    },
    {
      "inputs": [],
      "name": "decimals",
      "outputs": [
        {
          "internalType": "uint8",
          "name": "",
          "type": "uint8"
        }
      ],
      "stateMutability": "view",
      "type": "function"
    },
    {
      "inputs": [
        {
          "internalType": "address",
          "name": "spender",
          "type": "address"
        },
        {
          "internalType": "uint256",
          "name": "subtractedValue",
          "type": "uint256"
        }
      ],
      "name": "decreaseAllowance",
      "outputs": [
        {
          "internalType": "bool",
          "name": "",
          "type": "bool"
        }
      ],
      "stateMutability": "nonpayable",
      "type": "function"
    },
    {
      "inputs": [
        {
          "internalType": "bytes32",
          "name": "role",
          "type": "bytes32"
        }
      ],
      "name": "getRoleAdmin",
      "outputs": [
        {
          "internalType": "bytes32",
          "name": "",
          "type": "bytes32"
        }
      ],
      "stateMutability": "view",
      "type": "function"
    },
    {
      "inputs": [
        {
          "internalType": "bytes32",
          "name": "role",
          "type": "bytes32"
        },
        {
          "internalType": "uint256",
          "name": "index",
          "type": "uint256"
        }
      ],
      "name": "getRoleMember",
      "outputs": [
        {
          "internalType": "address",
          "name": "",
          "type": "address"
        }
      ],
      "stateMutability": "view",
      "type": "function"
    },
    {
      "inputs": [
        {
          "internalType": "bytes32",
          "name": "role",
          "type": "bytes32"
        }
      ],
      "name": "getRoleMemberCount",
      "outputs": [
        {
          "internalType": "uint256",
          "name": "",
          "type": "uint256"
        }
      ],
      "stateMutability": "view",
      "type": "function"
    },
    {
      "inputs": [
        {
          "internalType": "bytes32",
          "name": "role",
          "type": "bytes32"
        },
        {
          "internalType": "address",
          "name": "account",
          "type": "address"
        }
      ],
      "name": "grantRole",
      "outputs": [],
      "stateMutability": "nonpayable",
      "type": "function"
    },
    {
      "inputs": [
        {
          "internalType": "bytes32",
          "name": "role",
          "type": "bytes32"
        },
        {
          "internalType": "address",
          "name": "account",
          "type": "address"
        }
      ],
      "name": "hasRole",
      "outputs": [
        {
          "internalType": "bool",
          "name": "",
          "type": "bool"
        }
      ],
      "stateMutability": "view",
      "type": "function"
    },
    {
      "inputs": [
        {
          "internalType": "address",
          "name": "spender",
          "type": "address"
        },
        {
          "internalType": "uint256",
          "name": "addedValue",
          "type": "uint256"
        }
      ],
      "name": "increaseAllowance",
      "outputs": [
        {
          "internalType": "bool",
          "name": "",
          "type": "bool"
        }
      ],
      "stateMutability": "nonpayable",
      "type": "function"
    },
    {
      "inputs": [],
      "name": "name",
      "outputs": [
        {
          "internalType": "string",
          "name": "",
          "type": "string"
        }
      ],
      "stateMutability": "view",
      "type": "function"
    },
    {
      "inputs": [
        {
          "internalType": "bytes32",
          "name": "role",
          "type": "bytes32"
        },
        {
          "internalType": "address",
          "name": "account",
          "type": "address"
        }
      ],
      "name": "renounceRole",
      "outputs": [],
      "stateMutability": "nonpayable",
      "type": "function"
    },
    {
      "inputs": [
        {
          "internalType": "bytes32",
          "name": "role",
          "type": "bytes32"
        },
        {
          "internalType": "address",
          "name": "account",
          "type": "address"
        }
      ],
      "name": "revokeRole",
      "outputs": [],
      "stateMutability": "nonpayable",
      "type": "function"
    },
    {
      "inputs": [],
      "name": "symbol",
      "outputs": [
        {
          "internalType": "string",
          "name": "",
          "type": "string"
        }
      ],
      "stateMutability": "view",
      "type": "function"
    },
    {
      "inputs": [],
      "name": "totalSupply",
      "outputs": [
        {
          "internalType": "uint256",
          "name": "",
          "type": "uint256"
        }
      ],
      "stateMutability": "view",
      "type": "function"
    },
    {
      "inputs": [
        {
          "internalType": "address",
          "name": "recipient",
          "type": "address"
        },
        {
          "internalType": "uint256",
          "name": "amount",
          "type": "uint256"
        }
      ],
      "name": "transfer",
      "outputs": [
        {
          "internalType": "bool",
          "name": "",
          "type": "bool"
        }
      ],
      "stateMutability": "nonpayable",
      "type": "function"
    },
    {
      "inputs": [
        {
          "internalType": "address",
          "name": "sender",
          "type": "address"
        },
        {
          "internalType": "address",
          "name": "recipient",
          "type": "address"
        },
        {
          "internalType": "uint256",
          "name": "amount",
          "type": "uint256"
        }
      ],
      "name": "transferFrom",
      "outputs": [
        {
          "internalType": "bool",
          "name": "",
          "type": "bool"
        }
      ],
      "stateMutability": "nonpayable",
      "type": "function"
    },
    {
      "inputs": [
        {
          "internalType": "address",
          "name": "to",
          "type": "address"
        },
        {
          "internalType": "uint256",
          "name": "amount",
          "type": "uint256"
        }
      ],
      "name": "mint",
      "outputs": [],
      "stateMutability": "nonpayable",
      "type": "function"
    },
    {
      "inputs": [
        {
          "internalType": "address",
          "name": "from",
          "type": "address"
        },
        {
          "internalType": "uint256",
          "name": "amount",
          "type": "uint256"
        }
      ],
      "name": "burn",
      "outputs": [],
      "stateMutability": "nonpayable",
      "type": "function"
    }
  ],
  "bytecode": "0x60806040526a0422ca8b0a00a425000000600755600060085560006009556a0422ca8b0a00a425000000600a556a084595161401484a000000600b553480156200004857600080fd5b50604051806040016040528060048152602001632437b93760e11b815250604051806040016040528060048152602001632427a92760e11b81525081600390805190602001906200009b929190620003c6565b508051620000b1906004906020840190620003c6565b50506005805460ff19166012179055506007546008819055620000d690339062000141565b620000e360003362000250565b6200010f7f9f2df0fed2c77648de5860a4cc508cd0818c85b8b8a1ab4ceeef8d981c8956a63362000250565b6200013b7f3c11d16cbaffd01df69ce1c404f6340ee057498f5f00246190ea54220576a8483362000250565b62000462565b6001600160a01b0382166200019d576040805162461bcd60e51b815260206004820152601f60248201527f45524332303a206d696e7420746f20746865207a65726f206164647265737300604482015290519081900360640190fd5b620001ab6000838362000260565b620001c7816002546200026560201b62000ba21790919060201c565b6002556001600160a01b03821660009081526020818152604090912054620001fa91839062000ba262000265821b17901c565b6001600160a01b0383166000818152602081815260408083209490945583518581529351929391927fddf252ad1be2c89b69c2b068fc378daa952ba7f163c4a11628f55a4df523b3ef9281900390910190a35050565b6200025c8282620002c9565b5050565b505050565b600082820183811015620002c0576040805162461bcd60e51b815260206004820152601b60248201527f536166654d6174683a206164646974696f6e206f766572666c6f770000000000604482015290519081900360640190fd5b90505b92915050565b6000828152600660209081526040909120620002f091839062000bfc62000344821b17901c565b156200025c57620003006200035b565b6001600160a01b0316816001600160a01b0316837f2f8788117e7eff1d82e926ec794901d17c78024a50270940304540a733656f0d60405160405180910390a45050565b6000620002c0836001600160a01b0384166200035f565b3390565b60006200036d8383620003ae565b620003a557508154600181810184556000848152602080822090930184905584548482528286019093526040902091909155620002c3565b506000620002c3565b60009081526001919091016020526040902054151590565b828054600181600116156101000203166002900490600052602060002090601f016020900481019282601f106200040957805160ff191683800117855562000439565b8280016001018555821562000439579182015b82811115620004395782518255916020019190600101906200041c565b50620004479291506200044b565b5090565b5b808211156200044757600081556001016200044c565b6115f380620004726000396000f3fe608060405234801561001057600080fd5b506004361061018d5760003560e01c806370a08231116100e3578063a457c2d71161008c578063d539139311610066578063d5391393146104d6578063d547741f146104de578063dd62ed3e1461050a5761018d565b8063a457c2d714610461578063a9059cbb1461048d578063ca15c873146104b95761018d565b806395d89b41116100bd57806395d89b41146104255780639dc29fac1461042d578063a217fddf146104595761018d565b806370a08231146103945780639010d07c146103ba57806391d14854146103f95761018d565b8063282c51f31161014557806336568abe1161011f57806336568abe14610310578063395093511461033c57806340c10f19146103685761018d565b8063282c51f3146102bc5780632f2ff15d146102c4578063313ce567146102f25761018d565b806318160ddd1161017657806318160ddd1461024f57806323b872dd14610269578063248a9ca31461029f5761018d565b806306fdde0314610192578063095ea7b31461020f575b600080fd5b61019a610538565b6040805160208082528351818301528351919283929083019185019080838360005b838110156101d45781810151838201526020016101bc565b50505050905090810190601f1680156102015780820380516001836020036101000a031916815260200191505b509250505060405180910390f35b61023b6004803603604081101561022557600080fd5b506001600160a01b0381351690602001356105ce565b604080519115158252519081900360200190f35b6102576105ec565b60408051918252519081900360200190f35b61023b6004803603606081101561027f57600080fd5b506001600160a01b038135811691602081013590911690604001356105f2565b610257600480360360208110156102b557600080fd5b5035610679565b61025761068e565b6102f0600480360360408110156102da57600080fd5b50803590602001356001600160a01b03166106b2565b005b6102fa61071e565b6040805160ff9092168252519081900360200190f35b6102f06004803603604081101561032657600080fd5b50803590602001356001600160a01b0316610727565b61023b6004803603604081101561035257600080fd5b506001600160a01b038135169060200135610788565b6102f06004803603604081101561037e57600080fd5b506001600160a01b0381351690602001356107d6565b610257600480360360208110156103aa57600080fd5b50356001600160a01b0316610921565b6103dd600480360360408110156103d057600080fd5b508035906020013561093c565b604080516001600160a01b039092168252519081900360200190f35b61023b6004803603604081101561040f57600080fd5b50803590602001356001600160a01b031661095b565b61019a610973565b6102f06004803603604081101561044357600080fd5b506001600160a01b0381351690602001356109d4565b610257610a62565b61023b6004803603604081101561047757600080fd5b506001600160a01b038135169060200135610a67565b61023b600480360360408110156104a357600080fd5b506001600160a01b038135169060200135610acf565b610257600480360360208110156104cf57600080fd5b5035610ae3565b610257610afa565b6102f0600480360360408110156104f457600080fd5b50803590602001356001600160a01b0316610b1e565b6102576004803603604081101561052057600080fd5b506001600160a01b0381358116916020013516610b77565b60038054604080516020601f60026000196101006001881615020190951694909404938401819004810282018101909252828152606093909290918301828280156105c45780601f10610599576101008083540402835291602001916105c4565b820191906000526020600020905b8154815290600101906020018083116105a757829003601f168201915b5050505050905090565b60006105e26105db610c11565b8484610c15565b5060015b92915050565b60025490565b60006105ff848484610d01565b61066f8461060b610c11565b61066a856040518060600160405280602881526020016114d8602891396001600160a01b038a16600090815260016020526040812090610649610c11565b6001600160a01b031681526020810191909152604001600020549190610e5c565b610c15565b5060019392505050565b60009081526006602052604090206002015490565b7f3c11d16cbaffd01df69ce1c404f6340ee057498f5f00246190ea54220576a84881565b6000828152600660205260409020600201546106d5906106d0610c11565b61095b565b6107105760405162461bcd60e51b815260040180806020018281038252602f81526020018061140f602f913960400191505060405180910390fd5b61071a8282610ef3565b5050565b60055460ff1690565b61072f610c11565b6001600160a01b0316816001600160a01b03161461077e5760405162461bcd60e51b815260040180806020018281038252602f81526020018061158f602f913960400191505060405180910390fd5b61071a8282610f5c565b60006105e2610795610c11565b8461066a85600160006107a6610c11565b6001600160a01b03908116825260208083019390935260409182016000908120918c168152925290205490610ba2565b6108007f9f2df0fed2c77648de5860a4cc508cd0818c85b8b8a1ab4ceeef8d981c8956a63361095b565b610851576040805162461bcd60e51b815260206004820152601660248201527f43616c6c6572206973206e6f742061206d696e74657200000000000000000000604482015290519081900360640190fd5b600b54816008540111156108ac576040805162461bcd60e51b815260206004820152601660248201527f43616e2774206d696e74206d6f726520746f6b656e7300000000000000000000604482015290519081900360640190fd5b600a5481600954011115610907576040805162461bcd60e51b815260206004820152601660248201527f43616e2774206d696e74206d6f726520746f6b656e7300000000000000000000604482015290519081900360640190fd5b6008805482019055600980548201905561071a8282610fc5565b6001600160a01b031660009081526020819052604090205490565b600082815260066020526040812061095490836110b5565b9392505050565b600082815260066020526040812061095490836110c1565b60048054604080516020601f60026000196101006001881615020190951694909404938401819004810282018101909252828152606093909290918301828280156105c45780601f10610599576101008083540402835291602001916105c4565b6109fe7f3c11d16cbaffd01df69ce1c404f6340ee057498f5f00246190ea54220576a8483361095b565b610a4f576040805162461bcd60e51b815260206004820152601660248201527f43616c6c6572206973206e6f742061206275726e657200000000000000000000604482015290519081900360640190fd5b60088054829003905561071a82826110d6565b600081565b60006105e2610a74610c11565b8461066a8560405180606001604052806025815260200161156a6025913960016000610a9e610c11565b6001600160a01b03908116825260208083019390935260409182016000908120918d16815292529020549190610e5c565b60006105e2610adc610c11565b8484610d01565b60008181526006602052604081206105e6906111d2565b7f9f2df0fed2c77648de5860a4cc508cd0818c85b8b8a1ab4ceeef8d981c8956a681565b600082815260066020526040902060020154610b3c906106d0610c11565b61077e5760405162461bcd60e51b81526004018080602001828103825260308152602001806114a86030913960400191505060405180910390fd5b6001600160a01b03918216600090815260016020908152604080832093909416825291909152205490565b600082820183811015610954576040805162461bcd60e51b815260206004820152601b60248201527f536166654d6174683a206164646974696f6e206f766572666c6f770000000000604482015290519081900360640190fd5b6000610954836001600160a01b0384166111dd565b3390565b6001600160a01b038316610c5a5760405162461bcd60e51b81526004018080602001828103825260248152602001806115466024913960400191505060405180910390fd5b6001600160a01b038216610c9f5760405162461bcd60e51b81526004018080602001828103825260228152602001806114606022913960400191505060405180910390fd5b6001600160a01b03808416600081815260016020908152604080832094871680845294825291829020859055815185815291517f8c5be1e5ebec7d5bd14f71427d1e84f3dd0314c0f7b2291e5b200ac8c7c3b9259281900390910190a3505050565b6001600160a01b038316610d465760405162461bcd60e51b81526004018080602001828103825260258152602001806115216025913960400191505060405180910390fd5b6001600160a01b038216610d8b5760405162461bcd60e51b81526004018080602001828103825260238152602001806113ec6023913960400191505060405180910390fd5b610d96838383611227565b610dd381604051806060016040528060268152602001611482602691396001600160a01b0386166000908152602081905260409020549190610e5c565b6001600160a01b038085166000908152602081905260408082209390935590841681522054610e029082610ba2565b6001600160a01b038084166000818152602081815260409182902094909455805185815290519193928716927fddf252ad1be2c89b69c2b068fc378daa952ba7f163c4a11628f55a4df523b3ef92918290030190a3505050565b60008184841115610eeb5760405162461bcd60e51b81526004018080602001828103825283818151815260200191508051906020019080838360005b83811015610eb0578181015183820152602001610e98565b50505050905090810190601f168015610edd5780820380516001836020036101000a031916815260200191505b509250505060405180910390fd5b505050900390565b6000828152600660205260409020610f0b9082610bfc565b1561071a57610f18610c11565b6001600160a01b0316816001600160a01b0316837f2f8788117e7eff1d82e926ec794901d17c78024a50270940304540a733656f0d60405160405180910390a45050565b6000828152600660205260409020610f74908261122c565b1561071a57610f81610c11565b6001600160a01b0316816001600160a01b0316837ff6391f5c32d9c69d2a47ea670b442974b53935d1edc7fd64eb21e047a839171b60405160405180910390a45050565b6001600160a01b038216611020576040805162461bcd60e51b815260206004820152601f60248201527f45524332303a206d696e7420746f20746865207a65726f206164647265737300604482015290519081900360640190fd5b61102c60008383611227565b6002546110399082610ba2565b6002556001600160a01b03821660009081526020819052604090205461105f9082610ba2565b6001600160a01b0383166000818152602081815260408083209490945583518581529351929391927fddf252ad1be2c89b69c2b068fc378daa952ba7f163c4a11628f55a4df523b3ef9281900390910190a35050565b60006109548383611241565b6000610954836001600160a01b0384166112a5565b6001600160a01b03821661111b5760405162461bcd60e51b81526004018080602001828103825260218152602001806115006021913960400191505060405180910390fd5b61112782600083611227565b6111648160405180606001604052806022815260200161143e602291396001600160a01b0385166000908152602081905260409020549190610e5c565b6001600160a01b03831660009081526020819052604090205560025461118a90826112bd565b6002556040805182815290516000916001600160a01b038516917fddf252ad1be2c89b69c2b068fc378daa952ba7f163c4a11628f55a4df523b3ef9181900360200190a35050565b60006105e6826112ff565b60006111e983836112a5565b61121f575081546001818101845560008481526020808220909301849055845484825282860190935260409020919091556105e6565b5060006105e6565b505050565b6000610954836001600160a01b038416611303565b815460009082106112835760405162461bcd60e51b81526004018080602001828103825260228152602001806113ca6022913960400191505060405180910390fd5b82600001828154811061129257fe5b9060005260206000200154905092915050565b60009081526001919091016020526040902054151590565b600061095483836040518060400160405280601e81526020017f536166654d6174683a207375627472616374696f6e206f766572666c6f770000815250610e5c565b5490565b600081815260018301602052604081205480156113bf578354600019808301919081019060009087908390811061133657fe5b906000526020600020015490508087600001848154811061135357fe5b60009182526020808320909101929092558281526001898101909252604090209084019055865487908061138357fe5b600190038181906000526020600020016000905590558660010160008781526020019081526020016000206000905560019450505050506105e6565b60009150506105e656fe456e756d657261626c655365743a20696e646578206f7574206f6620626f756e647345524332303a207472616e7366657220746f20746865207a65726f2061646472657373416363657373436f6e74726f6c3a2073656e646572206d75737420626520616e2061646d696e20746f206772616e7445524332303a206275726e20616d6f756e7420657863656564732062616c616e636545524332303a20617070726f766520746f20746865207a65726f206164647265737345524332303a207472616e7366657220616d6f756e7420657863656564732062616c616e6365416363657373436f6e74726f6c3a2073656e646572206d75737420626520616e2061646d696e20746f207265766f6b6545524332303a207472616e7366657220616d6f756e74206578636565647320616c6c6f77616e636545524332303a206275726e2066726f6d20746865207a65726f206164647265737345524332303a207472616e736665722066726f6d20746865207a65726f206164647265737345524332303a20617070726f76652066726f6d20746865207a65726f206164647265737345524332303a2064656372656173656420616c6c6f77616e63652062656c6f77207a65726f416363657373436f6e74726f6c3a2063616e206f6e6c792072656e6f756e636520726f6c657320666f722073656c66a264697066735822122002124ad46c69da4c9512af466358b5d2bf20e01a4bd9d4e43e40063b89e3acb664736f6c63430007000033",
  "immutableReferences": {},
  "source": "// SPDX-License-Identifier: UNLICENSED\r\n\r\npragma solidity ^0.7.0;\r\n\r\nimport \"@openzeppelin/contracts/access/AccessControl.sol\";\r\nimport \"@openzeppelin/contracts/token/ERC20/ERC20.sol\";\r\n\r\ncontract HornToken is ERC20, AccessControl {\r\n    bytes32 public constant MINTER_ROLE = keccak256(\"MINTER_ROLE\");\r\n    bytes32 public constant BURNER_ROLE = keccak256(\"BURNER_ROLE\");\r\n\r\n    uint256 private _initialSupply = 5000000 * 10 ** 18;\r\n    uint256 private _totalSupply = 0;\r\n    uint256 private _alreadyMinted = 0;\r\n    uint256 private _maxMintAmount = 5000000 * 10 ** 18;\r\n    uint256 private _maxSupply = 10000000 * 10 ** 18;\r\n\r\n    constructor() ERC20(\"Horn\", \"HORN\") {\r\n        _totalSupply = _initialSupply;\r\n        _mint(msg.sender, _initialSupply);\r\n        _setupRole(DEFAULT_ADMIN_ROLE, msg.sender);\r\n        _setupRole(MINTER_ROLE, msg.sender);\r\n        _setupRole(BURNER_ROLE, msg.sender);\r\n    }\r\n\r\n    function mint(address to, uint256 amount) public {\r\n        require(hasRole(MINTER_ROLE, msg.sender), \"Caller is not a minter\");\r\n        require(_totalSupply + amount <= _maxSupply, \"Can't mint more tokens\");\r\n        require(_alreadyMinted + amount <= _maxMintAmount, \"Can't mint more tokens\");\r\n        _totalSupply += amount;\r\n        _alreadyMinted += amount;\r\n        _mint(to, amount);\r\n    }\r\n\r\n    function burn(address from, uint256 amount) public {\r\n        require(hasRole(BURNER_ROLE, msg.sender), \"Caller is not a burner\");\r\n        _totalSupply -= amount;\r\n        _burn(from, amount);\r\n    }\r\n}",
  "sourcePath": "D:\\Development\\horn\\horn-token\\contracts\\HornToken.sol",
  "compiler": {
    "name": "solc",
    "version": "0.7.0+commit.9e61f92b.Emscripten.clang"
  },
  "schemaVersion": "3.3.2",
  "updatedAt": "2021-01-07T18:19:18.445Z",
  "networkType": "ethereum",
  "devdoc": {
    "kind": "dev",
    "methods": {
      "allowance(address,address)": {
        "details": "See {IERC20-allowance}."
      },
      "approve(address,uint256)": {
        "details": "See {IERC20-approve}. Requirements: - `spender` cannot be the zero address."
      },
      "balanceOf(address)": {
        "details": "See {IERC20-balanceOf}."
      },
      "decimals()": {
        "details": "Returns the number of decimals used to get its user representation. For example, if `decimals` equals `2`, a balance of `505` tokens should be displayed to a user as `5,05` (`505 / 10 ** 2`). Tokens usually opt for a value of 18, imitating the relationship between Ether and Wei. This is the value {ERC20} uses, unless {_setupDecimals} is called. NOTE: This information is only used for _display_ purposes: it in no way affects any of the arithmetic of the contract, including {IERC20-balanceOf} and {IERC20-transfer}."
      },
      "decreaseAllowance(address,uint256)": {
        "details": "Atomically decreases the allowance granted to `spender` by the caller. This is an alternative to {approve} that can be used as a mitigation for problems described in {IERC20-approve}. Emits an {Approval} event indicating the updated allowance. Requirements: - `spender` cannot be the zero address. - `spender` must have allowance for the caller of at least `subtractedValue`."
      },
      "getRoleAdmin(bytes32)": {
        "details": "Returns the admin role that controls `role`. See {grantRole} and {revokeRole}. To change a role's admin, use {_setRoleAdmin}."
      },
      "getRoleMember(bytes32,uint256)": {
        "details": "Returns one of the accounts that have `role`. `index` must be a value between 0 and {getRoleMemberCount}, non-inclusive. Role bearers are not sorted in any particular way, and their ordering may change at any point. WARNING: When using {getRoleMember} and {getRoleMemberCount}, make sure you perform all queries on the same block. See the following https://forum.openzeppelin.com/t/iterating-over-elements-on-enumerableset-in-openzeppelin-contracts/2296[forum post] for more information."
      },
      "getRoleMemberCount(bytes32)": {
        "details": "Returns the number of accounts that have `role`. Can be used together with {getRoleMember} to enumerate all bearers of a role."
      },
      "grantRole(bytes32,address)": {
        "details": "Grants `role` to `account`. If `account` had not been already granted `role`, emits a {RoleGranted} event. Requirements: - the caller must have ``role``'s admin role."
      },
      "hasRole(bytes32,address)": {
        "details": "Returns `true` if `account` has been granted `role`."
      },
      "increaseAllowance(address,uint256)": {
        "details": "Atomically increases the allowance granted to `spender` by the caller. This is an alternative to {approve} that can be used as a mitigation for problems described in {IERC20-approve}. Emits an {Approval} event indicating the updated allowance. Requirements: - `spender` cannot be the zero address."
      },
      "name()": {
        "details": "Returns the name of the token."
      },
      "renounceRole(bytes32,address)": {
        "details": "Revokes `role` from the calling account. Roles are often managed via {grantRole} and {revokeRole}: this function's purpose is to provide a mechanism for accounts to lose their privileges if they are compromised (such as when a trusted device is misplaced). If the calling account had been granted `role`, emits a {RoleRevoked} event. Requirements: - the caller must be `account`."
      },
      "revokeRole(bytes32,address)": {
        "details": "Revokes `role` from `account`. If `account` had been granted `role`, emits a {RoleRevoked} event. Requirements: - the caller must have ``role``'s admin role."
      },
      "symbol()": {
        "details": "Returns the symbol of the token, usually a shorter version of the name."
      },
      "totalSupply()": {
        "details": "See {IERC20-totalSupply}."
      },
      "transfer(address,uint256)": {
        "details": "See {IERC20-transfer}. Requirements: - `recipient` cannot be the zero address. - the caller must have a balance of at least `amount`."
      },
      "transferFrom(address,address,uint256)": {
        "details": "See {IERC20-transferFrom}. Emits an {Approval} event indicating the updated allowance. This is not required by the EIP. See the note at the beginning of {ERC20}. Requirements: - `sender` and `recipient` cannot be the zero address. - `sender` must have a balance of at least `amount`. - the caller must have allowance for ``sender``'s tokens of at least `amount`."
      }
    },
    "version": 1
  },
  "userdoc": {
    "kind": "user",
    "methods": {},
    "version": 1
  }
}