{
  "contractName": "HornPreSale",
  "abi": [
    {
      "inputs": [
        {
          "internalType": "address",
          "name": "hornTokenAddr",
          "type": "address"
        },
        {
          "internalType": "uint256",
          "name": "maxHornForPresale",
          "type": "uint256"
        },
        {
          "internalType": "address",
          "name": "wethTokenAddress",
          "type": "address"
        },
        {
          "internalType": "uint256",
          "name": "hornPerEther",
          "type": "uint256"
        }
      ],
      "stateMutability": "nonpayable",
      "type": "constructor"
    },
    {
      "inputs": [],
      "name": "_hornPerEther",
      "outputs": [
        {
          "internalType": "uint256",
          "name": "",
          "type": "uint256"
        }
      ],
      "stateMutability": "view",
      "type": "function",
      "constant": true
    },
    {
      "inputs": [],
      "name": "_hornSolded",
      "outputs": [
        {
          "internalType": "uint256",
          "name": "",
          "type": "uint256"
        }
      ],
      "stateMutability": "view",
      "type": "function",
      "constant": true
    },
    {
      "inputs": [],
      "name": "_maxHornForPresale",
      "outputs": [
        {
          "internalType": "uint256",
          "name": "",
          "type": "uint256"
        }
      ],
      "stateMutability": "view",
      "type": "function",
      "constant": true
    },
    {
      "inputs": [],
      "name": "_paused",
      "outputs": [
        {
          "internalType": "bool",
          "name": "",
          "type": "bool"
        }
      ],
      "stateMutability": "view",
      "type": "function",
      "constant": true
    },
    {
      "stateMutability": "payable",
      "type": "receive",
      "payable": true
    },
    {
      "inputs": [
        {
          "internalType": "uint256",
          "name": "value",
          "type": "uint256"
        }
      ],
      "name": "setMaxHornForPresale",
      "outputs": [],
      "stateMutability": "payable",
      "type": "function",
      "payable": true
    },
    {
      "inputs": [
        {
          "internalType": "uint256",
          "name": "value",
          "type": "uint256"
        }
      ],
      "name": "setHornPerEther",
      "outputs": [],
      "stateMutability": "payable",
      "type": "function",
      "payable": true
    },
    {
      "inputs": [
        {
          "internalType": "bool",
          "name": "value",
          "type": "bool"
        }
      ],
      "name": "setPaused",
      "outputs": [],
      "stateMutability": "payable",
      "type": "function",
      "payable": true
    },
    {
      "inputs": [],
      "name": "withdraw",
      "outputs": [],
      "stateMutability": "payable",
      "type": "function",
      "payable": true
    },
    {
      "inputs": [
        {
          "internalType": "uint256",
          "name": "_amount",
          "type": "uint256"
        }
      ],
      "name": "transferToken",
      "outputs": [],
      "stateMutability": "payable",
      "type": "function",
      "payable": true
    }
  ],
  "bytecode": "0x608060405269010f0cf064dd592000006000556003805460ff1916905534801561002857600080fd5b50604051610a8f380380610a8f8339818101604052608081101561004b57600080fd5b50805160208201516040830151606090930151600380546101003302610100600160a81b03199091161790556000600281905555600580546001600160a01b039485166001600160a01b031991821617909155600191909155600480549390921692169190911790556109cc806100c36000396000f3fe60806040526004361061009a5760003560e01c80635cb8b52211610069578063b326baa31161004e578063b326baa3146101b9578063c88e4d7d146101d6578063cffec3b7146101eb57610103565b80635cb8b522146101755780639fc71b311461019c57610103565b806316c38b3c1461010857806316c61ccc146101275780632913fb40146101505780633ccfd60b1461016d57610103565b366101035760035460ff16156100f7576040805162461bcd60e51b815260206004820152601160248201527f50726573616c6520697320706175736564000000000000000000000000000000604482015290519081900360640190fd5b6101013433610200565b005b600080fd5b6101016004803603602081101561011e57600080fd5b503515156103bd565b34801561013357600080fd5b5061013c61041e565b604080519115158252519081900360200190f35b6101016004803603602081101561016657600080fd5b5035610427565b61010161047a565b34801561018157600080fd5b5061018a610627565b60408051918252519081900360200190f35b610101600480360360208110156101b257600080fd5b503561062d565b610101600480360360208110156101cf57600080fd5b5035610894565b3480156101e257600080fd5b5061018a6108e7565b3480156101f757600080fd5b5061018a6108ed565b600054600154600254918402918201111561024c5760405162461bcd60e51b815260040180806020018281038252603c81526020018061095b603c913960400191505060405180910390fd5b60048054604080517f40c10f19000000000000000000000000000000000000000000000000000000008152309381019390935260248301849052516001600160a01b03909116916340c10f1991604480830192600092919082900301818387803b1580156102b957600080fd5b505af11580156102cd573d6000803e3d6000fd5b50506002805484019055505060048054604080517fa9059cbb0000000000000000000000000000000000000000000000000000000081526001600160a01b0386811694820194909452602481018590529051929091169163a9059cbb916044808201926020929091908290030181600087803b15801561034c57600080fd5b505af1158015610360573d6000803e3d6000fd5b505050506040513d602081101561037657600080fd5b505115156001146103b85760405162461bcd60e51b81526004018080602001828103825260228152602001806108f46022913960400191505060405180910390fd5b505050565b60035461010090046001600160a01b0316331461040b5760405162461bcd60e51b815260040180806020018281038252602181526020018061093a6021913960400191505060405180910390fd5b6003805460ff1916911515919091179055565b60035460ff1681565b60035461010090046001600160a01b031633146104755760405162461bcd60e51b815260040180806020018281038252602181526020018061093a6021913960400191505060405180910390fd5b600155565b60035461010090046001600160a01b031633146104c85760405162461bcd60e51b815260040180806020018281038252602181526020018061093a6021913960400191505060405180910390fd5b600554604080517f70a0823100000000000000000000000000000000000000000000000000000000815230600482015290516001600160a01b0390921691829163a9059cbb91339184916370a0823191602480820192602092909190829003018186803b15801561053857600080fd5b505afa15801561054c573d6000803e3d6000fd5b505050506040513d602081101561056257600080fd5b5051604080517fffffffff0000000000000000000000000000000000000000000000000000000060e086901b1681526001600160a01b03909316600484015260248301919091525160448083019260209291908290030181600087803b1580156105cb57600080fd5b505af11580156105df573d6000803e3d6000fd5b505050506040513d60208110156105f557600080fd5b505060405133904780156108fc02916000818181858888f19350505050158015610623573d6000803e3d6000fd5b5050565b60015481565b60035460ff1615610685576040805162461bcd60e51b815260206004820152601160248201527f50726573616c6520697320706175736564000000000000000000000000000000604482015290519081900360640190fd5b6005546001600160a01b0316816106e3576040805162461bcd60e51b815260206004820152600e60248201527f496e76616c696420616d6f756e74000000000000000000000000000000000000604482015290519081900360640190fd5b81816001600160a01b03166370a08231336040518263ffffffff1660e01b815260040180826001600160a01b0316815260200191505060206040518083038186803b15801561073157600080fd5b505afa158015610745573d6000803e3d6000fd5b505050506040513d602081101561075b57600080fd5b505110156107b0576040805162461bcd60e51b815260206004820152601760248201527f4e6f205745544820616d6f756e74207265717569726564000000000000000000604482015290519081900360640190fd5b604080517f23b872dd0000000000000000000000000000000000000000000000000000000081523360048201523060248201526044810184905290516001600160a01b038316916323b872dd9160648083019260209291908290030181600087803b15801561081e57600080fd5b505af1158015610832573d6000803e3d6000fd5b505050506040513d602081101561084857600080fd5b5051151560011461088a5760405162461bcd60e51b81526004018080602001828103825260248152602001806109166024913960400191505060405180910390fd5b6106238233610200565b60035461010090046001600160a01b031633146108e25760405162461bcd60e51b815260040180806020018281038252602181526020018061093a6021913960400191505060405180910390fd5b600055565b60005481565b6002548156fe4572726f72207472616e7366657246726f6d206f6e2074686520636f6e747261637443616e2774207472616e73666572742057455448206f6e2074686520636f6e74726163744f6e6c7920746865206f776e65722063616e20646f207468697320616374696f6e546865206c696d6974206f66207468652070726573616c6520686173206265656e20726561636865642c2074727920627579206c65737320686f726ea2646970667358221220970255c705d5d26cbcf4e8c568d212e59b10b0da3a539bd198b35cb836bf526264736f6c63430007000033",
  "immutableReferences": {},
  "source": "// SPDX-License-Identifier: UNLICENSED\r\n\r\npragma solidity ^0.7.0;\r\n\r\nimport \"./HornLockVault_v2.sol\";\r\nimport \"./HornToken.sol\";\r\nimport \"./interfaces/IExtendedERC20.sol\";\r\n\r\ncontract HornPreSale {\r\n    uint256 public _hornPerEther = 5000000000000000000000;\r\n    uint256 public _maxHornForPresale;\r\n    uint256 public _hornSolded;\r\n    bool public _paused = false;\r\n    address private _owner;\r\n    IExtendedERC20 private _hornToken;\r\n\r\n    address internal _wethTokenAddress;\r\n\r\n    constructor(address hornTokenAddr, uint256 maxHornForPresale, address wethTokenAddress, uint256 hornPerEther) {\r\n        _owner = msg.sender;\r\n        _hornSolded = 0;\r\n        _hornPerEther = hornPerEther;\r\n        _wethTokenAddress = wethTokenAddress;\r\n        _maxHornForPresale = maxHornForPresale;\r\n        _hornToken = IExtendedERC20(hornTokenAddr);\r\n    }\r\n\r\n    modifier onlyOwner() {\r\n        require(msg.sender == _owner, \"Only the owner can do this action\");\r\n        _;\r\n    }\r\n\r\n    function setMaxHornForPresale(uint256 value) public payable onlyOwner {\r\n        _maxHornForPresale = value;\r\n    }\r\n\r\n    function setHornPerEther(uint256 value) public payable onlyOwner {\r\n        _hornPerEther = value;\r\n    }\r\n\r\n    function setPaused(bool value) public payable onlyOwner {\r\n        _paused = value;\r\n    }\r\n    \r\n    function withdraw() public payable onlyOwner {\r\n        IERC20 wethToken = IERC20(_wethTokenAddress);\r\n        wethToken.transfer(msg.sender, wethToken.balanceOf(address(this)));\r\n        msg.sender.transfer(address(this).balance);\r\n    }\r\n\r\n    receive() external payable {\r\n        require(_paused == false, \"Presale is paused\");\r\n        _mintAndTransferHorn(msg.value, msg.sender);\r\n    }\r\n\r\n    function transferToken(uint256 _amount) public payable {\r\n        require(_paused == false, \"Presale is paused\");\r\n        IERC20 token = IERC20(_wethTokenAddress);\r\n\r\n        // Remove wether from the sender\r\n        require(\r\n            _amount > 0,\r\n            \"Invalid amount\"\r\n        );\r\n        require(\r\n            token.balanceOf(msg.sender) >= _amount,\r\n            \"No WETH amount required\"\r\n        );\r\n        require(\r\n            token.transferFrom(msg.sender, address(this), _amount) == true,\r\n            \"Can't transfert WETH on the contract\"\r\n        );\r\n\r\n        _mintAndTransferHorn(_amount, msg.sender);\r\n    }\r\n\r\n    function _mintAndTransferHorn(uint256 inAmount, address sender) internal {\r\n        uint256 hornAmount = inAmount * _hornPerEther;\r\n        require(_hornSolded + hornAmount <= _maxHornForPresale, \"The limit of the presale has been reached, try buy less horn\");\r\n        _hornToken.mint(address(this), hornAmount);\r\n        _hornSolded = _hornSolded + hornAmount;\r\n        require(\r\n            _hornToken.transfer(sender, hornAmount) == true,\r\n            \"Error transferFrom on the contract\"\r\n        );\r\n    }\r\n}\r\n",
  "sourcePath": "D:/Development/horn/horn-token/contracts/HornPreSale.sol",
  "compiler": {
    "name": "solc",
    "version": "0.7.0+commit.9e61f92b.Emscripten.clang"
  },
  "schemaVersion": "3.3.2",
  "updatedAt": "2021-01-15T21:49:23.718Z",
  "networkType": "ethereum",
  "devdoc": {
    "kind": "dev",
    "methods": {},
    "version": 1
  },
  "userdoc": {
    "kind": "user",
    "methods": {},
    "version": 1
  }
}