{
  "contractName": "UnifiedHornVault",
  "abi": [
    {
      "inputs": [
        {
          "internalType": "address",
          "name": "hornTokenAddr",
          "type": "address"
        }
      ],
      "stateMutability": "nonpayable",
      "type": "constructor"
    },
    {
      "inputs": [
        {
          "internalType": "uint256",
          "name": "",
          "type": "uint256"
        }
      ],
      "name": "vaultIndexes",
      "outputs": [
        {
          "internalType": "address",
          "name": "",
          "type": "address"
        }
      ],
      "stateMutability": "view",
      "type": "function"
    },
    {
      "inputs": [],
      "name": "fetchIndexes",
      "outputs": [
        {
          "internalType": "address[]",
          "name": "",
          "type": "address[]"
        }
      ],
      "stateMutability": "view",
      "type": "function"
    },
    {
      "inputs": [
        {
          "internalType": "address",
          "name": "lockedTokenAddr",
          "type": "address"
        },
        {
          "internalType": "address",
          "name": "hornTokenAddr",
          "type": "address"
        },
        {
          "internalType": "uint128",
          "name": "fee",
          "type": "uint128"
        },
        {
          "internalType": "uint128",
          "name": "depositRewardFee",
          "type": "uint128"
        },
        {
          "internalType": "uint256",
          "name": "hornPerDay",
          "type": "uint256"
        },
        {
          "internalType": "uint256",
          "name": "minLockDays",
          "type": "uint256"
        },
        {
          "internalType": "uint256",
          "name": "weightPerHorn",
          "type": "uint256"
        }
      ],
      "name": "addPool",
      "outputs": [
        {
          "internalType": "address",
          "name": "",
          "type": "address"
        }
      ],
      "stateMutability": "payable",
      "type": "function"
    },
    {
      "inputs": [
        {
          "internalType": "address",
          "name": "addr",
          "type": "address"
        }
      ],
      "name": "addExistingPool",
      "outputs": [
        {
          "internalType": "address",
          "name": "",
          "type": "address"
        }
      ],
      "stateMutability": "payable",
      "type": "function"
    },
    {
      "inputs": [
        {
          "internalType": "address",
          "name": "addr",
          "type": "address"
        }
      ],
      "name": "removePool",
      "outputs": [],
      "stateMutability": "payable",
      "type": "function"
    }
  ],
  "bytecode": "0x608060405234801561001057600080fd5b50604051613d0c380380613d0c8339818101604052602081101561003357600080fd5b5051600080546001600160a01b03199081163317909155600180546001600160a01b0390931692821683179055600280549091169091179055613c918061007b6000396000f3fe608060405260043610620000625760003560e01c8063b4ec66581162000049578063b4ec665814620000d7578063e41a18471462000105578063eca6dc62146200016c5762000062565b80633b7d09461462000067578063a9a01f0d1462000092575b600080fd5b62000090600480360360208110156200007f57600080fd5b50356001600160a01b0316620001d6565b005b620000bb60048036036020811015620000aa57600080fd5b50356001600160a01b0316620003ae565b604080516001600160a01b039092168252519081900360200190f35b348015620000e457600080fd5b50620000bb60048036036020811015620000fd57600080fd5b503562000456565b620000bb600480360360e08110156200011d57600080fd5b506001600160a01b0381358116916020810135909116906fffffffffffffffffffffffffffffffff604082013581169160608101359091169060808101359060a08101359060c001356200047e565b3480156200017957600080fd5b50620001846200089a565b60408051602080825283518183015283519192839290830191858101910280838360005b83811015620001c2578181015183820152602001620001a8565b505050509050019250505060405180910390f35b6000546001600160a01b03163314620002215760405162461bcd60e51b815260040180806020018281038252602181526020018062003c3b6021913960400191505060405180910390fd5b6000819050806001600160a01b031663bfe22a0160006040518263ffffffff1660e01b8152600401808215158152602001915050602060405180830381600087803b1580156200027057600080fd5b505af115801562000285573d6000803e3d6000fd5b505050506040513d60208110156200029c57600080fd5b50506003546060906000190167ffffffffffffffff81118015620002bf57600080fd5b50604051908082528060200260200182016040528015620002ea578160200160208202803683370190505b5090506000805b6003548110156200039157846001600160a01b0316600382815481106200031457fe5b6000918252602090912001546001600160a01b0316146200038857600381815481106200033d57fe5b600091825260209091200154835160018401936001600160a01b0390921691859181106200036757fe5b60200260200101906001600160a01b031690816001600160a01b0316815250505b600101620002f1565b508151620003a790600390602085019062000955565b5050505050565b600080546001600160a01b03163314620003fa5760405162461bcd60e51b815260040180806020018281038252602181526020018062003c3b6021913960400191505060405180910390fd5b50600380546001810182556000919091527fc2575a0e9e593c00f959f8c92f12db2869c3395a3b0502d05e2516446f71f85b01805473ffffffffffffffffffffffffffffffffffffffff19166001600160a01b03831617905590565b600381815481106200046457fe5b6000918252602090912001546001600160a01b0316905081565b600080546001600160a01b03163314620004ca5760405162461bcd60e51b815260040180806020018281038252602181526020018062003c3b6021913960400191505060405180910390fd5b60003389898989898989604051620004e290620009cc565b80896001600160a01b03168152602001886001600160a01b03168152602001876001600160a01b03168152602001866fffffffffffffffffffffffffffffffff168152602001856fffffffffffffffffffffffffffffffff16815260200184815260200183815260200182815260200198505050505050505050604051809103906000f08015801562000579573d6000803e3d6000fd5b50600254604080517fd539139300000000000000000000000000000000000000000000000000000000815290519293506001600160a01b0390911691632f2ff15d91839163d539139391600480820192602092909190829003018186803b158015620005e457600080fd5b505afa158015620005f9573d6000803e3d6000fd5b505050506040513d60208110156200061057600080fd5b5051604080517fffffffff0000000000000000000000000000000000000000000000000000000060e085901b16815260048101929092526001600160a01b038516602483015251604480830192600092919082900301818387803b1580156200067857600080fd5b505af11580156200068d573d6000803e3d6000fd5b5050600254604080517f282c51f300000000000000000000000000000000000000000000000000000000815290516001600160a01b039092169350632f2ff15d9250839163282c51f391600480820192602092909190829003018186803b158015620006f857600080fd5b505afa1580156200070d573d6000803e3d6000fd5b505050506040513d60208110156200072457600080fd5b5051604080517fffffffff0000000000000000000000000000000000000000000000000000000060e085901b16815260048101929092526001600160a01b038516602483015251604480830192600092919082900301818387803b1580156200078c57600080fd5b505af1158015620007a1573d6000803e3d6000fd5b5050604080517fbfe22a010000000000000000000000000000000000000000000000000000000081526001600482015290516001600160a01b038516935063bfe22a01925060248083019260209291908290030181600087803b1580156200080857600080fd5b505af11580156200081d573d6000803e3d6000fd5b505050506040513d60208110156200083457600080fd5b5050600380546001810182556000919091527fc2575a0e9e593c00f959f8c92f12db2869c3395a3b0502d05e2516446f71f85b01805473ffffffffffffffffffffffffffffffffffffffff19166001600160a01b03831617905598975050505050505050565b600354606090819067ffffffffffffffff81118015620008b957600080fd5b50604051908082528060200260200182016040528015620008e4578160200160208202803683370190505b50905060005b6003548110156200094f57600381815481106200090357fe5b9060005260206000200160009054906101000a90046001600160a01b03168282815181106200092e57fe5b6001600160a01b0390921660209283029190910190910152600101620008ea565b50905090565b828054828255906000526020600020908101928215620009ba579160200282015b82811115620009ba578251825473ffffffffffffffffffffffffffffffffffffffff19166001600160a01b0390911617825560209092019160019091019062000976565b50620009c8929150620009da565b5090565b6132328062000a0983390190565b5b80821115620009c857805473ffffffffffffffffffffffffffffffffffffffff19168155600101620009db56fe60806040526006805460ff191660011790556000600e55600f805461ffff191690553480156200002e57600080fd5b50604051620032323803806200323283398181016040526101008110156200005557600080fd5b50805160208201516040808401516060850151608086015160a087015160c088015160e09098015160068054610100600160a81b0319166101003302179055600780546001600160a01b03199081166001600160a01b03808c1691909117909255601080548216838b16908117909155600f805462010000600160b01b031916620100009283021790819055601280548416858b16908117909155601180549094161790925588516395d89b4160e01b815298519a9b999a97999698959794969593949104909116916395d89b41916004808301926000929190829003018186803b1580156200014457600080fd5b505afa15801562000159573d6000803e3d6000fd5b505050506040513d6000823e601f3d908101601f1916820160405260208110156200018357600080fd5b8101908080516040519392919084640100000000821115620001a457600080fd5b908301906020820185811115620001ba57600080fd5b8251640100000000811182820188101715620001d557600080fd5b82525081516020918201929091019080838360005b8381101562000204578181015183820152602001620001ea565b50505050905090810190601f168015620002325780820380516001836020036101000a031916815260200191505b50604052505081516200024d926008925060200190620002c9565b50600980546001600160801b03958616600160801b029686166001600160801b03199091161790941694909417909255600a55600c55600d55505060408051608081018252600080825260208201819052918101829052600e546060909101819052600282905560038290556004919091556005555062000365565b828054600181600116156101000203166002900490600052602060002090601f016020900481019282601f106200030c57805160ff19168380011785556200033c565b828001600101855582156200033c579182015b828111156200033c5782518255916020019190600101906200031f565b506200034a9291506200034e565b5090565b5b808211156200034a57600081556001016200034f565b612ebd80620003756000396000f3fe6080604052600436106101fe5760003560e01c8063849bea631161011d578063b2bdfa7b116100b0578063cdb88ad11161007f578063d5a5aa4911610064578063d5a5aa49146106c1578063e2684f08146106d6578063fab980b7146106eb576101fe565b8063cdb88ad11461068d578063d0717be5146106ac576101fe565b8063b2bdfa7b1461062f578063bfe22a0114610644578063c5b37c2214610663578063cd3293de14610678576101fe565b80639ab804e4116100ec5780639ab804e4146105985780639c3ee244146105ad578063a92d07af146105e0578063ac4892b71461061a576101fe565b8063849bea63146105515780638a5b3d71146105665780638ec89e4f1461057b5780639000ddaa14610590576101fe565b806342966c6811610195578063681ba71511610164578063681ba7151461048e5780636e553f65146104c157806370a08231146104ed578063733d894514610520576101fe565b806342966c6814610419578063476343ee146104365780634f4c74d51461044057806367aac72314610455576101fe565b8063274fc72a116101d1578063274fc72a1461033e5780633ccfd60b146103535780633e72058d1461036f57806340f644fc146103fa576101fe565b806302bfd4a31461020357806306fdde03146102485780630e70a4e9146102d25780631a6da39214610305575b600080fd5b34801561020f57600080fd5b506102366004803603602081101561022657600080fd5b50356001600160a01b0316610700565b60408051918252519081900360200190f35b34801561025457600080fd5b5061025d61080c565b6040805160208082528351818301528351919283929083019185019080838360005b8381101561029757818101518382015260200161027f565b50505050905090810190601f1680156102c45780820380516001836020036101000a031916815260200191505b509250505060405180910390f35b3480156102de57600080fd5b50610236600480360360208110156102f557600080fd5b50356001600160a01b03166108a2565b34801561031157600080fd5b506102366004803603604081101561032857600080fd5b506001600160a01b038135169060200135610959565b34801561034a57600080fd5b50610236610b57565b61035b610bfa565b604080519115158252519081900360200190f35b34801561037b57600080fd5b506103aa6004803603604081101561039257600080fd5b506001600160a01b0381351690602001351515610c64565b60408051602080825283518183015283519192839290830191858101910280838360005b838110156103e65781810151838201526020016103ce565b505050509050019250505060405180910390f35b61035b6004803603602081101561041057600080fd5b50351515610e44565b61035b6004803603602081101561042f57600080fd5b5035610edd565b61043e610f9f565b005b34801561044c57600080fd5b5061035b6110e7565b34801561046157600080fd5b506102366004803603604081101561047857600080fd5b506001600160a01b0381351690602001356110f5565b34801561049a57600080fd5b50610236600480360360208110156104b157600080fd5b50356001600160a01b03166111d7565b61035b600480360360408110156104d757600080fd5b50803590602001356001600160a01b03166113cd565b3480156104f957600080fd5b506102366004803603602081101561051057600080fd5b50356001600160a01b031661148f565b34801561052c57600080fd5b5061053561158d565b604080516001600160a01b039092168252519081900360200190f35b34801561055d57600080fd5b506102366115a1565b34801561057257600080fd5b506102366115a7565b34801561058757600080fd5b5061035b6115ad565b61043e6115b6565b3480156105a457600080fd5b50610535611709565b3480156105b957600080fd5b50610236600480360360208110156105d057600080fd5b50356001600160a01b0316611718565b3480156105ec57600080fd5b506105f56117f4565b604080516fffffffffffffffffffffffffffffffff9092168252519081900360200190f35b34801561062657600080fd5b50610236611820565b34801561063b57600080fd5b50610535611826565b61035b6004803603602081101561065a57600080fd5b50351515611835565b34801561066f57600080fd5b506105f56118c8565b34801561068457600080fd5b506102366118e0565b61035b600480360360208110156106a357600080fd5b5035151561195c565b3480156106b857600080fd5b506102366119ef565b3480156106cd57600080fd5b506105356119f5565b3480156106e257600080fd5b5061035b611a04565b3480156106f757600080fd5b5061025d611a0d565b600080805b6001600160a01b038416600090815260208190526040902054811015610805576001600160a01b038416600090815260208190526040902080548290811061074957fe5b60009182526020909120600a90910201546001600160a01b0385811691161480156107ab57506001600160a01b038416600090815260208190526040902080548290811061079357fe5b600091825260209091206007600a90920201015460ff165b156107fd576001600160a01b038416600090815260208190526040902080546107fa9190839081106107d957fe5b90600052602060002090600a02016002015483611a9b90919063ffffffff16565b91505b600101610705565b5092915050565b60088054604080516020601f60026000196101006001881615020190951694909404938401819004810282018101909252828152606093909290918301828280156108985780601f1061086d57610100808354040283529160200191610898565b820191906000526020600020905b81548152906001019060200180831161087b57829003601f168201915b5050505050905090565b600080805b6001600160a01b038416600090815260208190526040902054811015610805576001600160a01b03841660008181526020819052604090208054839081106108eb57fe5b60009182526020909120600a90910201546001600160a01b031614801561094557506001600160a01b038416600090815260208190526040812080548390811061093157fe5b90600052602060002090600a020160010154115b15610951576001909101905b6001016108a7565b600080610964612c31565b6001600160a01b038516600090815260208190526040902080548590811061098857fe5b60009182526020918290206040805161014081018252600a90930290910180546001600160a01b03168352600181015493830193909352600283015490820152600382015460608201526004808301546080830152600583015460a0830152600683015460c0830152600783015460ff16151560e0830152600883015461010083015260099092015461012082015290549091501580610a2d57506004546060820151115b80610a4e5750846001600160a01b031681600001516001600160a01b031614155b80610a5b57506020810151155b15610a6b57600092505050610b51565b60025460045460608301511115610a885760009350505050610b51565b61010082015160009081526001602052604080822054600e54835290822054610ab091611afc565b61012084015190915080821115610ac957506000610ad6565b610ad38183611afc565b90505b600081600280015410610af757600454610af09083611afc565b9050610afc565b506004545b60208501516000610b246064610b1e88610b1886612710611b3e565b90611b97565b90611b3e565b90506000610b39620f4240610b188685611b3e565b9050610b458982611a9b565b99505050505050505050505b92915050565b600080610bf4600b54600f60029054906101000a90046001600160a01b03166001600160a01b03166370a08231306040518263ffffffff1660e01b815260040180826001600160a01b0316815260200191505060206040518083038186803b158015610bc257600080fd5b505afa158015610bd6573d6000803e3d6000fd5b505050506040513d6020811015610bec57600080fd5b505190611afc565b91505090565b600f5460009060ff1615610c55576040805162461bcd60e51b815260206004820152601b60248201527f5769746864726177206172652070617573656420666f72206e6f770000000000604482015290519081900360640190fd5b610c5e33611bd9565b50600190565b60606000805b6001600160a01b038516600090815260208190526040902054811015610d20576001600160a01b0385166000908152602081905260408120805483908110610cae57fe5b90600052602060002090600a020160010154118015610d0c57506001600160a01b03851660009081526020819052604090208054851515919083908110610cf157fe5b600091825260209091206007600a90920201015460ff161515145b15610d18576001909101905b600101610c6a565b5060608167ffffffffffffffff81118015610d3a57600080fd5b50604051908082528060200260200182016040528015610d64578160200160208202803683370190505b5090506000805b6001600160a01b038716600090815260208190526040902054811015610e39576001600160a01b0387166000908152602081905260408120805483908110610daf57fe5b90600052602060002090600a020160010154118015610e0d57506001600160a01b03871660009081526020819052604090208054871515919083908110610df257fe5b600091825260209091206007600a90920201015460ff161515145b15610e315780838381518110610e1f57fe5b60209081029190910101526001909101905b600101610d6b565b509095945050505050565b6007546000906001600160a01b0316331480610e6f575060065461010090046001600160a01b031633145b610ec0576040805162461bcd60e51b815260206004820152601a60248201527f4f6e6c7920746865206f776e65722063616e20646f2074686973000000000000604482015290519081900360640190fd5b50600f80548215156101000261ff00199091161790556001919050565b600f5460009060ff1615610f38576040805162461bcd60e51b815260206004820152601760248201527f4275726e206172652070617573656420666f72206e6f77000000000000000000604482015290519081900360640190fd5b60008211610f8d576040805162461bcd60e51b815260206004820152600e60248201527f496e76616c696420616d6f756e74000000000000000000000000000000000000604482015290519081900360640190fd5b610f973383611fb9565b506001919050565b6007546001600160a01b0316331480610fc7575060065461010090046001600160a01b031633145b611018576040805162461bcd60e51b815260206004820152601a60248201527f4f6e6c7920746865206f776e65722063616e20646f2074686973000000000000604482015290519081900360640190fd5b600f54600b546040805163a9059cbb60e01b8152336004820152602481019290925251620100009092046001600160a01b03169163a9059cbb916044808201926020929091908290030181600087803b15801561107457600080fd5b505af1158015611088573d6000803e3d6000fd5b505050506040513d602081101561109e57600080fd5b505115156001146110e05760405162461bcd60e51b8152600401808060200182810382526022815260200180612de96022913960400191505060405180910390fd5b6000600b55565b600f54610100900460ff1681565b60006110ff612c31565b6001600160a01b038416600090815260208190526040902080548490811061112357fe5b600091825260208083206040805161014081018252600a90940290910180546001600160a01b031684526001810154928401839052600280820154928501929092526003810154606085015260048101546080850152600581015460a0850152600681015460c0850152600781015460ff16151560e08501526008810154610100850152600901546101208401525491935090916111cc6064610b1e85610b1886612710611b3e565b979650505050505050565b600080805b6001600160a01b038416600090815260208190526040902054811015610805576001600160a01b038416600090815260208190526040812080548390811061122057fe5b90600052602060002090600a02016001015411801561127757506001600160a01b038416600090815260208190526040902080548290811061125e57fe5b600091825260209091206007600a90920201015460ff16155b156113c557611284612c31565b6001600160a01b03851660009081526020819052604090208054839081106112a857fe5b600091825260208083206040805161014081018252600a90940290910180546001600160a01b0316845260018101549284019290925260028201549083015260038101546060830152600481015460808301819052600582015460a0840152600682015460c0840152600782015460ff16151560e0840152600882015461010084015260099091015461012083015290925061135590601890610b1890603c908290829082904290611afc565b9050600081116113665750506113c5565b600061139682610b1e612710610b1861138d60648960200151611b3e90919063ffffffff16565b600a5490611b3e565b60c08401519091506113b3906113ad836064611b97565b90611afc565b90506113bf8582611a9b565b94505050505b6001016111dc565b6000808311611423576040805162461bcd60e51b815260206004820152600e60248201527f496e76616c696420616d6f756e74000000000000000000000000000000000000604482015290519081900360640190fd5b600f5460ff161561147b576040805162461bcd60e51b815260206004820152601a60248201527f4465706f736974206172652070617573656420666f72206e6f77000000000000604482015290519081900360640190fd5b6114863384846122c9565b50600192915050565b600080805b6001600160a01b038416600090815260208190526040902054811015610805576001600160a01b03841660009081526020819052604090208054829081106114d857fe5b600091825260209091206007600a90920201015460ff168061152e57506001600160a01b038416600090815260208190526040812080548390811061151957fe5b90600052602060002090600a02016001015411155b1561153857611585565b6001600160a01b0384166000908152602081905260409020805461158291908390811061156157fe5b90600052602060002090600a02016001015483611a9b90919063ffffffff16565b91505b600101611494565b60065461010090046001600160a01b031681565b600c5481565b600b5481565b60065460ff1681565b600f54610100900460ff1615611613576040805162461bcd60e51b815260206004820152601a60248201527f436c61696d206172652064697361626c656420666f72206e6f77000000000000604482015290519081900360640190fd5b6000805b336000908152602081905260409020548110156116c05733600090815260208190526040812080548390811061164957fe5b90600052602060002090600a02019050600081600101541180156116725750600781015460ff16155b156116b7576000611692338360010154846004015442866006015461286e565b60068301549091506116a49082611a9b565b60068301556116b38482611a9b565b9350505b50600101611617565b50600081116116cf5750611707565b60408051828152905133917f47cee97cb7acd717b3c0aa1435d004cd5b3c8c57d70dbceb4e4458bbd60e39d4919081900360200190a2505b565b6010546001600160a01b031681565b600080805b6001600160a01b038416600090815260208190526040902054811015610805576001600160a01b038416600090815260208190526040902080548290811061176157fe5b600091825260209091206007600a90920201015460ff1615611782576117ec565b6001600160a01b03841660009081526020819052604090208054429190839081106117a957fe5b90600052602060002090600a020160050154116117ec576001600160a01b038416600090815260208190526040902080546117e991908390811061156157fe5b91505b60010161171d565b60095470010000000000000000000000000000000090046fffffffffffffffffffffffffffffffff1681565b600d5481565b6007546001600160a01b031681565b6007546000906001600160a01b0316331480611860575060065461010090046001600160a01b031633145b6118b1576040805162461bcd60e51b815260206004820152601a60248201527f4f6e6c7920746865206f776e65722063616e20646f2074686973000000000000604482015290519081900360640190fd5b506006805460ff1916911515919091179055600190565b6009546fffffffffffffffffffffffffffffffff1681565b601154604080516370a0823160e01b815230600482015290516000926001600160a01b0316916370a08231916024808301926020929190829003018186803b15801561192b57600080fd5b505afa15801561193f573d6000803e3d6000fd5b505050506040513d602081101561195557600080fd5b5051905090565b6007546000906001600160a01b0316331480611987575060065461010090046001600160a01b031633145b6119d8576040805162461bcd60e51b815260206004820152601a60248201527f4f6e6c7920746865206f776e65722063616e20646f2074686973000000000000604482015290519081900360640190fd5b50600f805460ff1916911515919091179055600190565b600a5481565b6012546001600160a01b031681565b600f5460ff1681565b6008805460408051602060026001851615610100026000190190941693909304601f81018490048402820184019092528181529291830182828015611a935780601f10611a6857610100808354040283529160200191611a93565b820191906000526020600020905b815481529060010190602001808311611a7657829003601f168201915b505050505081565b600082820183811015611af5576040805162461bcd60e51b815260206004820152601b60248201527f536166654d6174683a206164646974696f6e206f766572666c6f770000000000604482015290519081900360640190fd5b9392505050565b6000611af583836040518060400160405280601e81526020017f536166654d6174683a207375627472616374696f6e206f766572666c6f770000815250612a46565b600082611b4d57506000610b51565b82820282848281611b5a57fe5b0414611af55760405162461bcd60e51b8152600401808060200182810382526021815260200180612e386021913960400191505060405180910390fd5b6000611af583836040518060400160405280601a81526020017f536166654d6174683a206469766973696f6e206279207a65726f000000000000815250612add565b60008060005b6001600160a01b038416600090815260208190526040902054811015611cf5576001600160a01b0384166000908152602081905260408120805483908110611c2357fe5b90600052602060002090600a0201905042816005015411158015611c4b575060008160010154115b15611cec57600781015460019093019260009060ff16611c8157611c7e868360010154846004015442866006015461286e565b90505b6000611c91838460010154612b42565b600784015490915060ff16611cc857611cc181611cbb856001015489611a9b90919063ffffffff16565b90611a9b565b9550611cd5565b611cd28682611a9b565b95505b6006830154611ce49083611a9b565b600684015550505b50600101611bdf565b506000805b6001600160a01b038516600090815260208190526040902054811015611e72576001600160a01b0385166000908152602081905260408120805483908110611d3e57fe5b90600052602060002090600a0201905042816005015411158015611d66575060008160010154115b15611d7e576000600182018190556002820155611e69565b6001600160a01b0386166000908152602081905260409020805484919084908110611da557fe5b6000918252602080832084546001818101875595855291909320600a928302909301805491909202909201805473ffffffffffffffffffffffffffffffffffffffff19166001600160a01b0390931692909217825582810154928201929092556002808301549082015560038083015490820155600480830154908201556005808301549082015560068083015490820155600780830154908201805460ff909216151560ff19909216919091179055600880830154908201556009918201549101555b50600101611cfa565b506001600160a01b03841660009081526020819052604090208154611e9991908390612c8f565b5060008311611eaa57505050611fb6565b600f546040805163a9059cbb60e01b81526001600160a01b038781166004830152602482018790529151620100009093049091169163a9059cbb916044808201926020929091908290030181600087803b158015611f0757600080fd5b505af1158015611f1b573d6000803e3d6000fd5b505050506040513d6020811015611f3157600080fd5b50511515600114611f735760405162461bcd60e51b8152600401808060200182810382526022815260200180612de96022913960400191505060405180910390fd5b6040805184815290516001600160a01b038616917f884edad9ce6fa2440d8a54cc123490eb96d2768479d49ff9c7366125a9424364919081900360200190a25050505b50565b601154604080516370a0823160e01b81526001600160a01b0385811660048301529151849392909216916370a0823191602480820192602092909190829003018186803b15801561200957600080fd5b505afa15801561201d573d6000803e3d6000fd5b505050506040513d602081101561203357600080fd5b50511015612088576040805162461bcd60e51b815260206004820152601f60248201527f5472616e7366657220616d6f756e7420657863656564732062616c616e636500604482015290519081900360640190fd5b601154604080517f9dc29fac0000000000000000000000000000000000000000000000000000000081526001600160a01b0385811660048301526024820185905291519190921691639dc29fac91604480830192600092919082900301818387803b1580156120f657600080fd5b505af115801561210a573d6000803e3d6000fd5b5050600e5461211d925090506001611a9b565b600e556001600160a01b0382166000818152602081815260409182902082516101408101909352928252600d549082019061216790670de0b6b3a764000090610b18908790611b3e565b815260200183815260200160008152602001428152602001612199600c54620151800242611a9b90919063ffffffff16565b81526000602080830182905260016040808501829052600e546060808701919091526004805460809788015288548085018a55988652948490208751600a90990201805473ffffffffffffffffffffffffffffffffffffffff19166001600160a01b03998a16178155938701519284019290925585015160028301558401516003820155918301519082015560a0820151600582015560c0820151600682015560e082015160078201805460ff1916911515919091179055610100820151600882015561012090910151600990910155600d54908316907f49995e5dd6158cf69ad3e9777c46755a1a826a446c6416992167462dad033b2a9083906122ad90670de0b6b3a764000090610b18908490611b3e565b6040805192835260208301919091528051918290030190a25050565b81600f60029054906101000a90046001600160a01b03166001600160a01b03166370a08231856040518263ffffffff1660e01b815260040180826001600160a01b0316815260200191505060206040518083038186803b15801561232c57600080fd5b505afa158015612340573d6000803e3d6000fd5b505050506040513d602081101561235657600080fd5b505110156123ab576040805162461bcd60e51b815260206004820152601f60248201527f5472616e7366657220616d6f756e7420657863656564732062616c616e636500604482015290519081900360640190fd5b600f54604080517f23b872dd000000000000000000000000000000000000000000000000000000008152336004820152306024820152604481018590529051620100009092046001600160a01b0316916323b872dd916064808201926020929091908290030181600087803b15801561242357600080fd5b505af1158015612437573d6000803e3d6000fd5b505050506040513d602081101561244d57600080fd5b5051151560011461248f5760405162461bcd60e51b8152600401808060200182810382526022815260200180612de96022913960400191505060405180910390fd5b6009546127106fffffffffffffffffffffffffffffffff9091168302046001600160a01b038216158015906124cd57506001600160a01b0382163314155b1561260357612710611388820204816124e68183611afc565b600f546040805163a9059cbb60e01b81526001600160a01b03888116600483015260248201879052915193965062010000909204169163a9059cbb916044808201926020929091908290030181600087803b15801561254457600080fd5b505af1158015612558573d6000803e3d6000fd5b505050506040513d602081101561256e57600080fd5b505115156001146125b05760405162461bcd60e51b815260040180806020018281038252602f815260200180612e59602f913960400191505060405180910390fd5b604080518681526020810184905280820183905290516001600160a01b0380871692908916917f870e4e1dcfab6c09707448d3659b3d8097c084bf06e7467d6029940cd7122ee09181900360600190a350505b6009546127107001000000000000000000000000000000009091046fffffffffffffffffffffffffffffffff168402046000612643826113ad8786611afc565b600b549091506126539084611a9b565b600b55600e5461267257600b5461266a9083611a9b565b600b55612693565b60035461267f9083611a9b565b60035560045461268f9083611a9b565b6004555b6002546126a09082611a9b565b600255600e546126b1906001611a9b565b600e81905560058190556003546000918252600160209081526040808420929092556001600160a01b03891680845283825282842083516101408101855291825291810185905291820192909252606081018490524260808201819052600c5460a0830191612724916201518002611a9b565b8152600060208083018290526040808401839052600e5460608086019190915260048054608096870152875460018082018a55988652948490208751600a90960201805473ffffffffffffffffffffffffffffffffffffffff19166001600160a01b0396871617815593870151978401979097559085015160028301558401516003820155918301519382019390935560a0820151600582015560c0820151600682015560e082015160078201805460ff191691151591909117905561010082015160088201556101209091015160099091015586167f7162984403f6c73c8639375d45a9187dfd04602231bd8e587c415718b5f7e5f9866128268686611a9b565b42612841600c54620151800242611a9b90919063ffffffff16565b604080519485526020850193909352838301919091526060830152519081900360800190a2505050505050565b600f54600090610100900460ff161561288957506000612a3d565b600061289f6018610b18603c8181818a8c611afc565b9050600081116128b3576000915050612a3d565b60006128cd82610b1e612710610b1861138d8c6064611b3e565b90506128de846113ad836064611b97565b9050600081116128f357600092505050612a3d565b601154604080517f40c10f190000000000000000000000000000000000000000000000000000000081523060048201526024810184905290516001600160a01b03909216916340c10f199160448082019260009290919082900301818387803b15801561295f57600080fd5b505af1158015612973573d6000803e3d6000fd5b50506011546040805163a9059cbb60e01b81526001600160a01b038d8116600483015260248201879052915191909216935063a9059cbb925060448083019260209291908290030181600087803b1580156129cd57600080fd5b505af11580156129e1573d6000803e3d6000fd5b505050506040513d60208110156129f757600080fd5b50511515600114612a395760405162461bcd60e51b815260040180806020018281038252602d815260200180612e0b602d913960400191505060405180910390fd5b9150505b95945050505050565b60008184841115612ad55760405162461bcd60e51b81526004018080602001828103825283818151815260200191508051906020019080838360005b83811015612a9a578181015183820152602001612a82565b50505050905090810190601f168015612ac75780820380516001836020036101000a031916815260200191505b509250505060405180910390fd5b505050900390565b60008183612b2c5760405162461bcd60e51b8152602060048201818152835160248401528351909283926044909101919085019080838360008315612a9a578181015183820152602001612a82565b506000838581612b3857fe5b0495945050505050565b6004546000901580612b5957506004546003840154115b15612b6657506000610b51565b600254600884015460009081526001602052604080822054600e54835290822054612b9091611afc565b600986015490915080821115612ba857506000612bb5565b612bb28183611afc565b90505b600081600280015410612bd657600454612bcf9083611afc565b9050612bdb565b506004545b856000620f4240612bf76064610b1e89610b1887612710611b3e565b840281612c0057fe5b6004549190049150612c129082611afc565b600455600254612c229089611afc565b60025598975050505050505050565b60405180610140016040528060006001600160a01b0316815260200160008152602001600081526020016000815260200160008152602001600081526020016000815260200160001515815260200160008152602001600081525090565b82805482825590600052602060002090600a028101928215612d6857600052602060002091600a0282015b82811115612d68578254825473ffffffffffffffffffffffffffffffffffffffff19166001600160a01b03909116178255600180840154908301556002808401549083015560038084015490830155600480840154908301556005808401549083015560068084015490830155600780840154908301805460ff909216151560ff199092169190911790556008808401549083015560098084015490830155600a9283019290910190612cba565b50612d74929150612d78565b5090565b5b80821115612d7457805473ffffffffffffffffffffffffffffffffffffffff19168155600060018201819055600282018190556003820181905560048201819055600582018190556006820181905560078201805460ff19169055600882018190556009820155600a01612d7956fe4572726f72207472616e7366657246726f6d206f6e2074686520636f6e74726163744572726f72207472616e7366657246726f6d20666f7220726577617264206f6e2074686520636f6e7472616374536166654d6174683a206d756c7469706c69636174696f6e206f766572666c6f774572726f72207472616e7366657246726f6d206f6e2074686520636f6e747261637420666f7220726566657272616ca264697066735822122090bbcd21e087f4d130ddc49e83cef4aba5174bc76a61538dbf31d952f3efc4ff64736f6c634300070000334f6e6c7920746865206f776e65722063616e20646f207468697320616374696f6ea2646970667358221220bf46cbcd9f2309bb4b649814f866d751e48704acf5dfe97c1b99a1110ff2b19464736f6c63430007000033",
  "immutableReferences": {},
  "source": "// SPDX-License-Identifier: UNLICENSED\r\n\r\npragma solidity ^0.7.0;\r\n\r\nimport \"./HornLockVault_v2.sol\";\r\nimport \"./HornToken.sol\";\r\nimport \"./interfaces/IExtendedERC20.sol\";\r\n\r\ncontract UnifiedHornVault {\r\n    address private _owner;\r\n    address private _hornTokenAddr;\r\n    HornToken private _hornToken;\r\n\r\n    address[] public vaultIndexes;\r\n\r\n    modifier onlyOwner() {\r\n        require(msg.sender == _owner, \"Only the owner can do this action\");\r\n        _;\r\n    }\r\n\r\n    constructor(address hornTokenAddr) {\r\n        _owner = msg.sender;\r\n        _hornTokenAddr = hornTokenAddr;\r\n        _hornToken = HornToken(hornTokenAddr);\r\n    }\r\n\r\n    function fetchIndexes() public view returns (address[] memory) {\r\n        address[] memory result = new address[](vaultIndexes.length);\r\n        for (uint256 i = 0; i < vaultIndexes.length; i++) {\r\n            result[i] = vaultIndexes[i];\r\n        }\r\n        return result;\r\n    }\r\n\r\n    function addPool(\r\n        address lockedTokenAddr,\r\n        address hornTokenAddr,\r\n        uint128 fee,\r\n        uint128 depositRewardFee,\r\n        uint256 hornPerDay,\r\n        uint256 minLockDays,\r\n        uint256 weightPerHorn\r\n    ) public payable onlyOwner returns (address) {\r\n        // Create the vault\r\n        HornLockVaultV2 vault =\r\n            new HornLockVaultV2(\r\n                msg.sender,\r\n                lockedTokenAddr,\r\n                hornTokenAddr,\r\n                fee,\r\n                depositRewardFee,\r\n                hornPerDay,\r\n                minLockDays,\r\n                weightPerHorn\r\n            );\r\n        _hornToken.grantRole(_hornToken.MINTER_ROLE(), address(vault));\r\n        _hornToken.grantRole(_hornToken.BURNER_ROLE(), address(vault));\r\n        vault.setActiveState(true);\r\n\r\n        // add the index to the array\r\n        vaultIndexes.push(address(vault));\r\n\r\n        return address(vault);\r\n    }\r\n\r\n    function addExistingPool(address addr)\r\n        public\r\n        payable\r\n        onlyOwner\r\n        returns (address)\r\n    {\r\n        vaultIndexes.push(addr);\r\n        return addr;\r\n    }\r\n\r\n    function removePool(address addr) public payable onlyOwner {\r\n        HornLockVaultV2 vault = HornLockVaultV2(addr);\r\n        vault.setActiveState(false);\r\n\r\n        address[] memory newArray = new address[](vaultIndexes.length - 1);\r\n        uint256 new_index = 0;\r\n        for (uint256 i = 0; i < vaultIndexes.length; i++) {\r\n            if (vaultIndexes[i] != addr) {\r\n                newArray[new_index++] = vaultIndexes[i];\r\n            }\r\n        }\r\n        vaultIndexes = newArray;\r\n    }\r\n}\r\n",
  "sourcePath": "D:/Development/horn/horn-token/contracts/UnifiedHornVault.sol",
  "compiler": {
    "name": "solc",
    "version": "0.7.0+commit.9e61f92b.Emscripten.clang"
  },
  "schemaVersion": "3.3.2",
  "updatedAt": "2021-01-15T21:49:23.714Z",
  "networkType": "ethereum",
  "devdoc": {
    "kind": "dev",
    "methods": {},
    "version": 1
  },
  "userdoc": {
    "kind": "user",
    "methods": {},
    "version": 1
  }
}