{
  "contractName": "UnifiedHornVault",
  "abi": [
    {
      "inputs": [
        {
          "internalType": "address",
          "name": "hornTokenAddr",
          "type": "address"
        }
      ],
      "stateMutability": "nonpayable",
      "type": "constructor"
    },
    {
      "inputs": [
        {
          "internalType": "uint256",
          "name": "",
          "type": "uint256"
        }
      ],
      "name": "vaultIndexes",
      "outputs": [
        {
          "internalType": "address",
          "name": "",
          "type": "address"
        }
      ],
      "stateMutability": "view",
      "type": "function",
      "constant": true
    },
    {
      "inputs": [],
      "name": "fetchIndexes",
      "outputs": [
        {
          "internalType": "address[]",
          "name": "",
          "type": "address[]"
        }
      ],
      "stateMutability": "view",
      "type": "function",
      "constant": true
    },
    {
      "inputs": [
        {
          "internalType": "address",
          "name": "lockedTokenAddr",
          "type": "address"
        },
        {
          "internalType": "address",
          "name": "hornTokenAddr",
          "type": "address"
        },
        {
          "internalType": "uint128",
          "name": "fee",
          "type": "uint128"
        },
        {
          "internalType": "uint128",
          "name": "depositRewardFee",
          "type": "uint128"
        },
        {
          "internalType": "uint256",
          "name": "hornPerDay",
          "type": "uint256"
        },
        {
          "internalType": "uint256",
          "name": "minLockDays",
          "type": "uint256"
        },
        {
          "internalType": "uint256",
          "name": "weightPerHorn",
          "type": "uint256"
        }
      ],
      "name": "addPool",
      "outputs": [
        {
          "internalType": "address",
          "name": "",
          "type": "address"
        }
      ],
      "stateMutability": "payable",
      "type": "function",
      "payable": true
    },
    {
      "inputs": [
        {
          "internalType": "address",
          "name": "addr",
          "type": "address"
        }
      ],
      "name": "addExistingPool",
      "outputs": [
        {
          "internalType": "address",
          "name": "",
          "type": "address"
        }
      ],
      "stateMutability": "payable",
      "type": "function",
      "payable": true
    },
    {
      "inputs": [
        {
          "internalType": "address",
          "name": "addr",
          "type": "address"
        }
      ],
      "name": "removePool",
      "outputs": [],
      "stateMutability": "payable",
      "type": "function",
      "payable": true
    }
  ],
  "bytecode": "0x608060405234801561001057600080fd5b50604051613a32380380613a328339818101604052602081101561003357600080fd5b5051600080546001600160a01b03199081163317909155600180546001600160a01b03909316928216831790556002805490911690911790556139b78061007b6000396000f3fe608060405260043610620000625760003560e01c8063b4ec66581162000049578063b4ec665814620000d7578063e41a18471462000105578063eca6dc62146200016c5762000062565b80633b7d09461462000067578063a9a01f0d1462000092575b600080fd5b62000090600480360360208110156200007f57600080fd5b50356001600160a01b0316620001d6565b005b620000bb60048036036020811015620000aa57600080fd5b50356001600160a01b0316620003ae565b604080516001600160a01b039092168252519081900360200190f35b348015620000e457600080fd5b50620000bb60048036036020811015620000fd57600080fd5b503562000456565b620000bb600480360360e08110156200011d57600080fd5b506001600160a01b0381358116916020810135909116906fffffffffffffffffffffffffffffffff604082013581169160608101359091169060808101359060a08101359060c001356200047e565b3480156200017957600080fd5b50620001846200089a565b60408051602080825283518183015283519192839290830191858101910280838360005b83811015620001c2578181015183820152602001620001a8565b505050509050019250505060405180910390f35b6000546001600160a01b03163314620002215760405162461bcd60e51b8152600401808060200182810382526021815260200180620039616021913960400191505060405180910390fd5b6000819050806001600160a01b031663bfe22a0160006040518263ffffffff1660e01b8152600401808215158152602001915050602060405180830381600087803b1580156200027057600080fd5b505af115801562000285573d6000803e3d6000fd5b505050506040513d60208110156200029c57600080fd5b50506003546060906000190167ffffffffffffffff81118015620002bf57600080fd5b50604051908082528060200260200182016040528015620002ea578160200160208202803683370190505b5090506000805b6003548110156200039157846001600160a01b0316600382815481106200031457fe5b6000918252602090912001546001600160a01b0316146200038857600381815481106200033d57fe5b600091825260209091200154835160018401936001600160a01b0390921691859181106200036757fe5b60200260200101906001600160a01b031690816001600160a01b0316815250505b600101620002f1565b508151620003a790600390602085019062000955565b5050505050565b600080546001600160a01b03163314620003fa5760405162461bcd60e51b8152600401808060200182810382526021815260200180620039616021913960400191505060405180910390fd5b50600380546001810182556000919091527fc2575a0e9e593c00f959f8c92f12db2869c3395a3b0502d05e2516446f71f85b01805473ffffffffffffffffffffffffffffffffffffffff19166001600160a01b03831617905590565b600381815481106200046457fe5b6000918252602090912001546001600160a01b0316905081565b600080546001600160a01b03163314620004ca5760405162461bcd60e51b8152600401808060200182810382526021815260200180620039616021913960400191505060405180910390fd5b60003389898989898989604051620004e290620009cc565b80896001600160a01b03168152602001886001600160a01b03168152602001876001600160a01b03168152602001866fffffffffffffffffffffffffffffffff168152602001856fffffffffffffffffffffffffffffffff16815260200184815260200183815260200182815260200198505050505050505050604051809103906000f08015801562000579573d6000803e3d6000fd5b50600254604080517fd539139300000000000000000000000000000000000000000000000000000000815290519293506001600160a01b0390911691632f2ff15d91839163d539139391600480820192602092909190829003018186803b158015620005e457600080fd5b505afa158015620005f9573d6000803e3d6000fd5b505050506040513d60208110156200061057600080fd5b5051604080517fffffffff0000000000000000000000000000000000000000000000000000000060e085901b16815260048101929092526001600160a01b038516602483015251604480830192600092919082900301818387803b1580156200067857600080fd5b505af11580156200068d573d6000803e3d6000fd5b5050600254604080517f282c51f300000000000000000000000000000000000000000000000000000000815290516001600160a01b039092169350632f2ff15d9250839163282c51f391600480820192602092909190829003018186803b158015620006f857600080fd5b505afa1580156200070d573d6000803e3d6000fd5b505050506040513d60208110156200072457600080fd5b5051604080517fffffffff0000000000000000000000000000000000000000000000000000000060e085901b16815260048101929092526001600160a01b038516602483015251604480830192600092919082900301818387803b1580156200078c57600080fd5b505af1158015620007a1573d6000803e3d6000fd5b5050604080517fbfe22a010000000000000000000000000000000000000000000000000000000081526001600482015290516001600160a01b038516935063bfe22a01925060248083019260209291908290030181600087803b1580156200080857600080fd5b505af11580156200081d573d6000803e3d6000fd5b505050506040513d60208110156200083457600080fd5b5050600380546001810182556000919091527fc2575a0e9e593c00f959f8c92f12db2869c3395a3b0502d05e2516446f71f85b01805473ffffffffffffffffffffffffffffffffffffffff19166001600160a01b03831617905598975050505050505050565b600354606090819067ffffffffffffffff81118015620008b957600080fd5b50604051908082528060200260200182016040528015620008e4578160200160208202803683370190505b50905060005b6003548110156200094f57600381815481106200090357fe5b9060005260206000200160009054906101000a90046001600160a01b03168282815181106200092e57fe5b6001600160a01b0390921660209283029190910190910152600101620008ea565b50905090565b828054828255906000526020600020908101928215620009ba579160200282015b82811115620009ba578251825473ffffffffffffffffffffffffffffffffffffffff19166001600160a01b0390911617825560209092019160019091019062000976565b50620009c8929150620009da565b5090565b612f588062000a0983390190565b5b80821115620009c857805473ffffffffffffffffffffffffffffffffffffffff19168155600101620009db56fe60806040526007805460ff191660011790556000600f556010805461ffff191690553480156200002e57600080fd5b5060405162002f5838038062002f5883398181016040526101008110156200005557600080fd5b50805160208201516040808401516060850151608086015160a087015160c088015160e09098015160078054610100600160a81b0319166101003302179055600880546001600160a01b03199081166001600160a01b03808c1691909117909255601180548216838b169081179091556010805462010000600160b01b031916620100009283021790819055601380548416858b16908117909155601280549094161790925588516395d89b4160e01b815298519a9b999a97999698959794969593949104909116916395d89b41916004808301926000929190829003018186803b1580156200014457600080fd5b505afa15801562000159573d6000803e3d6000fd5b505050506040513d6000823e601f3d908101601f1916820160405260208110156200018357600080fd5b8101908080516040519392919084640100000000821115620001a457600080fd5b908301906020820185811115620001ba57600080fd5b8251640100000000811182820188101715620001d557600080fd5b82525081516020918201929091019080838360005b8381101562000204578181015183820152602001620001ea565b50505050905090810190601f168015620002325780820380516001836020036101000a031916815260200191505b50604052505081516200024d926009925060200190620002c9565b50600a80546001600160801b03958616600160801b029686166001600160801b03199091161790941694909417909255600b55600d55600e55505060408051608081018252600080825260208201819052918101829052600f546060909101819052600382905560048290556005919091556006555062000365565b828054600181600116156101000203166002900490600052602060002090601f016020900481019282601f106200030c57805160ff19168380011785556200033c565b828001600101855582156200033c579182015b828111156200033c5782518255916020019190600101906200031f565b506200034a9291506200034e565b5090565b5b808211156200034a57600081556001016200034f565b612be380620003756000396000f3fe6080604052600436106101d85760003560e01c8063849bea6311610102578063b2bdfa7b11610095578063cdb88ad111610064578063cdb88ad114610652578063d0717be514610671578063d5a5aa4914610686578063fab980b71461069b576101d8565b8063b2bdfa7b146105f4578063bfe22a0114610609578063c5b37c2214610628578063cd3293de1461063d576101d8565b80639ab804e4116100d15780639ab804e41461055d5780639c3ee24414610572578063a92d07af146105a5578063ac4892b7146105df576101d8565b8063849bea63146105165780638a5b3d711461052b5780638ec89e4f146105405780639000ddaa14610555576101d8565b806340f644fc1161017a578063681ba71511610149578063681ba715146104535780636e553f651461048657806370a08231146104b2578063733d8945146104e5576101d8565b806340f644fc146103d457806342966c68146103f3578063476343ee1461041057806367aac7231461041a576101d8565b80631a6da392116101b65780631a6da392146102df578063274fc72a146103185780633ccfd60b1461032d5780633e72058d14610349576101d8565b806302bfd4a3146101dd57806306fdde03146102225780630e70a4e9146102ac575b600080fd5b3480156101e957600080fd5b506102106004803603602081101561020057600080fd5b50356001600160a01b03166106b0565b60408051918252519081900360200190f35b34801561022e57600080fd5b506102376107bc565b6040805160208082528351818301528351919283929083019185019080838360005b83811015610271578181015183820152602001610259565b50505050905090810190601f16801561029e5780820380516001836020036101000a031916815260200191505b509250505060405180910390f35b3480156102b857600080fd5b50610210600480360360208110156102cf57600080fd5b50356001600160a01b0316610852565b3480156102eb57600080fd5b506102106004803603604081101561030257600080fd5b506001600160a01b038135169060200135610909565b34801561032457600080fd5b50610210610b08565b610335610bab565b604080519115158252519081900360200190f35b34801561035557600080fd5b506103846004803603604081101561036c57600080fd5b506001600160a01b0381351690602001351515610c15565b60408051602080825283518183015283519192839290830191858101910280838360005b838110156103c05781810151838201526020016103a8565b505050509050019250505060405180910390f35b610335600480360360208110156103ea57600080fd5b50351515610df5565b6103356004803603602081101561040957600080fd5b5035610e8e565b610418610f50565b005b34801561042657600080fd5b506102106004803603604081101561043d57600080fd5b506001600160a01b038135169060200135611098565b34801561045f57600080fd5b506102106004803603602081101561047657600080fd5b50356001600160a01b031661117c565b6103356004803603604081101561049c57600080fd5b50803590602001356001600160a01b0316611372565b3480156104be57600080fd5b50610210600480360360208110156104d557600080fd5b50356001600160a01b0316611434565b3480156104f157600080fd5b506104fa6114f3565b604080516001600160a01b039092168252519081900360200190f35b34801561052257600080fd5b50610210611507565b34801561053757600080fd5b5061021061150d565b34801561054c57600080fd5b50610335611513565b61041861151c565b34801561056957600080fd5b506104fa61166f565b34801561057e57600080fd5b506102106004803603602081101561059557600080fd5b50356001600160a01b031661167e565b3480156105b157600080fd5b506105ba61175a565b604080516fffffffffffffffffffffffffffffffff9092168252519081900360200190f35b3480156105eb57600080fd5b50610210611786565b34801561060057600080fd5b506104fa61178c565b6103356004803603602081101561061f57600080fd5b5035151561179b565b34801561063457600080fd5b506105ba61182e565b34801561064957600080fd5b50610210611846565b6103356004803603602081101561066857600080fd5b503515156118c2565b34801561067d57600080fd5b50610210611955565b34801561069257600080fd5b506104fa61195b565b3480156106a757600080fd5b5061023761196a565b600080805b6001600160a01b0384166000908152602081905260409020548110156107b5576001600160a01b03841660009081526020819052604090208054829081106106f957fe5b60009182526020909120600a90910201546001600160a01b03858116911614801561075b57506001600160a01b038416600090815260208190526040902080548290811061074357fe5b600091825260209091206007600a90920201015460ff165b156107ad576001600160a01b038416600090815260208190526040902080546107aa91908390811061078957fe5b90600052602060002090600a020160020154836119f890919063ffffffff16565b91505b6001016106b5565b5092915050565b60098054604080516020601f60026000196101006001881615020190951694909404938401819004810282018101909252828152606093909290918301828280156108485780601f1061081d57610100808354040283529160200191610848565b820191906000526020600020905b81548152906001019060200180831161082b57829003601f168201915b5050505050905090565b600080805b6001600160a01b0384166000908152602081905260409020548110156107b5576001600160a01b038416600081815260208190526040902080548390811061089b57fe5b60009182526020909120600a90910201546001600160a01b03161480156108f557506001600160a01b03841660009081526020819052604081208054839081106108e157fe5b90600052602060002090600a020160010154115b15610901576001909101905b600101610857565b600080610914612ab0565b6001600160a01b038516600090815260208190526040902080548590811061093857fe5b60009182526020918290206040805161014081018252600a90930290910180546001600160a01b03168352600181015493830193909352600283015490820152600382015460608201526004820154608082015260058083015460a0830152600683015460c0830152600783015460ff16151560e08301526008830154610100830152600990920154610120820152905490915015806109dd57506005546060820151115b806109fe5750846001600160a01b031681600001516001600160a01b031614155b80610a0b57506020810151155b15610a1b57600092505050610b02565b60035460055460608301511115610a385760009350505050610b02565b61010082015160009081526001602052604080822054600f54835290822054610a6091611a59565b61012084015190915080821115610a7957506000610a86565b610a838183611a59565b90505b60008160036002015410610aa857600554610aa19083611a59565b9050610aad565b506005545b60208501516000610ad56064610acf88610ac986612710611a9b565b90611af4565b90611a9b565b90506000610aea620f4240610ac98685611a9b565b9050610af689826119f8565b99505050505050505050505b92915050565b600080610ba5600c54601060029054906101000a90046001600160a01b03166001600160a01b03166370a08231306040518263ffffffff1660e01b815260040180826001600160a01b0316815260200191505060206040518083038186803b158015610b7357600080fd5b505afa158015610b87573d6000803e3d6000fd5b505050506040513d6020811015610b9d57600080fd5b505190611a59565b91505090565b60105460009060ff1615610c06576040805162461bcd60e51b815260206004820152601b60248201527f5769746864726177206172652070617573656420666f72206e6f770000000000604482015290519081900360640190fd5b610c0f33611b36565b50600190565b60606000805b6001600160a01b038516600090815260208190526040902054811015610cd1576001600160a01b0385166000908152602081905260408120805483908110610c5f57fe5b90600052602060002090600a020160010154118015610cbd57506001600160a01b03851660009081526020819052604090208054851515919083908110610ca257fe5b600091825260209091206007600a90920201015460ff161515145b15610cc9576001909101905b600101610c1b565b5060608167ffffffffffffffff81118015610ceb57600080fd5b50604051908082528060200260200182016040528015610d15578160200160208202803683370190505b5090506000805b6001600160a01b038716600090815260208190526040902054811015610dea576001600160a01b0387166000908152602081905260408120805483908110610d6057fe5b90600052602060002090600a020160010154118015610dbe57506001600160a01b03871660009081526020819052604090208054871515919083908110610da357fe5b600091825260209091206007600a90920201015460ff161515145b15610de25780838381518110610dd057fe5b60209081029190910101526001909101905b600101610d1c565b509095945050505050565b6008546000906001600160a01b0316331480610e20575060075461010090046001600160a01b031633145b610e71576040805162461bcd60e51b815260206004820152601a60248201527f4f6e6c7920746865206f776e65722063616e20646f2074686973000000000000604482015290519081900360640190fd5b50601080548215156101000261ff00199091161790556001919050565b60105460009060ff1615610ee9576040805162461bcd60e51b815260206004820152601760248201527f4275726e206172652070617573656420666f72206e6f77000000000000000000604482015290519081900360640190fd5b60008211610f3e576040805162461bcd60e51b815260206004820152600e60248201527f496e76616c696420616d6f756e74000000000000000000000000000000000000604482015290519081900360640190fd5b610f483383611e21565b506001919050565b6008546001600160a01b0316331480610f78575060075461010090046001600160a01b031633145b610fc9576040805162461bcd60e51b815260206004820152601a60248201527f4f6e6c7920746865206f776e65722063616e20646f2074686973000000000000604482015290519081900360640190fd5b601054600c546040805163a9059cbb60e01b8152336004820152602481019290925251620100009092046001600160a01b03169163a9059cbb916044808201926020929091908290030181600087803b15801561102557600080fd5b505af1158015611039573d6000803e3d6000fd5b505050506040513d602081101561104f57600080fd5b505115156001146110915760405162461bcd60e51b8152600401808060200182810382526022815260200180612b0f6022913960400191505060405180910390fd5b6000600c55565b60006110a2612ab0565b6001600160a01b03841660009081526020819052604090208054849081106110c657fe5b600091825260208083206040805161014081018252600a90940290910180546001600160a01b031684526001810154928401839052600281015491840191909152600380820154606085015260048201546080850152600582015460a0850152600682015460c0850152600782015460ff16151560e085015260088201546101008501526009909101546101208401525491935090916111716064610acf85610ac986612710611a9b565b979650505050505050565b600080805b6001600160a01b0384166000908152602081905260409020548110156107b5576001600160a01b03841660009081526020819052604081208054839081106111c557fe5b90600052602060002090600a02016001015411801561121c57506001600160a01b038416600090815260208190526040902080548290811061120357fe5b600091825260209091206007600a90920201015460ff16155b1561136a57611229612ab0565b6001600160a01b038516600090815260208190526040902080548390811061124d57fe5b600091825260208083206040805161014081018252600a90940290910180546001600160a01b0316845260018101549284019290925260028201549083015260038101546060830152600481015460808301819052600582015460a0840152600682015460c0840152600782015460ff16151560e084015260088201546101008401526009909101546101208301529092506112fa90601890610ac990603c908290829082904290611a59565b90506000811161130b57505061136a565b600061133b82610acf612710610ac961133260648960200151611a9b90919063ffffffff16565b600b5490611a9b565b60c084015190915061135890611352836064611af4565b90611a59565b905061136485826119f8565b94505050505b600101611181565b60008083116113c8576040805162461bcd60e51b815260206004820152600e60248201527f496e76616c696420616d6f756e74000000000000000000000000000000000000604482015290519081900360640190fd5b60105460ff1615611420576040805162461bcd60e51b815260206004820152601a60248201527f4465706f736974206172652070617573656420666f72206e6f77000000000000604482015290519081900360640190fd5b61142b33848461213c565b50600192915050565b600080805b6001600160a01b0384166000908152602081905260409020548110156107b5576001600160a01b038416600090815260208190526040902080548290811061147d57fe5b600091825260209091206007600a90920201015460ff161561149e576114eb565b6001600160a01b038416600090815260208190526040902080546114e89190839081106114c757fe5b90600052602060002090600a020160010154836119f890919063ffffffff16565b91505b600101611439565b60075461010090046001600160a01b031681565b600d5481565b600c5481565b60075460ff1681565b601054610100900460ff1615611579576040805162461bcd60e51b815260206004820152601a60248201527f436c61696d206172652064697361626c656420666f72206e6f77000000000000604482015290519081900360640190fd5b6000805b33600090815260208190526040902054811015611626573360009081526020819052604081208054839081106115af57fe5b90600052602060002090600a02019050600081600101541180156115d85750600781015460ff16155b1561161d5760006115f833836001015484600401544286600601546126ec565b600683015490915061160a90826119f8565b600683015561161984826119f8565b9350505b5060010161157d565b5060008111611635575061166d565b60408051828152905133917f47cee97cb7acd717b3c0aa1435d004cd5b3c8c57d70dbceb4e4458bbd60e39d4919081900360200190a2505b565b6011546001600160a01b031681565b600080805b6001600160a01b0384166000908152602081905260409020548110156107b5576001600160a01b03841660009081526020819052604090208054829081106116c757fe5b600091825260209091206007600a90920201015460ff16156116e857611752565b6001600160a01b038416600090815260208190526040902080544291908390811061170f57fe5b90600052602060002090600a02016005015411611752576001600160a01b0384166000908152602081905260409020805461174f9190839081106114c757fe5b91505b600101611683565b600a5470010000000000000000000000000000000090046fffffffffffffffffffffffffffffffff1681565b600e5481565b6008546001600160a01b031681565b6008546000906001600160a01b03163314806117c6575060075461010090046001600160a01b031633145b611817576040805162461bcd60e51b815260206004820152601a60248201527f4f6e6c7920746865206f776e65722063616e20646f2074686973000000000000604482015290519081900360640190fd5b506007805460ff1916911515919091179055600190565b600a546fffffffffffffffffffffffffffffffff1681565b601254604080516370a0823160e01b815230600482015290516000926001600160a01b0316916370a08231916024808301926020929190829003018186803b15801561189157600080fd5b505afa1580156118a5573d6000803e3d6000fd5b505050506040513d60208110156118bb57600080fd5b5051905090565b6008546000906001600160a01b03163314806118ed575060075461010090046001600160a01b031633145b61193e576040805162461bcd60e51b815260206004820152601a60248201527f4f6e6c7920746865206f776e65722063616e20646f2074686973000000000000604482015290519081900360640190fd5b506010805460ff1916911515919091179055600190565b600b5481565b6013546001600160a01b031681565b6009805460408051602060026001851615610100026000190190941693909304601f810184900484028201840190925281815292918301828280156119f05780601f106119c5576101008083540402835291602001916119f0565b820191906000526020600020905b8154815290600101906020018083116119d357829003601f168201915b505050505081565b600082820183811015611a52576040805162461bcd60e51b815260206004820152601b60248201527f536166654d6174683a206164646974696f6e206f766572666c6f770000000000604482015290519081900360640190fd5b9392505050565b6000611a5283836040518060400160405280601e81526020017f536166654d6174683a207375627472616374696f6e206f766572666c6f7700008152506128c4565b600082611aaa57506000610b02565b82820282848281611ab757fe5b0414611a525760405162461bcd60e51b8152600401808060200182810382526021815260200180612b5e6021913960400191505060405180910390fd5b6000611a5283836040518060400160405280601a81526020017f536166654d6174683a206469766973696f6e206279207a65726f00000000000081525061295b565b6000805b6001600160a01b038316600090815260208190526040902054811015611c4a576001600160a01b0383166000908152602081905260408120805483908110611b7e57fe5b90600052602060002090600a0201905042816005015411158015611ba6575060008160010154115b15611c4157600781015460009060ff16611bd657611bd385836001015484600401544286600601546126ec565b90505b6000611be68384600101546129c0565b600784015490915060ff16611c1d57611c1681611c108560010154886119f890919063ffffffff16565b906119f8565b9450611c2a565b611c2785826119f8565b94505b6006830154611c3990836119f8565b600684015550505b50600101611b3a565b5060005b6001600160a01b038316600090815260208190526040902054811015611cd7576001600160a01b0383166000908152602081905260408120805483908110611c9257fe5b90600052602060002090600a0201905042816005015411158015611cba575060008160010154115b15611cce5760006001820181905560028201555b50600101611c4e565b5060008111611ce65750611e1e565b600f54600090815260026020526040902054611d0290826119f8565b600f54600090815260026020908152604080832093909355601054835163a9059cbb60e01b81526001600160a01b038781166004830152602482018790529451620100009092049094169363a9059cbb9360448083019493928390030190829087803b158015611d7157600080fd5b505af1158015611d85573d6000803e3d6000fd5b505050506040513d6020811015611d9b57600080fd5b50511515600114611ddd5760405162461bcd60e51b8152600401808060200182810382526022815260200180612b0f6022913960400191505060405180910390fd5b6040805182815290516001600160a01b038416917f884edad9ce6fa2440d8a54cc123490eb96d2768479d49ff9c7366125a9424364919081900360200190a2505b50565b601254604080516370a0823160e01b81526001600160a01b0385811660048301529151849392909216916370a0823191602480820192602092909190829003018186803b158015611e7157600080fd5b505afa158015611e85573d6000803e3d6000fd5b505050506040513d6020811015611e9b57600080fd5b50511015611ef0576040805162461bcd60e51b815260206004820152601f60248201527f5472616e7366657220616d6f756e7420657863656564732062616c616e636500604482015290519081900360640190fd5b601254604080517f9dc29fac0000000000000000000000000000000000000000000000000000000081526001600160a01b0385811660048301526024820185905291519190921691639dc29fac91604480830192600092919082900301818387803b158015611f5e57600080fd5b505af1158015611f72573d6000803e3d6000fd5b5050600f54611f859250905060016119f8565b600f556001600160a01b0382166000818152602081815260409182902082516101408101909352928252600e5490820190611fcf90670de0b6b3a764000090610ac9908790611a9b565b815260200183815260200160008152602001428152602001612001600d546201518002426119f890919063ffffffff16565b81526000602080830182905260016040808501829052600f546060808701919091526005805460809788015288548085018a55988652948490208751600a9099020180547fffffffffffffffffffffffff0000000000000000000000000000000000000000166001600160a01b03998a1617815593870151928401929092558501516002830155840151600382015591830151600483015560a08301519082015560c0820151600682015560e082015160078201805460ff1916911515919091179055610100820151600882015561012090910151600990910155600e54908316907f49995e5dd6158cf69ad3e9777c46755a1a826a446c6416992167462dad033b2a90839061212090670de0b6b3a764000090610ac9908490611a9b565b6040805192835260208301919091528051918290030190a25050565b81601060029054906101000a90046001600160a01b03166001600160a01b03166370a08231856040518263ffffffff1660e01b815260040180826001600160a01b0316815260200191505060206040518083038186803b15801561219f57600080fd5b505afa1580156121b3573d6000803e3d6000fd5b505050506040513d60208110156121c957600080fd5b5051101561221e576040805162461bcd60e51b815260206004820152601f60248201527f5472616e7366657220616d6f756e7420657863656564732062616c616e636500604482015290519081900360640190fd5b601054604080517f23b872dd000000000000000000000000000000000000000000000000000000008152336004820152306024820152604481018590529051620100009092046001600160a01b0316916323b872dd916064808201926020929091908290030181600087803b15801561229657600080fd5b505af11580156122aa573d6000803e3d6000fd5b505050506040513d60208110156122c057600080fd5b505115156001146123025760405162461bcd60e51b8152600401808060200182810382526022815260200180612b0f6022913960400191505060405180910390fd5b600a546127106fffffffffffffffffffffffffffffffff9091168302046001600160a01b0382161580159061234057506001600160a01b0382163314155b1561247657612710611388820204816123598183611a59565b6010546040805163a9059cbb60e01b81526001600160a01b03888116600483015260248201879052915193965062010000909204169163a9059cbb916044808201926020929091908290030181600087803b1580156123b757600080fd5b505af11580156123cb573d6000803e3d6000fd5b505050506040513d60208110156123e157600080fd5b505115156001146124235760405162461bcd60e51b815260040180806020018281038252602f815260200180612b7f602f913960400191505060405180910390fd5b604080518681526020810184905280820183905290516001600160a01b0380871692908916917f870e4e1dcfab6c09707448d3659b3d8097c084bf06e7467d6029940cd7122ee09181900360600190a350505b600a546127107001000000000000000000000000000000009091046fffffffffffffffffffffffffffffffff1684020460006124b6826113528786611a59565b600c549091506124c690846119f8565b600c55600f546124e557600c546124dd90836119f8565b600c55612506565b6004546124f290836119f8565b60045560055461250290836119f8565b6005555b60035461251390826119f8565b600355600f546125249060016119f8565b600f81905560068190556004546000918252600160209081526040808420929092556001600160a01b03891680845283825282842083516101408101855291825291810185905291820192909252606081018490524260808201819052600d5460a08301916125979162015180026119f8565b8152600060208083018290526040808401839052600f5460608086019190915260058054608096870152875460018082018a55988652948490208751600a9096020180547fffffffffffffffffffffffff0000000000000000000000000000000000000000166001600160a01b039687161781559387015197840197909755908501516002830155840151600382015591830151600483015560a08301519382019390935560c0820151600682015560e082015160078201805460ff191691151591909117905561010082015160088201556101209091015160099091015586167f7162984403f6c73c8639375d45a9187dfd04602231bd8e587c415718b5f7e5f9866126a486866119f8565b426126bf600d546201518002426119f890919063ffffffff16565b604080519485526020850193909352838301919091526060830152519081900360800190a2505050505050565b601054600090610100900460ff1615612707575060006128bb565b600061271d6018610ac9603c8181818a8c611a59565b9050600081116127315760009150506128bb565b600061274b82610acf612710610ac96113328c6064611a9b565b905061275c84611352836064611af4565b905060008111612771576000925050506128bb565b601254604080517f40c10f190000000000000000000000000000000000000000000000000000000081523060048201526024810184905290516001600160a01b03909216916340c10f199160448082019260009290919082900301818387803b1580156127dd57600080fd5b505af11580156127f1573d6000803e3d6000fd5b50506012546040805163a9059cbb60e01b81526001600160a01b038d8116600483015260248201879052915191909216935063a9059cbb925060448083019260209291908290030181600087803b15801561284b57600080fd5b505af115801561285f573d6000803e3d6000fd5b505050506040513d602081101561287557600080fd5b505115156001146128b75760405162461bcd60e51b815260040180806020018281038252602d815260200180612b31602d913960400191505060405180910390fd5b9150505b95945050505050565b600081848411156129535760405162461bcd60e51b81526004018080602001828103825283818151815260200191508051906020019080838360005b83811015612918578181015183820152602001612900565b50505050905090810190601f1680156129455780820380516001836020036101000a031916815260200191505b509250505060405180910390fd5b505050900390565b600081836129aa5760405162461bcd60e51b8152602060048201818152835160248401528351909283926044909101919085019080838360008315612918578181015183820152602001612900565b5060008385816129b657fe5b0495945050505050565b60055460009015806129d757506005546003840154115b156129e457506000610b02565b600354600884015460009081526001602052604080822054600f54835290822054612a0e91611a59565b600986015490915080821115612a2657506000612a33565b612a308183611a59565b90505b60008160036002015410612a5557600554612a4e9083611a59565b9050612a5a565b506005545b856000620f4240612a766064610acf89610ac987612710611a9b565b840281612a7f57fe5b6005549190049150612a919082611a59565b600555600354612aa19089611a59565b60035598975050505050505050565b60405180610140016040528060006001600160a01b031681526020016000815260200160008152602001600081526020016000815260200160008152602001600081526020016000151581526020016000815260200160008152509056fe4572726f72207472616e7366657246726f6d206f6e2074686520636f6e74726163744572726f72207472616e7366657246726f6d20666f7220726577617264206f6e2074686520636f6e7472616374536166654d6174683a206d756c7469706c69636174696f6e206f766572666c6f774572726f72207472616e7366657246726f6d206f6e2074686520636f6e747261637420666f7220726566657272616ca264697066735822122055a1af820d8eadf103fac4e9e26aa3f876004d30d3f453322842a78a1c4196cb64736f6c634300070000334f6e6c7920746865206f776e65722063616e20646f207468697320616374696f6ea2646970667358221220b9fef4256953cf8db063073fa6e5bb9d3a8f84e5196549e825d439d6a19632cc64736f6c63430007000033",
  "immutableReferences": {},
  "source": "// SPDX-License-Identifier: UNLICENSED\r\n\r\npragma solidity ^0.7.0;\r\n\r\nimport \"./HornLockVault_v2.sol\";\r\nimport \"./HornToken.sol\";\r\nimport \"./interfaces/IExtendedERC20.sol\";\r\n\r\ncontract UnifiedHornVault {\r\n    address private _owner;\r\n    address private _hornTokenAddr;\r\n    HornToken private _hornToken;\r\n\r\n    address[] public vaultIndexes;\r\n\r\n    modifier onlyOwner() {\r\n        require(msg.sender == _owner, \"Only the owner can do this action\");\r\n        _;\r\n    }\r\n\r\n    constructor(address hornTokenAddr) {\r\n        _owner = msg.sender;\r\n        _hornTokenAddr = hornTokenAddr;\r\n        _hornToken = HornToken(hornTokenAddr);\r\n    }\r\n\r\n    function fetchIndexes() public view returns (address[] memory) {\r\n        address[] memory result = new address[](vaultIndexes.length);\r\n        for (uint256 i = 0; i < vaultIndexes.length; i++) {\r\n            result[i] = vaultIndexes[i];\r\n        }\r\n        return result;\r\n    }\r\n\r\n    function addPool(\r\n        address lockedTokenAddr,\r\n        address hornTokenAddr,\r\n        uint128 fee,\r\n        uint128 depositRewardFee,\r\n        uint256 hornPerDay,\r\n        uint256 minLockDays,\r\n        uint256 weightPerHorn\r\n    ) public payable onlyOwner returns (address) {\r\n        // Create the vault\r\n        HornLockVaultV2 vault =\r\n            new HornLockVaultV2(\r\n                msg.sender,\r\n                lockedTokenAddr,\r\n                hornTokenAddr,\r\n                fee,\r\n                depositRewardFee,\r\n                hornPerDay,\r\n                minLockDays,\r\n                weightPerHorn\r\n            );\r\n        _hornToken.grantRole(_hornToken.MINTER_ROLE(), address(vault));\r\n        _hornToken.grantRole(_hornToken.BURNER_ROLE(), address(vault));\r\n        vault.setActiveState(true);\r\n\r\n        // add the index to the array\r\n        vaultIndexes.push(address(vault));\r\n\r\n        return address(vault);\r\n    }\r\n\r\n    function addExistingPool(address addr)\r\n        public\r\n        payable\r\n        onlyOwner\r\n        returns (address)\r\n    {\r\n        vaultIndexes.push(addr);\r\n        return addr;\r\n    }\r\n\r\n    function removePool(address addr) public payable onlyOwner {\r\n        HornLockVaultV2 vault = HornLockVaultV2(addr);\r\n        vault.setActiveState(false);\r\n\r\n        address[] memory newArray = new address[](vaultIndexes.length - 1);\r\n        uint256 new_index = 0;\r\n        for (uint256 i = 0; i < vaultIndexes.length; i++) {\r\n            if (vaultIndexes[i] != addr) {\r\n                newArray[new_index++] = vaultIndexes[i];\r\n            }\r\n        }\r\n        vaultIndexes = newArray;\r\n    }\r\n}\r\n",
  "sourcePath": "D:/Development/horn/horn-token/contracts/UnifiedHornVault.sol",
  "compiler": {
    "name": "solc",
    "version": "0.7.0+commit.9e61f92b.Emscripten.clang"
  },
  "schemaVersion": "3.3.2",
  "updatedAt": "2021-01-07T19:08:14.550Z",
  "networkType": "ethereum",
  "devdoc": {
    "kind": "dev",
    "methods": {},
    "version": 1
  },
  "userdoc": {
    "kind": "user",
    "methods": {},
    "version": 1
  }
}